:020000040800F2
:1000000000500020416500088960000895600008E4
:100010009B600008A1600008A760000800000000C5
:10002000000000000000000000000000AD600008BB
:10003000B960000800000000C5600008D160000839
:1000400089650008896500088965000889650008D8
:1000500089650008896500088965000889650008C8
:100060008965000889650008DD6000088965000869
:100070008965000889650008ED60000801610008D5
:100080008965000889650008896500088965000898
:100090008965000889650008896500088965000888
:1000A0008965000889650008896500088965000878
:1000B0001561000829610008896500083D61000894
:1000C0008965000889650008896500088965000858
:1000D00089650008516100086561000889650008AC
:1000E000896500088965000889650008000000002E
:1000F0000000000000000000000000000000000000
:0C01000000000000000000005FF808F1A3
:10010C0010B5054C237833B9044B13B10448AFF345
:10011C0000800123237010BD980000200000000017
:10012C00406E000808B5034B1BB103490348AFF3FD
:10013C00008008BD000000009C000020406E0008FC
:10014C0010F8012B11F8013B012A28BF9A42F7D075
:10015C00D01A7047034613F8012B002AFBD1181A4A
:10016C000138704780B500AF084B1B68074A43F055
:10017C0010031360032000F045F9022000F008F88A
:10018C0005F09EFD0023184680BD00BF00200240F4
:10019C0080B582B000AF7860124B1A68124B1B7896
:1001AC0019464FF47A73B3FBF1F3B2FBF3F3184631
:1001BC0000F05DF90346002B01D001230EE07B68B3
:1001CC000F2B0AD8002279684FF0FF3000F025F988
:1001DC00064A7B681360002300E0012318460837A9
:1001EC00BD4680BD1C000020040000200000002043
:1001FC0080B400AF054B1B781A46054B1B681344A3
:10020C00034A136000BFBD4680BC70470400002049
:10021C006801002080B400AF024B1B681846BD4635
:10022C0080BC70476801002080B584B000AF786056
:10023C00FFF7F0FFB8607B68FB60FB68B3F1FF3F32
:10024C0005D0094B1B781A46FB681344FB6000BFB2
:10025C00FFF7E0FF0246BB68D31AFA689A42F7D858
:10026C0000BF1037BD4680BD0400002080B485B0AF
:10027C0000AF78607B6803F00703FB600C4BDB6816
:10028C00BB60BA684FF6FF031340BB60FB681A02F1
:10029C00BB68134343F0BF6343F40033BB60044AB1
:1002AC00BB68D36000BF1437BD4680BC704700BF2D
:1002BC0000ED00E080B400AF044BDB681B0A03F0D8
:1002CC0007031846BD4680BC704700BF00ED00E038
:1002DC0080B483B000AF0346FB7197F90730002B55
:1002EC000BDBFB7903F01F02064997F907305B091A
:1002FC00012000FA02F241F8232000BF0C37BD4662
:10030C0080BC704700E100E080B483B000AF0346CE
:10031C003960FB7197F90730002B0ADB3B68DAB2C6
:10032C000C4997F907301201D2B20B4483F8002321
:10033C000AE03B68DAB20849FB7903F00F03043B8F
:10034C001201D2B20B441A7600BF0C37BD4680BCEA
:10035C00704700BF00E100E000ED00E080B489B020
:10036C0000AFF860B9607A60FB6803F00703FB61CB
:10037C00FB69C3F10703042B28BF0423BB61FB6992
:10038C000433062B02D9FB69033B00E000237B619D
:10039C004FF0FF32BB6902FA03F3DA43BB681A4031
:1003AC007B699A404FF0FF317B6901FA03F3D94323
:1003BC007B680B40134318462437BD4680BC7047FE
:1003CC0080B582B000AF78607B68013BB3F1807F71
:1003DC0001D301230FE00A4A7B68013B53600F21D4
:1003EC004FF0FF30FFF790FF054B00229A60044B53
:1003FC0007221A60002318460837BD4680BD00BF8F
:10040C0010E000E080B582B000AF78607868FFF74C
:10041C002DFF00BF0837BD4680BD80B586B000AF4C
:10042C000346B9607A60FB7300237B61FFF742FFE0
:10043C0078617A68B9687869FFF790FF024697F996
:10044C000F3011461846FFF75FFF00BF1837BD4647
:10045C0080BD80B582B000AF0346FB7197F90730C1
:10046C001846FFF735FF00BF0837BD4680BD80B585
:10047C0082B000AF78607868FFF7A2FF0346184699
:10048C000837BD4680BD000080B485B000AF7860F1
:10049C000023FB607B68002B01D1012343E07B68C8
:1004AC001B681A46224B1344224AA2FB03231B0946
:1004BC009A007B681A647B681F4ADA637B680222A5
:1004CC0083F821207B681B681B68FB60FB6823F4A6
:1004DC007F5323F03003FB607B685A687B689B6812
:1004EC001A437B68DB681A437B681B691A437B6879
:1004FC005B691A437B689B691A437B68DB6913430E
:10050C00FA681343FB607B681B68FA681A607B68A7
:10051C0000229A637B68012283F821207B680022E9
:10052C0083F82020002318461437BD4680BC704742
:10053C00F8FFFDBFCDCCCCCC0000024080B586B01E
:10054C0000AFF860B9607A603B600023FB75FB6814
:10055C0093F82030012B01D102234AE0FB680122E1
:10056C0083F82020FB6893F82130012B3AD1FB68EB
:10057C00022283F82120FB6800229A63FB681B6827
:10058C001A68FB681B6822F001021A603B687A68E3
:10059C00B968F86800F0BAF9FB68DB6A002B08D080
:1005AC00FB681B681A68FB681B6842F00E021A6035
:1005BC000FE0FB681B681A68FB681B6822F00402DA
:1005CC001A60FB681B681A68FB681B6842F00A0219
:1005DC001A60FB681B681A68FB681B6842F0010212
:1005EC001A6005E0FB68002283F820200223FB75CB
:1005FC00FB7D18461837BD4680BD000080B584B021
:10060C0000AF78600023FB737B6893F82130022BDA
:10061C0005D07B6804229A630123FB7351E07B684D
:10062C001B681A687B681B6822F00E021A607B68D4
:10063C001B681A687B681B6822F001021A607B68D1
:10064C001B68224A934229D07B681B68204A93423C
:10065C0022D07B681B681F4A93421AD07B681B68A8
:10066C001D4A934212D07B681B681C4A93420AD0E5
:10067C007B681B681A4A934202D14FF480130EE038
:10068C004FF080730BE04FF4803308E04FF480534D
:10069C0005E04FF4807302E0102300E00123114ABF
:1006AC0053607B68012283F821207B68002283F849
:1006BC0020207B685B6B002B03D07B685B6B7868BE
:1006CC009847FB7B18461037BD4680BD080002409A
:1006DC001C0002403000024044000240580002401E
:1006EC006C0002400000024080B584B000AF78601E
:1006FC007B68DB6B1B68FB607B681B681B68BB60E3
:10070C007B681B6C04229A40FB681340002B4FD073
:10071C00BB6803F00403002B4AD07B681B681B6882
:10072C0003F02003002B07D17B681B681A687B68D9
:10073C001B6822F004021A607B681B68664A9342AD
:10074C0029D07B681B68654A934222D07B681B6862
:10075C00634A93421AD07B681B68624A934212D058
:10076C007B681B68604A93420AD07B681B685F4AAF
:10077C00934202D14FF480030EE04FF080630BE004
:10078C004FF4802308E04FF4804305E04FF480637E
:10079C0002E0402300E00423554A53607B68DB6A87
:1007AC00002B00F094807B68DB6A786898478EE0B9
:1007BC007B681B6C02229A40FB681340002B56D0BE
:1007CC00BB6803F00203002B51D07B681B681B68CD
:1007DC0003F02003002B0BD17B681B681A687B6825
:1007EC001B6822F00A021A607B68012283F8212020
:1007FC007B681B68384A934229D07B681B68374A50
:10080C00934222D07B681B68354A93421AD07B688E
:10081C001B68344A934212D07B681B68324A93425D
:10082C000AD07B681B68314A934202D14FF4001303
:10083C000EE04FF000730BE04FF4003308E04FF480
:10084C00005305E04FF4007302E0202300E0022384
:10085C00274A53607B68002283F820207B689B6AC0
:10086C00002B34D07B689B6A786898472FE07B68B4
:10087C001B6C08229A40FB681340002B28D0BB68E5
:10088C0003F00803002B23D07B681B681A687B6875
:10089C001B6822F00E021A607B681A6C7B68DB6B9B
:1008AC00012101FA02F25A607B6801229A637B688B
:1008BC00012283F821207B68002283F820207B68AA
:1008CC001B6B002B04D07B681B6B7868984700BFB0
:1008DC0000BF1037BD4680BD080002401C0002401E
:1008EC003000024044000240580002406C000240BC
:1008FC000000024080B483B000AF78607B6893F84E
:10090C00213018460C37BD4680BC704780B485B08A
:10091C0000AFF860B9607A603B60FB681A6CFB68EA
:10092C00DB6B012101FA02F25A60FB681B683A6822
:10093C005A60FB685B68102B08D1FB681B687A68EF
:10094C009A60FB681B68BA68DA6007E0FB681B6892
:10095C00BA689A60FB681B687A68DA6000BF143763
:10096C00BD4680BC7047000080B48BB000AF78608F
:10097C00396000237B6200233B6227E101227B6A02
:10098C0002FA03F3FB613B681B68FA691340BB6115
:10099C00BA69FB699A4240F016813B685B68122B7E
:1009AC0034D0122B0DD8022B2BD0022B04D8002BB9
:1009BC0031D0012B1CD048E0032B43D0112B1BD082
:1009CC0043E0894A934226D0874A934206D8874A05
:1009DC00934220D0864A93421DD036E0854A9342FA
:1009EC0019D0854A934216D0844A934213D02CE0F6
:1009FC003B68DB683B6228E03B68DB6804333B62A6
:100A0C0023E03B68DB6808333B621EE03B68DB6835
:100A1C000C333B6219E03B689B68002B02D104232A
:100A2C003B6212E03B689B68012B05D108233B62BB
:100A3C007B68FA691A6108E008233B627B68FA69F3
:100A4C005A6102E000233B6200BFBB69FF2B01D857
:100A5C007B6801E07B6804337B61BB69FF2B02D8A8
:100A6C007B6A9B0002E07B6A083B9B003B617B69D5
:100A7C001A680F213B6901FA03F3DB431A40396A08
:100A8C003B6901FA03F31A437B691A603B685B68A4
:100A9C0003F08053002B00F09680594B9B69584A09
:100AAC0043F001039361564B9B6903F00103BB6058
:100ABC00BB68544A7B6A9B08023352F82330FB60B4
:100ACC007B6A03F003039B000F2202FA03F3DB4360
:100ADC00FA681340FB607B684B4A934213D07B68E7
:100AEC004A4A93420DD07B68494A934207D07B68AF
:100AFC00484A934201D1032306E0042304E0022375
:100B0C0002E0012300E000237A6A02F00302920063
:100B1C009340FA681343FB603A497B6A9B080233A3
:100B2C00FA6841F823203B685B6803F48033002BA0
:100B3C0006D0394B1A683849BB6913430B6006E081
:100B4C00354B1A68BB69DB43334913400B603B6878
:100B5C005B6803F40033002B06D02F4B5A682E49E8
:100B6C00BB6913434B6006E02B4B5A68BB69DB43F4
:100B7C00294913404B603B685B6803F48013002BDE
:100B8C0006D0254B9A682449BB6913438B6006E059
:100B9C00214B9A68BB69DB431F4913408B603B6850
:100BAC005B6803F40013002B06D01B4BDA681A4960
:100BBC00BB691343CB6006E0174BDA68BB69DB43B8
:100BCC0015491340CB607B6A01337B623B681A6822
:100BDC007B6A22FA03F3002B7FF4D0AE00BF2C37D4
:100BEC00BD4680BC704700BF0000211000001110F2
:100BFC000000121000003110000032100000221012
:100C0C00001002400000014000080140000C0140AF
:100C1C0000100140001401400004014080B483B076
:100C2C0000AF78600B467B8013467B707B78002B83
:100C3C0003D07A887B681A6103E07B881A047B688E
:100C4C001A6100BF0C37BD4680BC704780B582B0BE
:100C5C0000AF0346FB80084B5A69FB881340002BFE
:100C6C0006D0054AFB885361FB88184604F0E2FD68
:100C7C0000BF0837BD4680BD0004014080B584B07C
:100C8C0000AF78607B68002B01D101230FE17B68FA
:100C9C0093F83D30DBB2002B06D17B68002283F841
:100CAC003C20786805F03EF87B68242283F83D20D0
:100CBC007B681B681A687B681B6822F001021A604B
:100CCC0002F030F8F8607B685B687B4A934207D887
:100CDC00FB687A4A934294BF01230023DBB206E0FF
:100CEC00FB68774A934294BF01230023DBB2002BAD
:100CFC0001D00123DBE0FB68724AA2FB03239B0CAF
:100D0C00BB607B681B685B6823F03F017B681B68DA
:100D1C00BA680A435A607B681B681B6A23F03F0160
:100D2C007B685B68644A934202D8BB68013309E074
:100D3C00BB684FF4967202FB03F3634AA2FB0323D6
:100D4C009B0901337A6812680B4313627B681B683A
:100D5C00DB6923F44F4222F0FF027B685B68564943
:100D6C008B420DD8FB68591E7B685B685B00B1FB3E
:100D7C00F3F30133C3F30B03042B38BF04234FE00D
:100D8C007B689B68002B11D1FB68581E7B685968E7
:100D9C000B465B000B44B0FBF3F30133C3F30B03C3
:100DAC00002B0CBF01230023DBB212E0FB68581EA2
:100DBC007B6859680B469B000B4499000B44B0FBB5
:100DCC00F3F30133C3F30B03002B0CBF01230023FC
:100DDC00DBB2002B01D0012322E07B689B68002B47
:100DEC000ED1FB68581E7B6859680B465B000B44A0
:100DFC00B0FBF3F30133C3F30B0343F400430FE0F5
:100E0C00FB68581E7B6859680B469B000B44990085
:100E1C000B44B0FBF3F30133C3F30B0343F4404334
:100E2C00796809681343CB617B681B681B6823F0E6
:100E3C00C0017B68DA697B681B6A1A437B681B6894
:100E4C000A431A607B681B689B6823F4034323F0F6
:100E5C00FF037A6811697A68D26811437A6812685C
:100E6C000B4393607B681B68DB6823F0FF017B6896
:100E7C005A697B689B691A437B681B680A43DA6072
:100E8C007B681B681A687B681B6842F001021A6059
:100E9C007B6800221A647B68202283F83D207B68E3
:100EAC0000221A637B68002283F83E200023184638
:100EBC001037BD4680BD00BFA08601007F841E0098
:100ECC00FF083D0083DE1B43D34D621080B487B016
:100EDC0000AFF8607A601A460B467B8113463B8163
:100EEC0000237B61FB6893F83D30DBB2202B40F094
:100EFC008580454B1B68DB08444AA2FB03231A0A76
:100F0C0013469B0013449A0013447B617B69013B9D
:100F1C007B617B69002B16D1FB6800221A63FB688E
:100F2C00202283F83D20FB68002283F83E20FB68DA
:100F3C001B6C43F02002FB681A64FB68002283F8E8
:100F4C003C2001235BE0FB681B689B6903F00203F8
:100F5C00022BDBD0FB6893F83C30012B01D1022330
:100F6C004DE0FB68012283F83C20FB681B681B6882
:100F7C0003F00103012B07D0FB681B681A68FB68A0
:100F8C001B6842F001021A60FB681B681A68FB6858
:100F9C001B6822F400621A60FB68212283F83D2052
:100FAC00FB68102283F83E20FB6800221A64FB6861
:100FBC007A685A62FB683A895A85FB685B8D9AB2EB
:100FCC00FB681A85FB68124ADA627A89FB685A64F4
:100FDC00FB681B681A68FB681B6842F480721A6015
:100FEC00FB68002283F83C20FB681B685A68FB688E
:100FFC001B6842F4E0625A60002300E002231846AA
:10100C001C37BD4680BC70471C00002089B5F81405
:10101C000000FFFF80B588B000AF78600023BB6193
:10102C007B681B685B687B617B68DB6A3B617B6808
:10103C0093F83E30FB737B6893F83D30BB73FB7BBE
:10104C00102B03D0FB7B402B40F0B6807B681B68D9
:10105C009B69BB617B681B685B69FB61FB6903F087
:10106C000103002B0DD13B69B3F52A0F03D03B696B
:10107C00B3F12A4F01D1012300E00023012B00F032
:10108C002781FB6903F00103002B0CD07B695B0A01
:10109C0003F00103002B06D0786801F052FA78684F
:1010AC0000F051FC87E0FB69DB0803F00103002B27
:1010BC0009D07B695B0A03F00103002B03D078682D
:1010CC0000F0C6FC77E0FB695B0803F00103002B22
:1010DC0009D07B695B0A03F00103002B03D078680D
:1010EC0000F0DFFC67E0BB699B0803F00103002BF9
:1010FC0030D07B681B685B6803F40063B3F5006F4A
:10110C0000F0E880FB69DB0903F00103002B0FD032
:10111C007B699B0A03F00103002B09D0FB699B0838
:10112C0003F00103002B03D1786800F032F942E0A0
:10113C00FB699B0803F00103002B00F0CB807B695B
:10114C005B0A03F00103002B00F0C480786800F008
:10115C0018FABFE07B681B685B6803F40063B3F5A7
:10116C00006F00F0B780FB699B0903F00103002BB3
:10117C000FD07B699B0A03F00103002B09D0FB699C
:10118C009B0803F00103002B03D1786800F06FFA81
:10119C0011E0FB699B0803F00103002B00F09A801F
:1011AC007B695B0A03F00103002B00F093807868E5
:1011BC0000F0DFFA8EE08DE07B681B6C002B04D016
:1011CC007B681B685B69FB6107E07B681B689B693C
:1011DC00BB617B681B685B69FB61FB695B0803F0A7
:1011EC000103002B12D07B695B0A03F00103002B77
:1011FC000CD07B681B6C002B03D07B681B689B6935
:10120C00BB61B969786800F0A3FE66E0FB691B0955
:10121C0003F00103002B09D07B695B0A03F0010387
:10122C00002B03D0786800F0D7FE56E0BB7B212B57
:10123C0002D0BB7B292B25D1FB69DB0903F0010311
:10124C00002B0FD07B699B0A03F00103002B09D004
:10125C00FB699B0803F00103002B03D1786800F0B5
:10126C00BBFD39E0FB699B0803F00103002B33D075
:10127C007B695B0A03F00103002B2DD0786800F02A
:10128C00E8FD29E0FB699B0903F00103002B0FD05B
:10129C007B699B0A03F00103002B09D0FB699B08B7
:1012AC0003F00103002B03D1786800F0F2FD14E089
:1012BC00FB699B0803F00103002B0ED07B695B0AD2
:1012CC0003F00103002B08D0786800F020FE04E046
:1012DC0000BF02E000BF00E000BF2037BD4680BD6C
:1012EC0080B483B000AF786000BF0C37BD4680BCC3
:1012FC00704780B483B000AF786000BF0C37BD4638
:10130C0080BC704780B483B000AF78600B46FB7034
:10131C0013463B8000BF0C37BD4680BC704780B481
:10132C0083B000AF786000BF0C37BD4680BC7047FF
:10133C0080B483B000AF786000BF0C37BD4680BC72
:10134C00704780B483B000AF786000BF0C37BD46E7
:10135C0080BC704780B483B000AF786000BF0C379E
:10136C00BD4680BC704780B483B000AF786000BFCE
:10137C000C37BD4680BC704780B483B000AF78603A
:10138C007B6893F83D30DBB218460C37BD4680BC09
:10139C00704780B584B000AF78607B6893F83D30BF
:1013AC00FB737B6893F83E30BB737B68DB6ABB6076
:1013BC007B681B8D002B50D1FB7B212B4DD1BB6847
:1013CC00082B1DD0BB68202B1AD0BB6813F5803FAF
:1013DC0016D07B681B685A687B681B6822F4E06235
:1013EC005A607B6811221A637B68002283F83E20C6
:1013FC007B68202283F83D20786804F05BF9BCE020
:10140C007B681B685A687B681B6822F4E0625A6030
:10141C007B681B681A687B681B6842F400721A6050
:10142C007B6800221A637B68202283F83D207B684E
:10143C0093F83E30DBB2402B07D17B68002283F857
:10144C003E207868FFF774FF97E07B68002283F8F2
:10145C003E20786804F02EF98FE0FB7B212B07D01F
:10146C00BB7B402B40F08980FB7B222B40F085809E
:10147C007B685B8D9BB2002B08D17B681B685A681C
:10148C007B681B6822F480625A6076E07B6893F874
:10149C003E30DBB2402B5DD17B681B6D002B1DD128
:1014AC007B68DB6C012B0BD17B689B6CDAB27B68A5
:1014BC001B681A617B681B6D9A1C7B681A655CE063
:1014CC007B689B6C9BB21B12DAB27B681B681A613F
:1014DC007B681B6D5A1C7B681A654EE07B681B6D24
:1014EC00012B0BD17B689B6CDAB27B681B681A6191
:1014FC007B681B6D5A1C7B681A653EE07B681B6D14
:10150C00022B3AD17B6893F83D30DBB2222B08D109
:10151C007B681B681A687B681B6842F480721A60CF
:10152C002BE07B6893F83D30DBB2212B25D17B6817
:10153C005B6A1A787B681B681A617B685B6A5A1C49
:10154C007B685A627B685B8D9BB2013B9AB27B686D
:10155C005A8512E07B685B6A1A787B681B681A6193
:10156C007B685B6A5A1C7B685A627B685B8D9BB29A
:10157C00013B9AB27B685A85FFE700BF1037BD4626
:10158C0080BD80B584B000AF78607B68DB6AFB609F
:10159C007B6893F83D30DBB2212B64D17B685B8D8B
:1015AC009BB2002B12D07B685B6A1A787B681B6835
:1015BC001A617B685B6A5A1C7B685A627B685B8D1C
:1015CC009BB2013B9AB27B685A854CE0FB68082BB6
:1015DC001DD0FB68202B1AD0FB6813F5803F16D06A
:1015EC007B681B685A687B681B6822F4E0625A604F
:1015FC007B6811221A637B68002283F83E207B688B
:10160C00202283F83D20786804F054F82BE07B68A6
:10161C001B685A687B681B6822F4E0625A607B681E
:10162C001B681A687B681B6842F400721A607B683E
:10163C0000221A637B68202283F83D207B6893F894
:10164C003E30DBB2402B07D17B68002283F83E2072
:10165C007868FFF76DFE06E07B68002283F83E2079
:10166C00786804F027F800BF1037BD4680BD80B500
:10167C0084B000AF78607B6893F83D30DBB2222BEE
:10168C0073D17B685B8D9BB2FB60FB68032B20D90D
:10169C007B681B681A697B685B6AD2B21A707B68BC
:1016AC005B6A5A1C7B685A627B685B8D9BB2013B00
:1016BC009AB27B685A857B685B8D9BB2032B54D1A5
:1016CC007B681B685A687B681B6822F480625A60CE
:1016DC004BE07B68DB6A022B47D0FB68012B02D006
:1016EC00FB68002B41D17B681B681A687B681B6800
:1016FC0022F480621A607B681B685A687B681B68DE
:10170C0022F4E0625A607B681B681A697B685B6A2A
:10171C00D2B21A707B685B6A5A1C7B685A627B680F
:10172C005B8D9BB2013B9AB27B685A857B68202209
:10173C0083F83D207B6893F83E30DBB2402B0AD116
:10174C007B68002283F83E207B6800221A6378684D
:10175C00FFF7F7FD09E07B68002283F83E207B68E9
:10176C0012221A63786803F0BDFF00BF1037BD4624
:10177C0080BD80B584B000AF78607B68DB6AFB60AD
:10178C007B685B8D9BB2042B1BD17B681B685A68F2
:10179C007B681B6822F480625A607B681B681A693C
:1017AC007B685B6AD2B21A707B685B6A5A1C7B6876
:1017BC005A627B685B8D9BB2013B9AB27B685A85FF
:1017CC00BDE07B685B8D9BB2032B29D17B681B68CA
:1017DC005A687B681B6822F480625A60FB68042B91
:1017EC000AD0FB68022B07D07B681B681A687B68E1
:1017FC001B6822F480621A607B681B681A697B681C
:10180C005B6AD2B21A707B685B6A5A1C7B685A623C
:10181C007B685B8D9BB2013B9AB27B685A858EE0EC
:10182C007B685B8D9BB2022B76D1FB68012B02D0BF
:10183C00FB68102B08D17B681B681A687B681B68D7
:10184C0022F480621A6019E0FB68042B02D0FB685A
:10185C00022B08D17B681B681A687B681B6842F4F2
:10186C0080621A600AE0FB68102B07D07B681B684B
:10187C001A687B681B6842F400721A607B681B68EC
:10188C001A697B685B6AD2B21A707B685B6A5A1CF5
:10189C007B685A627B685B8D9BB2013B9AB27B681A
:1018AC005A857B681B681A697B685B6AD2B21A70AE
:1018BC007B685B6A5A1C7B685A627B685B8D9BB247
:1018CC00013B9AB27B685A857B681B685A687B68B7
:1018DC001B6822F440725A607B68202283F83D20FA
:1018EC007B6893F83E30DBB2402B0AD17B68002238
:1018FC0083F83E207B6800221A637868FFF721FD8D
:10190C001DE07B68002283F83E207B6812221A635C
:10191C00786803F0E7FE12E07B681B681A697B6845
:10192C005B6AD2B21A707B685B6A5A1C7B685A621B
:10193C007B685B8D9BB2013B9AB27B685A8500BF7A
:10194C001037BD4680BD80B483B000AF78607B6833
:10195C0093F83E30DBB2402B17D17B681B6D002B0C
:10196C0009D17B685B6CDBB21A467B681B6802F0A2
:10197C00FE021A6167E07B685B6CDBB243F001032B
:10198C00DAB27B681B681A615DE07B681B69B3F592
:10199C00804F33D17B6893F83D30DBB2212B09D1DA
:1019AC007B685B6CDBB21A467B681B6802F0FE023C
:1019BC001A6108E07B685B6CDBB243F00103DAB2BE
:1019CC007B681B681A617B685B6B002B03D17B689F
:1019DC009B6B002B37D07B685B6B9B6A002B04D115
:1019EC007B689B6B9B6A002B2DD07B681B685A68AD
:1019FC007B681B6842F400625A6024E07B681B6DB4
:101A0C00002B0ED17B685B6C9BB2DB11DBB203F05D
:101A1C000603DBB263F00F03DAB27B681B681A6152
:101A2C0011E07B681B6D012B0DD17B685B6C9BB24D
:101A3C00DB11DBB203F00603DBB263F00E03DAB2A8
:101A4C007B681B681A6100BF0C37BD4680BC7047B1
:101A5C0080B483B000AF78607B685B6CDAB27B6873
:101A6C001B681A617B685B6B002B03D17B689B6BDB
:101A7C00002B11D07B685B6B9B6A002B04D17B68BD
:101A8C009B6B9B6A002B07D07B681B685A687B6832
:101A9C001B6842F400625A6000BF0C37BD4680BC24
:101AAC00704780B491B000AF78607B6893F83E309B
:101ABC0087F83F307B68DB6ABB637B681B6B7B639F
:101ACC007B6893F83D30DBB2222B40F074817B684D
:101ADC001B6D002B0FD197F83F30402B0BD10023FF
:101AEC003B637B681B685B693B637B681B689B691A
:101AFC003B633B6B6BE17B681B6D002B1DD17B68E3
:101B0C001B69B3F5404F18D10023FB627B681B683F
:101B1C005B69FB627B681B689B69FB62FB6A7B6889
:101B2C001B681A687B681B6842F480721A607B68B9
:101B3C001B6D5A1C7B681A6549E17B685B8D9BB2F7
:101B4C00002B13D10023BB627B681B685B69BB62F3
:101B5C007B681B689B69BB62BB6A7B681B681A68E5
:101B6C007B681B6842F400721A6020E17B685B8D15
:101B7C009BB2012B40F08A80BB6B13F5803F37D1B1
:101B8C007B681B681A687B681B6822F480621A6089
:101B9C007B681B685B6803F40063B3F5006F13D1BB
:101BAC007B681B681A687B681B6822F480621A6069
:101BBC0000237B627B681B685B697B627B681B68AC
:101BCC009B697B627B6AF2E000233B627B681B684B
:101BDC005B693B627B681B689B693B623B6A7B6809
:101BEC001B681A687B681B6842F400721A60DEE09E
:101BFC00BB6B082B2ED0BB6B202B2BD07B6B122BF3
:101C0C0002D1BB6B012B25D1BB6B042B0ED0BB6B54
:101C1C00022B0BD0BB6B102B08D07B681B681A688F
:101C2C007B681B6822F480621A6007E07B681B6883
:101C3C001A687B681B6842F480621A600023FB619F
:101C4C007B681B685B69FB617B681B689B69FB613C
:101C5C00FB69ACE07B681B681A687B681B6822F424
:101C6C0080621A600023BB617B681B685B69BB6187
:101C7C007B681B689B69BB61BB697B681B681A68C6
:101C8C007B681B6842F400721A6090E07B685B8D85
:101C9C009BB2022B58D1BB6B042B21D0BB6B022BFC
:101CAC001ED0BB6B102B1BD07B681B681A687B6823
:101CBC001B6842F400621A6000237B617B681B681E
:101CCC005B697B617B681B689B697B617B697B685B
:101CDC001B681A687B681B6822F480621A6012E029
:101CEC007B681B681A687B681B6842F480621A6008
:101CFC0000233B617B681B685B693B617B681B68ED
:101D0C009B693B613B697B681B685B6803F4006300
:101D1C00B3F5006F4BD1BB6B13F5803F0BD0BB6B96
:101D2C00012B08D0BB6B082B05D0BB6B102B02D042
:101D3C00BB6B202B3BD17B681B685A687B681B688C
:101D4C0042F480525A6032E07B681B681A687B68E8
:101D5C001B6842F480621A607B681B685B6803F442
:101D6C000063B3F5006F17D1BB6B13F5803F0BD03D
:101D7C00BB6B012B08D0BB6B082B05D0BB6B102B9E
:101D8C0002D0BB6B202B07D17B681B685A687B6821
:101D9C001B6842F480525A600023FB607B681B680E
:101DAC005B69FB607B681B689B69FB60FB687B68FD
:101DBC0000221A650BE00023BB607B681B685B6923
:101DCC00BB607B681B689B69BB60BB68FFE700BF9F
:101DDC004437BD4680BC704780B584B000AF786096
:101DEC007B6893F83D30FB737B685B8D9BB2002B5B
:101DFC002BD07B685B6A1A787B681B681A617B68DE
:101E0C005B6A5A1C7B685A627B685B8D9BB2013B98
:101E1C009AB27B685A857B685B8D9BB2002B14D180
:101E2C00FB7B292B11D17B681B685A687B681B686C
:101E3C0022F480625A607B6821221A637B68282214
:101E4C0083F83D207868FFF74BFA00BF1037BD468A
:101E5C0080BD80B483B000AF78607B685B8D9BB233
:101E6C00002B11D07B685B6A1A787B681B681A613F
:101E7C007B685B6A5A1C7B685A627B685B8D9BB281
:101E8C00013B9AB27B685A8500BF0C37BD4680BCBB
:101E9C00704780B584B000AF78607B6893F83D30B4
:101EAC00FB737B685B8D9BB2002B2CD07B681B6813
:101EBC001A697B685B6AD2B21A707B685B6A5A1CBF
:101ECC007B685A627B685B8D9BB2013B9AB27B68E4
:101EDC005A857B685B8D9BB2002B14D1FB7B2A2B24
:101EEC0011D17B681B685A687B681B6822F480627E
:101EFC005A607B6822221A637B68282283F83D2073
:101F0C007868FFF7F6F900BF1037BD4680BD80B486
:101F1C0083B000AF78607B685B8D9BB2002B12D0D6
:101F2C007B681B681A697B685B6AD2B21A707B6823
:101F3C005B6A5A1C7B685A627B685B8D9BB2013B67
:101F4C009AB27B685A8500BF0C37BD4680BC70477F
:101F5C0080B584B000AF786039600023FB737B6878
:101F6C0093F83D30DBB203F02803282B27D17B6894
:101F7C001B685A687B681B6822F480625A603B6855
:101F8C009B0803F00103002B01D10123FB733B6879
:101F9C00DB0903F00103002B03D17B68DB68BB81F9
:101FAC0002E07B689B69BB817B68002283F83C2044
:101FBC00BA89FB7B19467868FFF7A4F908E07B68BF
:101FCC001B686FF002025A617B68002283F83C2088
:101FDC0000BF1037BD4680BD80B584B000AF7860BF
:101FEC007B6893F83D30FB737B681B685A687B6891
:101FFC001B6822F4E0625A600023BB607B681B689C
:10200C005B69BB607B681B681A687B681B6842F065
:10201C0001021A60BB687B681B681A687B681B68C6
:10202C0022F480621A607B681B685B6803F40063AF
:10203C00B3F5006F72D1FB7B222B02D0FB7B2A2BDA
:10204C0035D17B689B6B1B685B689AB27B685A8541
:10205C007B685B8D9BB2002B05D07B681B6C43F0BF
:10206C0004027B681A647B681B685A687B681B686F
:10207C0022F400625A607B689B6B1846FEF73AFCB0
:10208C000346012B49D07B689B6B694A5A637B687A
:10209C009B6B1846FEF7B2FA0346002B3DD07B68CB
:1020AC009B6B5B6B7A68926B1046984735E07B684C
:1020BC005B6B1B685B689AB27B685A857B685B8D2F
:1020CC009BB2002B05D07B681B6C43F004027B6831
:1020DC001A647B681B685A687B681B6822F4006270
:1020EC005A607B685B6B1846FEF704FC0346012BB9
:1020FC0014D07B685B6B4E4A5A637B685B6B1846EB
:10210C00FEF77CFA0346002B08D07B685B6B5B6B9D
:10211C007A68526B1046984700E000BF7B685B8D75
:10212C009BB2002B3ED07B681B685B6903F00403F9
:10213C00042B12D17B681B681A697B685B6AD2B26C
:10214C001A707B685B6A5A1C7B685A627B685B8D71
:10215C009BB2013B9AB27B685A857B681B685B69B2
:10216C0003F04003402B12D17B681B681A697B6813
:10217C005B6AD2B21A707B685B6A5A1C7B685A62C3
:10218C007B685B8D9BB2013B9AB27B685A857B68FE
:10219C005B8D9BB2002B05D07B681B6C43F004025B
:1021AC007B681A647B681B6C002B03D0786800F08A
:1021BC0043F839E0FB7B2A2B09D17B6800221A6398
:1021CC007B68282283F83D207868FFF792F87B68BB
:1021DC0093F83D30DBB2282B11D17B68154ADA62BB
:1021EC007B6800221A637B68202283F83D207B6881
:1021FC00002283F83E207868FFF791F814E07B68A2
:10220C001B6B222B02D0FB7B222B0DD17B68002277
:10221C001A637B68202283F83D207B68002283F8B8
:10222C003E207868FFF765F800BF1037BD4680BDCB
:10223C00712400080000FFFF80B584B000AF786007
:10224C007B6893F83D30FB737B6893F83E30DBB2D0
:10225C00102B0AD1FB7B222B07D17B681B681A68D9
:10226C007B681B6822F400621A60FB7B03F0280376
:10227C00282B07D17B6800221A637B68282283F8FD
:10228C003D2015E07B681B685B6803F40063B3F5C5
:10229C00006F06D0FB7B602B03D07B68202283F879
:1022AC003D207B6800221A637B68002283F83E2065
:1022BC007B681B685B6803F40063B3F5006F61D146
:1022CC007B681B685A687B681B6822F400625A6042
:1022DC007B685B6B93F82130012B20D07B685B6BA8
:1022EC005E4A5A637B685B6B1846FEF787F90346B8
:1022FC00002B00F089807B681B681A687B681B6860
:10230C0022F001021A607B68202283F83D207B6852
:10231C005B6B5B6B7A68526B1046984774E07B681A
:10232C009B6B4E4A5A637B689B6B1846FEF766F9AB
:10233C000346002B68D07B681B685B6903F0400385
:10234C00402B0BD17B681B681A697B685B6AD2B225
:10235C001A707B685B6A5A1C7B685A627B681B68C4
:10236C001A687B681B6822F001021A607B682022C5
:10237C0083F83D207B689B6B5B6B7A68926B104695
:10238C00984741E07B6893F83D30DBB2602B25D158
:10239C007B68202283F83D207B6800221A647B68CE
:1023AC001B685B6903F04003402B0BD17B681B68F7
:1023BC001A697B685B6AD2B21A707B685B6A5A1CBA
:1023CC007B685A627B681B681A687B681B6822F002
:1023DC0001021A607868FEF7C6FF15E07B681B687F
:1023EC005B6903F04003402B0BD17B681B681A69B7
:1023FC007B685B6AD2B21A707B685B6A5A1C7B681A
:10240C005A627868FEF7A6FF7B6893F83D30FB7341
:10241C007B681B6C03F00403042B1BD1FB7B282B68
:10242C0018D17B681B685A687B681B6822F4E062D1
:10243C005A607B680A4ADA627B6800221A637B68FE
:10244C00202283F83D207B68002283F83E207868A8
:10245C00FEF765FF00BF1037BD4680BD7124000834
:10246C000000FFFF80B584B000AF78607B685B6ACA
:10247C00FB60FB6893F83D30FB72FB685B6B0022E2
:10248C009A62FB689B6B00229A62FB681B681A6855
:10249C00FB681B6822F480621A60FB6800225A8574
:1024AC00FB685B6B00225A63FB689B6B00225A63D0
:1024BC00FB681B681A68FB681B6822F001021A6033
:1024CC00FB6893F83D30DBB2602B0ED1FB68202209
:1024DC0083F83D20FB68002283F83E20FB68002235
:1024EC001A64F868FEF73FFF27E0FB7A03F0280335
:1024FC00282B17D1FB681B681A68FB681B6842F015
:10250C0001021A60FB681B681A68FB681B6842F4BE
:10251C0080621A60FB6800221A63FB68282283F829
:10252C003D2007E0FB68202283F83D20FB68002259
:10253C0083F83E20F868FEF70DFF00BF1037BD464C
:10254C0080BD80B483B000AF78607B68DB6AB3F584
:10255C002A0F03D17B680122DA6207E07B68DB6A11
:10256C00B3F12A4F02D17B680822DA6200BF0C3724
:10257C00BD4680BC7047000080B586B000AF786067
:10258C007B68002B01D101236CE27B681B6803F094
:10259C000103002B00F08780924B5B6803F00C0367
:1025AC00042B0CD08F4B5B6803F00C03082B12D15F
:1025BC008C4B5B6803F48033B3F5803F0BD1894BB4
:1025CC001B6803F40033002B6CD07B685B68002B1A
:1025DC0068D1012346E27B685B68B3F5803F06D186
:1025EC00804B1B687F4A43F4803313602EE07B687A
:1025FC005B68002B0CD17B4B1B687A4A23F480332D
:10260C001360784B1B68774A23F4802313601DE01A
:10261C007B685B68B3F5A02F0CD1724B1B68714AB9
:10262C0043F4802313606F4B1B686E4A43F4803372
:10263C0013600BE06B4B1B686A4A23F48033136006
:10264C00684B1B68674A23F4802313607B685B68C4
:10265C00002B13D0FDF7DEFD386108E0FDF7DAFD45
:10266C0002463B69D31A642B01D90323FAE15D4B73
:10267C001B6803F40033002BF0D014E0FDF7CAFD07
:10268C00386108E0FDF7C6FD02463B69D31A642B9E
:10269C0001D90323E6E1534B1B6803F40033002BF1
:1026AC00F0D100E000BF7B681B6803F00203002B35
:1026BC0063D04C4B5B6803F00C03002B0BD0494BE5
:1026CC005B6803F00C03082B1CD1464B5B6803F4CE
:1026DC008033002B16D1434B1B6803F00203002BF5
:1026EC0005D07B681B69012B01D00123BAE13D4B5E
:1026FC001B6823F0F8027B685B69DB0039491343E4
:10270C000B603AE07B681B69002B20D0364B012212
:10271C001A60FDF77FFD386108E0FDF77BFD02468E
:10272C003B69D31A022B01D903239BE12D4B1B6868
:10273C0003F00203002BF0D02A4B1B6823F0F802A5
:10274C007B685B69DB00274913430B6015E0264B64
:10275C0000221A60FDF75EFD386108E0FDF75AFDB6
:10276C0002463B69D31A022B01D903237AE11D4B94
:10277C001B6803F00203002BF0D17B681B6803F08D
:10278C000803002B3AD07B689B69002B19D0174BA0
:10279C0001221A60FDF73EFD386108E0FDF73AFDB5
:1027AC0002463B69D31A022B01D903235AE10D4B84
:1027BC005B6A03F00203002BF0D0012000F0DAFA80
:1027CC001CE00A4B00221A60FDF724FD38610FE073
:1027DC00FDF720FD02463B69D31A022B08D90323CF
:1027EC0040E100BF0010024000004242800442421F
:1027FC009E4B5B6A03F00203002BE9D17B681B68DC
:10280C0003F00403002B00F0A6800023FB75974B0C
:10281C00DB6903F08053002B0DD1944BDB69934A99
:10282C0043F08053D361914BDB6903F08053BB6061
:10283C00BB680123FB758E4B1B6803F48073002B64
:10284C0018D18B4B1B688A4A43F480731360FDF7D5
:10285C00E1FC386108E0FDF7DDFC02463B69D31A68
:10286C00642B01D90323FDE0814B1B6803F48073B7
:10287C00002BF0D07B68DB68012B06D17B4B1B6AED
:10288C007A4A43F0010313622DE07B68DB68002B6E
:10289C000CD1764B1B6A754A23F001031362734B00
:1028AC001B6A724A23F0040313621CE07B68DB682A
:1028BC00052B0CD16D4B1B6A6C4A43F0040313625D
:1028CC006A4B1B6A694A43F0010313620BE0674BC6
:1028DC001B6A664A23F001031362644B1B6A634A4A
:1028EC0023F0040313627B68DB68002B15D0FDF723
:1028FC0091FC38610AE0FDF78DFC02463B69D31A66
:10290C0041F28832934201D90323ABE0574B1B6A47
:10291C0003F00203002BEED014E0FDF77BFC3861D2
:10292C000AE0FDF777FC02463B69D31A41F2883284
:10293C00934201D9032395E04C4B1B6A03F002032D
:10294C00002BEED1FB7D012B05D1484BDB69474AAF
:10295C0023F08053D3617B68DB69002B00F081800E
:10296C00424B5B6803F00C03082B61D07B68DB697E
:10297C00022B46D13F4B00221A60FDF74BFC38610D
:10298C0008E0FDF747FC02463B69D31A022B01D93C
:10299C00032367E0354B1B6803F00073002BF0D169
:1029AC007B681B6AB3F5803F08D1304B5B6823F41E
:1029BC0000327B689B682D4913434B602B4B5B6843
:1029CC0023F474127B68196A7B685B6A0B43274992
:1029DC0013434B60274B01221A60FDF71BFC386137
:1029EC0008E0FDF717FC02463B69D31A022B01D90C
:1029FC00032337E01D4B1B6803F00073002BF0D052
:102A0C002FE01C4B00221A60FDF704FC386108E033
:102A1C00FDF700FC02463B69D31A022B01D90323B4
:102A2C0020E0124B1B6803F00073002BF0D118E070
:102A3C007B68DB69012B01D1012313E00B4B5B6835
:102A4C00FB60FB6803F480327B681B6A9A4206D1F8
:102A5C00FB6803F470127B685B6A9A4201D0012315
:102A6C0000E0002318461837BD4680BD0010024018
:102A7C00007000406000424280B584B000AF7860C6
:102A8C0039607B68002B01D10123D0E06A4B1B68B5
:102A9C0003F007033A689A4210D9674B1B6823F07E
:102AAC00070265493B6813430B60634B1B6803F0DB
:102ABC0007033A689A4201D00123B8E07B681B688F
:102ACC0003F00203002B20D07B681B6803F0040387
:102ADC00002B05D0594B5B68584A43F4E0635360B4
:102AEC007B681B6803F00803002B05D0534B5B6815
:102AFC00524A43F460535360504B5B6823F0F0022E
:102B0C007B689B684D4913434B607B681B6803F0E3
:102B1C000103002B40D07B685B68012B07D1474B2E
:102B2C001B6803F40033002B15D101237FE07B6875
:102B3C005B68022B07D1414B1B6803F00073002B21
:102B4C0009D1012373E03D4B1B6803F00203002BFA
:102B5C0001D101236BE0394B5B6823F003027B68E6
:102B6C005B68364913434B60FDF754FBF8600AE091
:102B7C00FDF750FB0246FB68D31A41F288329342B0
:102B8C0001D9032353E02D4B5B6803F00C027B68E7
:102B9C005B689B009A42EBD1274B1B6803F0070341
:102BAC003A689A4210D2244B1B6823F00702224940
:102BBC003B6813430B60204B1B6803F007033A6818
:102BCC009A4201D0012332E07B681B6803F00403B6
:102BDC00002B08D0194B5B6823F4E0627B68DB6840
:102BEC00164913434B607B681B6803F00803002BEA
:102BFC0009D0124B5B6823F460527B681B69DB00C5
:102C0C000E4913434B6000F021F801460B4B5B68F7
:102C1C001B0903F00F030A4AD35C21FA03F3094A98
:102C2C001360094B1B681846FDF7B2FA00231846CF
:102C3C001037BD4680BD00BF00200240001002408E
:102C4C00E47000081C0000200000002090B48AB042
:102C5C0000AF2A4B3C1D0FCB84E80F00284B1B8880
:102C6C003B800023FB610023BB6100237B620023BC
:102C7C007B6100233B62234B5B68FB61FB6903F0C8
:102C8C000C03042B02D0082B03D02DE01E4B3B620F
:102C9C002DE0FB699B0C03F00F0307F12802134492
:102CAC0013F8243C7B61FB6903F48033002B13D0B5
:102CBC00144B5B685B0C03F0010307F1280213440F
:102CCC0013F8283CBB617B690F4A02FB03F2BB691A
:102CDC00B2FBF3F37B6204E07B690C4A02FB03F367
:102CEC007B627B6A3B6202E0074B3B6200BF3B6A44
:102CFC0018462837BD4690BC704700BF586E000878
:102D0C00686E00080010024000127A0000093D00B5
:102D1C0080B400AF024B1B681846BD4680BC7047A0
:102D2C001C00002080B500AFFFF7F2FF0146054BF9
:102D3C005B681B0A03F00703034AD35C21FA03F315
:102D4C00184680BD00100240F470000880B500AF3A
:102D5C00FFF7DEFF0146054B5B68DB0A03F0070358
:102D6C00034AD35C21FA03F3184680BD00100240DD
:102D7C00F470000880B485B000AF78600A4B1B6813
:102D8C000A4AA2FB03235B0A7A6802FB03F3FB608B
:102D9C0000BFFB685A1EFA60002BF9D100BF143734
:102DAC00BD4680BC704700BF1C000020D34D621094
:102DBC0080B582B000AF78607B68002B01D1012315
:102DCC001DE07B6893F83D30DBB2002B06D17B68AD
:102DDC00002283F83C20786803F02EF87B680222EE
:102DEC0083F83D207B681A687B68043319461046CB
:102DFC0000F0F8FA7B68012283F83D200023184686
:102E0C000837BD4680BD80B485B000AF78607B6864
:102E1C001B68DA687B681B6842F00102DA607B6829
:102E2C001B689B6803F00703FB60FB68062B07D04D
:102E3C007B681B681A687B681B6842F001021A6089
:102E4C00002318461437BD4680BC704780B586B049
:102E5C0000AF786039607B68002B01D101237FE0E3
:102E6C007B6893F83D30DBB2002B06D17B680022E7
:102E7C0083F83C20786802F09BFF7B68022283F881
:102E8C003D207B681B689B687A68126823F480433A
:102E9C0023F0070393607B681A687B680433194638
:102EAC00104600F09FFA7B681B689B687B617B680F
:102EBC001B689B693B617B681B681B6AFB603B68FA
:102ECC001B687A6913437B613B6923F4407323F0DD
:102EDC0003033B613B689A683B689B691B02134385
:102EEC003A6913433B613B6923F4406323F00C03C1
:102EFC003B613B6923F4704323F0F0033B613B6877
:102F0C00DA683B68DB691B0213433A6913433B6184
:102F1C003B681B691A013B681B6A1B0313433A6924
:102F2C0013433B61FB6823F02203FB603B685A6848
:102F3C003B685B691B011343FA681343FB607B68B6
:102F4C001B687A699A607B681B683A699A617B682E
:102F5C001B68FA681A627B68012283F83D20002303
:102F6C0018461837BD4680BD80B582B000AF78607A
:102F7C0039603B68002B02D0042B10D01FE07B681B
:102F8C001B6801220021184600F024FB7B681B689B
:102F9C00DA687B681B6842F00202DA602EE07B681C
:102FAC001B6801220421184600F014FB7B681B6887
:102FBC00DA687B681B6842F00402DA601EE07B680A
:102FCC001B6801220021184600F004FB7B681B687B
:102FDC0001220421184600F0FDFA7B681B68DA68B0
:102FEC007B681B6842F00202DA607B681B68DA6857
:102FFC007B681B6842F00402DA6000BF7B681B68C8
:10300C001A687B681B6842F001021A60002318469C
:10301C000837BD4680BD80B582B000AF78607B6854
:10302C001B681B6903F00203022B22D17B681B680F
:10303C00DB6803F00203022B1BD17B681B686FF06B
:10304C0002021A617B6801221A777B681B689B69F4
:10305C0003F00303002B03D0786802F0EFFA05E0CD
:10306C00786800F097F9786800F09DF97B68002289
:10307C001A777B681B681B6903F00403042B22D1AD
:10308C007B681B68DB6803F00403042B1BD17B6893
:10309C001B686FF004021A617B6802221A777B6846
:1030AC001B689B6903F44073002B03D0786802F013
:1030BC00C5FA05E0786800F06DF9786800F073F9EE
:1030CC007B6800221A777B681B681B6903F0080376
:1030DC00082B22D17B681B68DB6803F00803082BE4
:1030EC001BD17B681B686FF008021A617B68042295
:1030FC001A777B681B68DB6903F00303002B03D092
:10310C00786802F09BFA05E0786800F043F978687B
:10311C0000F049F97B6800221A777B681B681B69F1
:10312C0003F01003102B22D17B681B68DB6803F0C3
:10313C001003102B1BD17B681B686FF010021A61F7
:10314C007B6808221A777B681B68DB6903F4407381
:10315C00002B03D0786802F071FA05E0786800F073
:10316C0019F9786800F01FF97B6800221A777B68E0
:10317C001B681B6903F00103012B0ED17B681B68D4
:10318C00DB6803F00103012B07D17B681B686FF030
:10319C0001021A61786802F025FA7B681B681B69CA
:1031AC0003F08003802B0ED17B681B68DB6803F077
:1031BC008003802B07D17B681B686FF080021A613B
:1031CC00786800F078FA7B681B681B6903F0400391
:1031DC00402B0ED17B681B68DB6803F04003402B4F
:1031EC0007D17B681B686FF040021A61786800F0A9
:1031FC00E3F87B681B681B6903F02003202B0ED1BE
:10320C007B681B68DB6803F02003202B07D17B68ED
:10321C001B686FF020021A61786800F043FA00BF57
:10322C000837BD4680BD80B584B000AF786039608A
:10323C007B6893F83C30012B01D10223A6E07B681C
:10324C00012283F83C207B68022283F83D207B68B6
:10325C001B689B68FB60FB6823F07703FB60FB68D3
:10326C0023F47F43FB607B681B68FA689A603B68B9
:10327C001B68402B67D0402B0BD8102B73D0102B16
:10328C0002D8002B6FD078E0202B6CD0302B6AD07A
:10329C0073E0702B0DD0702B04D8502B33D0602BD7
:1032AC0041D06AE0B3F5805F66D0B3F5005F17D00C
:1032BC0063E07B6818683B6899683B685A683B68B0
:1032CC00DB6800F068F97B681B689B68FB60FB6837
:1032DC0043F07703FB607B681B68FA689A604CE0EC
:1032EC007B6818683B6899683B685A683B68DB6880
:1032FC0000F051F97B681B689A687B681B6842F484
:10330C0080429A6039E07B6818683B6859683B6872
:10331C00DB681A4600F0C8F87B681B685021184619
:10332C0000F01FF929E07B6818683B6859683B6816
:10333C00DB681A4600F0E6F87B681B6860211846CB
:10334C0000F00FF919E07B6818683B6859683B6816
:10335C00DB681A4600F0A8F87B681B684021184609
:10336C0000F0FFF809E07B681A683B681B68194697
:10337C00104600F0F6F800E000BF7B68012283F8ED
:10338C003D207B68002283F83C2000231846103730
:10339C00BD4680BD80B483B000AF786000BF0C37F1
:1033AC00BD4680BC704780B483B000AF786000BF6E
:1033BC000C37BD4680BC704780B483B000AF7860DA
:1033CC0000BF0C37BD4680BC704780B483B000AFE3
:1033DC0078607B6893F83D30DBB218460C37BD46FD
:1033EC0080BC704780B485B000AF786039607B6872
:1033FC001B68FB607B68294A93420BD07B68B3F156
:10340C00804F07D07B68264A934203D07B68254ABD
:10341C00934208D1FB6823F07003FB603B685B6848
:10342C00FA681343FB607B681C4A93420BD07B68A1
:10343C00B3F1804F07D07B68194A934203D07B6865
:10344C00184A934208D1FB6823F44073FB603B6835
:10345C00DB68FA681343FB60FB6823F080023B686F
:10346C005B691343FB607B68FA681A603B689A6877
:10347C007B68DA623B681A687B689A627B68074AE9
:10348C00934203D13B681A697B681A637B680122FB
:10349C005A6100BF1437BD4680BC7047002C0140F8
:1034AC00000400400008004080B487B000AFF86012
:1034BC00B9607A60FB681B6A7B61FB681B6A23F04E
:1034CC000102FB681A62FB689B693B613B6923F054
:1034DC00F0033B617B681B013A6913433B617B69D9
:1034EC0023F00A037B617A69BB6813437B61FB6839
:1034FC003A699A61FB687A691A6200BF1C37BD464B
:10350C0080BC704780B487B000AFF860B9607A6057
:10351C00FB681B6A23F01002FB681A62FB689B694C
:10352C007B61FB681B6A3B617B6923F470437B61A5
:10353C007B681B037A6913437B613B6923F0A0030F
:10354C003B61BB681B013A6913433B61FB687A69B9
:10355C009A61FB683A691A6200BF1C37BD4680BC91
:10356C00704780B485B000AF786039607B689B6829
:10357C00FB60FB6823F07003FB603A68FB68134345
:10358C0043F00703FB607B68FA689A6000BF14374E
:10359C00BD4680BC704780B487B000AFF860B9609E
:1035AC007A603B60FB689B687B617B6923F47F439B
:1035BC007B613B681A027B681A43BB6813437A69C8
:1035CC0013437B61FB687A699A6000BF1C37BD4668
:1035DC0080BC704780B487B000AFF860B9607A6087
:1035EC00BB6803F01F03012202FA03F37B61FB6843
:1035FC001A6A7B69DB431A40FB681A62FB681A6A19
:10360C00BB6803F01F03796801FA03F31A43FB68E4
:10361C001A6200BF1C37BD4680BC704780B485B0B1
:10362C0000AF786039607B6893F83C30012B01D196
:10363C00022332E07B68012283F83C207B68022263
:10364C0083F83D207B681B685B68FB607B681B68AC
:10365C009B68BB60FB6823F07003FB603B681B68D6
:10366C00FA681343FB60BB6823F08003BB603B68C4
:10367C005B68BA681343BB607B681B68FA685A6066
:10368C007B681B68BA689A607B68012283F83D20CE
:10369C007B68002283F83C20002318461437BD4673
:1036AC0080BC704780B483B000AF786000BF0C372B
:1036BC00BD4680BC704780B483B000AF786000BF5B
:1036CC000C37BD4680BC704780B582B000AF7860C7
:1036DC007B68002B01D101233FE07B6893F83930E4
:1036EC00DBB2002B06D17B68002283F83820786887
:1036FC0002F0C8FB7B68242283F839207B681B68A6
:10370C00DA687B681B6822F40052DA60786800F093
:10371C0023FC7B681B681A697B681B6822F4904247
:10372C001A617B681B685A697B681B6822F02A0245
:10373C005A617B681B68DA687B681B6842F400522C
:10374C00DA607B680022DA637B68202283F83920F8
:10375C007B68202283F83A20002318460837BD46A0
:10376C0080BD000080B586B000AFF860B96013462C
:10377C00FB80FB6893F83930DBB2202B53D1BB684C
:10378C00002B02D0FB88002B01D101234CE0FB68FD
:10379C0093F83830012B01D1022345E0FB6801225C
:1037AC0083F83820BA68FB681A62FB68FA889A8436
:1037BC00FB68FA88DA84FB680022DA63FB68212252
:1037CC0083F83920FB681B6B194A9A62FB681B6BE8
:1037DC00184ADA62FB681B6B174A1A63FB681B6B8F
:1037EC0000225A6307F108037B61FB68186B7B6945
:1037FC001968FB681B6804331A46FB88FCF79EFEAD
:10380C00FB681B686FF040021A60FB68002283F8AB
:10381C003820FB681B685A69FB681B6842F0800201
:10382C005A61002300E0022318461837BD4680BDBC
:10383C00773B0008C93B0008693C000880B586B09E
:10384C0000AFF860B9601346FB80FB6893F83A3020
:10385C00DBB2202B66D1BB68002B02D0FB88002B7F
:10386C0001D101235FE0FB6893F83830012B01D1C3
:10387C00022358E0FB68012283F83820BA68FB6801
:10388C009A62FB68FA889A85FB680022DA63FB6807
:10389C00222283F83A20FB685B6B254A9A62FB680C
:1038AC005B6B244ADA62FB685B6B234A1A63FB6826
:1038BC005B6B00225A6307F108037B61FB68586B52
:1038CC00FB681B68043319467B691A68FB88FCF794
:1038DC0035FE00233B61FB681B681B683B61FB6882
:1038EC001B685B683B613B69FB68002283F83820EE
:1038FC00FB681B68DA68FB681B6842F48072DA604C
:10390C00FB681B685A69FB681B6842F001025A612C
:10391C00FB681B685A69FB681B6842F040025A61DD
:10392C00002300E0022318461837BD4680BD00BFB7
:10393C00E53B00084D3C0008693C000880B588B0A8
:10394C0000AF78607B681B681B68FB617B681B6839
:10395C00DB68BB617B681B685B697B6100233B6137
:10396C000023FB60FB6903F00F033B613B69002BF9
:10397C000DD1FB6903F02003002B08D0BB6903F0C9
:10398C002003002B03D0786800F065FACCE03B698B
:10399C00002B00F0AB807B6903F00103002B05D1F9
:1039AC00BB6903F49073002B00F0A080FB6903F05B
:1039BC000103002B0AD0BB6903F48073002B05D0E4
:1039CC007B68DB6B43F001027B68DA63FB6903F015
:1039DC000403002B0AD07B6903F00103002B05D0F4
:1039EC007B68DB6B43F002027B68DA63FB6903F0F4
:1039FC000203002B0AD07B6903F00103002B05D0D6
:103A0C007B68DB6B43F004027B68DA63FB6903F0D1
:103A1C000803002B0AD07B6903F00103002B05D0AF
:103A2C007B68DB6B43F008027B68DA637B68DB6BDB
:103A3C00002B78D0FB6903F02003002B07D0BB6967
:103A4C0003F02003002B02D0786800F004FA7B68A6
:103A5C001B685B6903F04003002B14BF0123002398
:103A6C00DBB2FB607B68DB6B03F00803002B02D13D
:103A7C00FB68002B31D0786800F04FF97B681B682D
:103A8C005B6903F04003002B23D07B681B685A69E9
:103A9C007B681B6822F040025A617B685B6B002BD1
:103AAC0013D07B685B6B224A5A637B685B6B18464E
:103ABC00FCF7A4FD0346002B16D07B685B6B5B6B9D
:103ACC007A68526B104698470EE0786800F044F81C
:103ADC000AE0786800F040F806E0786800F03CF8FE
:103AEC007B680022DA631EE000BF1CE0FB6903F078
:103AFC008003002B08D0BB6903F08003002B03D09C
:103B0C00786800F03BF90FE0FB6903F04003002BF1
:103B1C000AD0BB6903F04003002B05D0786800F095
:103B2C0082F900BF00E000BF2037BD4680BD00BF5A
:103B3C00613D000880B483B000AF786000BF0C37E3
:103B4C00BD4680BC704780B483B000AF786000BFC6
:103B5C000C37BD4680BC704780B483B000AF786032
:103B6C0000BF0C37BD4680BC704780B584B000AF39
:103B7C0078607B685B6AFB607B681B681B6803F082
:103B8C002003002B13D1FB680022DA84FB681B682E
:103B9C005A69FB681B6822F080025A61FB681B683B
:103BAC00DA68FB681B6842F04002DA6002E0F868F1
:103BBC0001F0B0FD00BF1037BD4680BD80B584B0AC
:103BCC0000AF78607B685B6AFB60F868FFF7B2FF58
:103BDC0000BF1037BD4680BD80B584B000AF7860A3
:103BEC007B685B6AFB607B681B681B6803F02003C7
:103BFC00002B1ED1FB680022DA85FB681B68DA6893
:103C0C00FB681B6822F48072DA60FB681B685A69D7
:103C1C00FB681B6822F001025A61FB681B685A6939
:103C2C00FB681B6822F040025A61FB68202283F873
:103C3C003A20F86801F086FD00BF1037BD4680BD04
:103C4C0080B584B000AF78607B685B6AFB60F86815
:103C5C00FFF779FF00BF1037BD4680BD80B584B03B
:103C6C0000AF78600023FB607B685B6ABB60BB685D
:103C7C001B685B6903F08003002B14BF0123002336
:103C8C00DBB2FB60BB6893F83930DBB2212B08D177
:103C9C00FB68002B05D0BB680022DA84B86800F002
:103CAC0027F8BB681B685B6903F04003002B14BF4B
:103CBC0001230023DBB2FB60BB6893F83A30DBB224
:103CCC00222B08D1FB68002B05D0BB680022DA85BB
:103CDC00B86800F022F8BB68DB6B43F01002BB68DD
:103CEC00DA63B868FFF738FF00BF1037BD4680BDF8
:103CFC0080B483B000AF78607B681B68DA687B683F
:103D0C001B6822F0C002DA607B68202283F839201D
:103D1C0000BF0C37BD4680BC704780B483B000AF89
:103D2C0078607B681B68DA687B681B6822F4907289
:103D3C00DA607B681B685A697B681B6822F0010299
:103D4C005A617B68202283F83A2000BF0C37BD46AD
:103D5C0080BC704780B584B000AF78607B685B6ACC
:103D6C00FB60FB680022DA85FB680022DA84F868C5
:103D7C00FFF7F2FE00BF1037BD4680BD80B485B0A2
:103D8C0000AF78607B6893F83930DBB2212B44D1DB
:103D9C007B689B68B3F5805F1AD17B681B6AFB60FC
:103DAC00FB681B881A467B681B68C2F308025A60C2
:103DBC007B681B69002B05D17B681B6A9A1C7B688E
:103DCC001A620EE07B681B6A5A1C7B681A6208E058
:103DDC007B681B6A591C7A6811621A787B681B68AD
:103DEC005A607B68DB8C9BB2013B9BB27A681946AC
:103DFC00D184002B0FD17B681B68DA687B681B6849
:103E0C0022F08002DA607B681B68DA687B681B68CA
:103E1C0042F04002DA60002300E002231846143717
:103E2C00BD4680BC704780B582B000AF78607B68BF
:103E3C001B68DA687B681B6822F04002DA607B68DA
:103E4C00202283F83920786801F064FC002318469E
:103E5C000837BD4680BD80B584B000AF78607B6804
:103E6C0093F83A30DBB2222B71D17B689B68B3F5A7
:103E7C00805F23D17B689B6AFB607B681B69002B8E
:103E8C000ED17B681B685B689BB2C3F308039AB2C4
:103E9C00FB681A807B689B6A9A1C7B689A6229E093
:103EAC007B681B685B689BB2DBB29AB2FB681A80BA
:103EBC007B689B6A5A1C7B689A621BE07B681B6957
:103ECC00002B0AD17B681B6858687B689B6A591C5D
:103EDC007A689162C2B21A700CE07B681B685B68EE
:103EEC00DAB27B689B6A581C7968886202F07F02A0
:103EFC00D2B21A707B68DB8D9BB2013B9BB27A68A5
:103F0C001946D185002B20D17B681B68DA687B6849
:103F1C001B6822F02002DA607B681B68DA687B6819
:103F2C001B6822F48072DA607B681B685A697B68B4
:103F3C001B6822F001025A617B68202283F83A2028
:103F4C00786801F0FFFB002302E0002300E002236D
:103F5C0018461037BD4680BD80B584B000AF786080
:103F6C007B681B681B6923F440517B68DA687B68AB
:103F7C001B680A431A617B689A687B681B691A4341
:103F8C007B685B691343FB607B681B68DB6823F40D
:103F9C00B05323F00C037A681268F9680B43D360B2
:103FAC007B681B685B6923F440717B689A697B684A
:103FBC001B680A435A617B681B68524A93424ED174
:103FCC00FEF7C4FEB860BA6813469B0013449A000F
:103FDC001A447B685B689B00B2FBF3F34A4AA2FB72
:103FEC0003235B091901BA6813469B0013449A001A
:103FFC001A447B685B689B00B2FBF3F2424BA3FB59
:10400C0002035B09642000FB03F3D31A1B01323358
:10401C003D4AA2FB03235B0903F0F0031944BA6881
:10402C0013469B0013449A001A447B685B689B0000
:10403C00B2FBF3F2344BA3FB02035B09642000FBDD
:10404C0003F3D31A1B0132332F4AA2FB03235B0960
:10405C0003F00F027B681B680A449A604DE0FEF780
:10406C0061FEB860BA6813469B0013449A001A4468
:10407C007B685B689B00B2FBF3F3234AA2FB032330
:10408C005B091901BA6813469B0013449A001A4441
:10409C007B685B689B00B2FBF3F21B4BA3FB020338
:1040AC005B09642000FB03F3D31A1B013233164A5D
:1040BC00A2FB03235B0903F0F0031944BA6813460F
:1040CC009B0013449A001A447B685B689B00B2FB0C
:1040DC00F3F20D4BA3FB02035B09642000FB03F31B
:1040EC00D31A1B013233084AA2FB03235B0903F0EA
:1040FC000F027B681B680A449A6000BF1037BD46EC
:10410C0080BD00BF003801401F85EB5180B582B0E7
:10411C0000AF78607B68002B01D1012333E07B6812
:10412C0093F83D30DBB2002B06D17B68002283F87C
:10413C003C20786801F050FF7B68022283F83D2018
:10414C00786800F07DFB7B681B681A697B681B68CC
:10415C0022F480421A617B681B685A697B681B6871
:10416C0022F02A025A617B681B68DA687B681B683C
:10417C0042F40052DA607B6800221A647B680122E8
:10418C0083F83D20002318460837BD4680BD00004B
:10419C0080B588B000AF78607B681B681B68FB61DA
:1041AC007B681B68DB68BB617B681B685B697B6138
:1041BC0000233B610023FB60FB6903F00F033B61B1
:1041CC003B69002B17D1FB6903F02003002B12D0A5
:1041DC00BB6903F02003002B0DD07B6893F83D30B6
:1041EC00DBB2222B03D1786800F0B6F9E5E07868F1
:1041FC0000F04CFAE1E03B69002B00F0B6807B69E3
:10420C0003F00103002B05D1BB6903F49073002B61
:10421C0000F0AB80FB6903F00103002B0AD0BB69F3
:10422C0003F48073002B05D07B681B6C43F00102F8
:10423C007B681A64FB6903F00403002B0AD07B69CA
:10424C0003F00103002B05D07B681B6C43F00202CA
:10425C007B681A64FB6903F00203002B0AD07B69AC
:10426C0003F00103002B05D07B681B6C43F00402A8
:10427C007B681A64FB6903F00803002B0AD07B6986
:10428C0003F00103002B05D07B681B6C43F0080284
:10429C007B681A647B681B6C002B00F08D80FB69BB
:1042AC0003F02003002B11D0BB6903F02003002B7B
:1042BC000CD07B6893F83D30DBB2222B03D17868AD
:1042CC0000F04AF902E0786800F0E0F97B681B68BE
:1042DC005B6903F04003002B14BF01230023DBB206
:1042EC00FB607B681B6C03F00803002B02D1FB689E
:1042FC00002B31D0786800F089F87B681B685B690B
:10430C0003F04003002B23D07B681B685A697B6841
:10431C001B6822F040025A617B689B6B002B13D008
:10432C007B689B6B264A5A637B689B6B1846FCF731
:10433C0065F90346002B16D07B689B6B5B6B7A6828
:10434C00926B104698470EE0786800F056F80AE039
:10435C00786800F052F806E0786800F04EF87B6858
:10436C0000221A6428E000BF26E0FB6903F08003FA
:10437C00002B12D0BB6903F08003002B0DD07B689F
:10438C0093F83D30DBB2122B03D1786800F06FF854
:10439C0013E0786800F07AF90FE0FB6903F0400352
:1043AC00002B0AD0BB6903F04003002B05D07868C2
:1043BC0000F0B2F800BF00E000BF2037BD4680BD62
:1043CC005344000880B483B000AF786000BF0C3752
:1043DC00BD4680BC704780B483B000AF786000BF2E
:1043EC000C37BD4680BC704780B483B000AF78609A
:1043FC0000BF0C37BD4680BC704780B483B000AFA3
:10440C00786000BF0C37BD4680BC704780B483B069
:10441C0000AF78607B681B68DA687B681B6822F4E5
:10442C009072DA607B681B685A697B681B6822F0A3
:10443C0001025A617B68012283F83D2000BF0C37D2
:10444C00BD4680BC704780B584B000AF78607B6897
:10445C005B6AFB60FB6800225A86FB6800225A8567
:10446C00F868FFF7CAFF00BF1037BD4680BD80B4A7
:10447C0085B000AF78607B6893F83D30DBB2122BCF
:10448C0044D17B689B68B3F5805F1AD17B685B6A0B
:10449C00FB60FB681B881A467B681B68C2F308022A
:1044AC005A607B681B69002B05D17B685B6A9A1C80
:1044BC007B685A620EE07B685B6A5A1C7B685A62A6
:1044CC0008E07B685B6A591C7A6851621A787B68D1
:1044DC001B685A607B685B8D9BB2013B9BB27A6810
:1044EC0019465185002B0FD17B681B68DA687B68F5
:1044FC001B6822F08002DA607B681B68DA687B68D4
:10450C001B6842F04002DA60002300E002231846E8
:10451C001437BD4680BC704780B582B000AF786060
:10452C007B681B68DA687B681B6822F04002DA60E3
:10453C007B681B685A697B681B6822F001025A6110
:10454C007B68012283F83D207868FFF73BFF00234E
:10455C0018460837BD4680BD80B584B000AF786082
:10456C007B6893F83D30DBB2222B40F08A807B686D
:10457C009B68B3F5805F32D17B68DB6AFB607B683C
:10458C001B69002B0ED17B681B685B689BB2C3F365
:10459C0008039AB2FB681A807B68DB6A9A1C7B68FA
:1045AC00DA620CE07B681B685B689BB2DBB29AB288
:1045BC00FB681A807B68DB6A5A1C7B68DA627B6852
:1045CC005B8E9BB2013B9BB27A6819465186002BDD
:1045DC002FD07B681B6840F2FF125A6029E07B6881
:1045EC001B69002B0AD17B681B6858687B68DB6AE7
:1045FC00591C7A68D162C2B21A700CE07B681B68D5
:10460C005B68DAB27B68DB6A581C7968C86202F0B6
:10461C007F02D2B21A707B685B8E9BB2013B9BB25D
:10462C007A6819465186002B03D07B681B68FF22E1
:10463C005A607B685B8E9BB2002B20D17B681B6819
:10464C00DA687B681B6822F02002DA607B681B68E2
:10465C00DA687B681B6822F48072DA607B681B68FE
:10466C005A697B681B6822F001025A617B6801223F
:10467C0083F83D207868FFF7AEFE002302E00023AC
:10468C0000E0022318461037BD4680BD80B584B0CB
:10469C0000AF78607B6893F83D30DBB2322B40F092
:1046AC00C9807B685B8D9BB2002B43D07B681B68F9
:1046BC001B6803F08003802B3CD17B689B68B3F5AF
:1046CC00805F1AD17B685B6AFB60FB681B881A46AB
:1046DC007B681B68C2F308025A607B681B69002B5D
:1046EC0005D17B685B6A9A1C7B685A620EE07B681A
:1046FC005B6A5A1C7B685A6208E07B685B6A591CCF
:10470C007A6851621A787B681B685A607B685B8D8B
:10471C009BB2013B9AB27B685A857B685B8D9BB2DE
:10472C00002B07D17B681B68DA687B681B6822F05A
:10473C008002DA607B685B8E9BB2002B52D07B6868
:10474C001B681B6803F02003202B4BD17B689B68F4
:10475C00B3F5805F23D17B68DB6AFB607B681B69E8
:10476C00002B0ED17B681B685B689BB2C3F30803FC
:10477C009AB2FB681A807B68DB6A9A1C7B68DA62E7
:10478C0029E07B681B685B689BB2DBB29AB2FB6862
:10479C001A807B68DB6A5A1C7B68DA621BE07B68D8
:1047AC001B69002B0AD17B681B6858687B68DB6A25
:1047BC00591C7A68D162C2B21A700CE07B681B6813
:1047CC005B68DAB27B68DB6A581C7968C86202F0F5
:1047DC007F02D2B21A707B685B8E9BB2013B9AB29D
:1047EC007B685A867B685B8E9BB2002B20D17B68E2
:1047FC001B68DA687B681B6822F02002DA607B6831
:10480C001B68DA687B681B6822F48072DA607B684C
:10481C001B685A697B681B6822F001025A617B682D
:10482C00012283F83D207868FFF7DEFD002302E0CB
:10483C00002300E0022318461037BD4680BD00005F
:10484C0080B584B000AF78600023FB607B681B6888
:10485C00DA687B681B6822F00C02DA607B681B68E4
:10486C001B69FB60FB6823F47C53FB607B689A69D3
:10487C007B68DB691A437B681B6A1A437B68DB68BD
:10488C001A43FB68134343F40063FB607B681B68AB
:10489C00FA681A617B681B68DB68FB60FB6823F4B1
:1048AC00B05323F00C03FB607B689A687B681B6930
:1048BC001A437B685B691343FA681343FB607B689C
:1048CC001B68FA68DA607B681B685A697B681B682E
:1048DC0022F440725A617B681B68534A93424FD151
:1048EC00FEF734FAB860BA6813469B0013449A007A
:1048FC001A447B685B689B00B2FBF3F34B4AA2FB48
:10490C0003235B091901BA6813469B0013449A00F0
:10491C001A447B685B689B00B2FBF3F2434BA3FB2E
:10492C0002035B09642000FB03F3D31A1B0132332F
:10493C003E4AA2FB03235B095B0003F4F0731944AA
:10494C00BA6813469B0013449A001A447B685B6850
:10495C009B00B2FBF3F2354BA3FB02035B09642013
:10496C0000FB03F3D31A1B013233304AA2FB03239F
:10497C005B0903F00F027B681B680A449A604EE0E7
:10498C00FEF7D0F9B860BA6813469B0013449A003E
:10499C001A447B685B689B00B2FBF3F3234AA2FBCF
:1049AC0003235B091901BA6813469B0013449A0050
:1049BC001A447B685B689B00B2FBF3F21B4BA3FBB6
:1049CC0002035B09642000FB03F3D31A1B0132338F
:1049DC00164AA2FB03235B095B0003F4F073194432
:1049EC00BA6813469B0013449A001A447B685B68B0
:1049FC009B00B2FBF3F20D4BA3FB02035B0964209B
:104A0C0000FB03F3D31A1B013233084AA2FB032326
:104A1C005B0903F00F027B681B680A449A6000BFB5
:104A2C001037BD4680BD00BF003801401F85EB51DB
:104A3C0080B584B000AF78600B46FB70FB782F2BF1
:104A4C0034D9FB78392B31D80023FB732AE07B68EF
:104A5C005B7B002B10D1FB78A3F1300213465B007B
:104A6C0013445B001A46FB7B13446C4AD35C194617
:104A7C00786800F02DFC12E0FB78A3F130021346AD
:104A8C005B0013445B001A46FB7B1344634AD35C04
:104A9C00C3F10703DBB21946786800F019FCFB7B05
:104AAC000133FB73FB7B022BD1D9A6E0FB78402BA7
:104ABC0034D9FB785A2B31D80023BB732AE07B689E
:104ACC005B7B002B10D1FB78A3F1410213465B00FA
:104ADC0013445B001A46BB7B1344514AD35C194602
:104AEC00786800F0F5FB12E0FB78A3F14102134665
:104AFC005B0013445B001A46BB7B1344484AD35CEF
:104B0C00C3F10703DBB21946786800F0E1FBBB7B0D
:104B1C000133BB73BB7B022BD1D96EE0FB78602BCE
:104B2C0034D9FB787A2B31D800237B732AE07B684D
:104B3C005B7B002B10D1FB78A3F1610213465B0069
:104B4C0013445B001A467B7B1344364AD35C1946EC
:104B5C00786800F0BDFB12E0FB78A3F1610213460C
:104B6C005B0013445B001A467B7B13442D4AD35CD9
:104B7C00C3F10703DBB21946786800F0A9FB7B7B15
:104B8C0001337B737B7B022BD1D936E0FB78202B56
:104B9C0033D9FB782F2B30D800233B732AE07B686A
:104BAC005B7B002B10D1FB78A3F1210213465B0039
:104BBC0013445B001A463B7B13441B4AD35C1946D7
:104BCC00786800F085FB12E0FB78A3F12102134614
:104BDC005B0013445B001A463B7B1344124AD35CC4
:104BEC00C3F10703DBB21946786800F071FB3B7B1D
:104BFC0001333B733B7B022BD1D97B685B7B002B56
:104C0C0004D12021786800F063FB03E0FF21786871
:104C1C0000F05EFB00BF1037BD4680BD186F00086A
:104C2C00546F0008F06F0008E86E000880B584B07F
:104C3C0000AF78600B46FB70FB782F2B36D9FB78D6
:104C4C00392B33D80023FB732CE07B685B7B002B68
:104C5C0011D1FB78A3F1300213465B0013445B00C7
:104C6C001A46FB7B134403336F4AD35C19467868AE
:104C7C0000F02EFB13E0FB78A3F1300213465B002F
:104C8C0013445B001A46FB7B13440333664AD35C24
:104C9C00C3F10703DBB21946786800F019FBFB7B04
:104CAC000133FB73FB7B022BCFD9ACE0FB78402BA1
:104CBC0036D9FB785A2B33D80023BB732CE07B6896
:104CCC005B7B002B11D1FB78A3F1410213465B00F7
:104CDC0013445B001A46BB7B13440333534AD35C27
:104CEC001946786800F0F4FA13E0FB78A3F141025E
:104CFC0013465B0013445B001A46BB7B134403331F
:104D0C004A4AD35CC3F10703DBB21946786800F05A
:104D1C00DFFABB7B0133BB73BB7B022BCFD972E0B9
:104D2C00FB78602B36D9FB787A2B33D800237B7336
:104D3C002CE07B685B7B002B11D1FB78A3F161022B
:104D4C0013465B0013445B001A467B7B134403330E
:104D5C00374AD35C1946786800F0BAFA13E0FB784E
:104D6C00A3F1610213465B0013445B001A467B7B84
:104D7C00134403332E4AD35CC3F10703DBB2194649
:104D8C00786800F0A5FA7B7B01337B737B7B022B6D
:104D9C00CFD938E0FB78202B35D9FB782F2B32D8A4
:104DAC0000233B732CE07B685B7B002B11D1FB78E1
:104DBC00A3F1210213465B0013445B001A463B7BB4
:104DCC00134403331B4AD35C1946786800F080FA0D
:104DDC0013E0FB78A3F1210213465B0013445B0044
:104DEC001A463B7B13440333124AD35CC3F10703CB
:104DFC00DBB21946786800F06BFA3B7B01333B73EE
:104E0C003B7B022BCFD97B685B7B002B04D1202111
:104E1C00786800F05DFA03E0FF21786800F058FA3A
:104E2C0000BF1037BD4680BD186F0008546F0008D6
:104E3C00F06F0008E86E000880B582B000AF7860B3
:104E4C00084611461A460346FB700B46BB701346C8
:104E5C007B707A78BB781946786800F015FBFB7884
:104E6C0019467868FFF7E4FD7B780133DAB2BB783A
:104E7C001946786800F008FBFB7819467868FFF74C
:104E8C00D5FE00BF0837BD4680BD80B586B000AFEB
:104E9C00F860B96011461A460B46FB711346BB719C
:104EAC000023FB7510E0FB7DBA6813441978FB7D79
:104EBC009B00DAB2FB791344DAB2BB79F868FFF7DE
:104ECC00BBFFFB7D0133FB75FB7DBA6813441B787C
:104EDC00002BE8D100BF1837BD4680BD80B588B027
:104EEC0000AFF860B96011461A460B46FB711346C9
:104EFC00BB7107F11403BA680749184601F07EFB31
:104F0C00BB79FA7907F11401F868FFF7BEFF00BF0F
:104F1C002037BD4680BD00BF8C70000880B584B0C2
:104F2C0000AF78600023FB600CE0FB68D9B2094A43
:104F3C00FB6852F823301A46786800F0F0FAFB68E8
:104F4C000133FB60FB68072BEFDD00BF1037BD465C
:104F5C0080BD00BFC86E000880B584B000AF78601B
:104F6C000B46FB700123FB737B6818687B689B798D
:104F7C0099B2FA1C0123FBF7A9FF0346002B03D0BF
:104F8C000023FB7300E000BF7B681B681846FCF72E
:104F9C00F3F90346202BF6D1FB7B18461037BD46A0
:104FAC0080BD80B586B000AFF860B9601346FB8059
:104FBC000123FB75FB681868FB689B7999B2FB8829
:104FCC00BA68FBF783FF0346002B03D00023FB7565
:104FDC0000E000BFFB681B681846FCF7CDF90346E0
:104FEC00202BF6D1FB7D18461837BD4680BD80B509
:104FFC0084B000AF78600B46FB701346BB70012386
:10500C00FB73FB7823F00F03BB73FB781B017B73E3
:10501C00BB78002B07D07B681B7A43F00103DAB214
:10502C007B681A7206E07B681B7A23F00103DAB204
:10503C007B681A727B681B7B002B07D07B681B7A02
:10504C0043F00803DAB27B681A7206E07B681B7ABD
:10505C0023F00803DAB27B681A727B681B7A43F080
:10506C000403DAB27B681A727B681B7A5BB203F0BA
:10507C000F035AB297F90E3013435BB2DAB27B6866
:10508C001A727B681B7A3B727B681B7A23F00403D1
:10509C00DAB27B681A727B681B7A7B727B681B7A2C
:1050AC0043F00403DAB27B681A727B681B7A5BB23A
:1050BC0003F00F035AB297F90D3013435BB2DAB217
:1050CC007B681A727B681B7ABB727B681B7A23F035
:1050DC000403DAB27B681A727B681B7AFB727B68FA
:1050EC0018687B689B7999B207F108020423FBF7D7
:1050FC00EDFE0346002B03D00023FB7300E000BF42
:10510C007B681B681846FCF737F90346202BF6D151
:10511C00FB7B18461037BD4680BD000080B485B0BF
:10512C0000AF78603960104BFB60FB6800221A708E
:10513C003A687B68B3FBF2F102FB01F29B1AFA6846
:10514C00013AFA60094AD25CFB681A703B687A68CB
:10515C00B2FBF3F37B607B68002BE9D1FB6818464C
:10516C001437BD4680BC7047E500002008000020C5
:10517C0080B584B000AF786039600123FB730023E5
:10518C00BB817B6808223968184601F023FA7B68DA
:10519C0000221A727B6800221A737B6800229A72B2
:1051AC007B680022DA727B6800225A737B680022CB
:1051BC005A727B685B79012B02D97B6808225A7280
:1051CC007B68DB79002B0AD07B685B79012B06D1DD
:1051DC007B685B7A43F00403DAB27B685A72322044
:1051EC00FBF722F87B681B7B19467868FFF7B4FE47
:1051FC004FF4FA70FBF718F834233B7330237B73AE
:10520C0007F10C03022219467868FFF7CAFE052045
:10521C00FBF70AF807F10C03022219467868FFF72E
:10522C00C0FE0520FBF700F807F10C03022219461B
:10523C007868FFF7B6FE0120FAF7F6FF24233B73DC
:10524C0020237B7307F10C03022219467868FFF7C1
:10525C00A8FE7B685B7A43F02003DBB20022194680
:10526C007868FFF7C4FE7B6804229A72786800F0B5
:10527C003DF9786800F0E8F87B680222DA727B6806
:10528C00DB7A43F00403DBB2002219467868FFF79F
:10529C00AEFE786800F0E8F8FB7B18461037BD4688
:1052AC0080BD80B582B000AF7860396008E03B68A3
:1052BC005A1C3A601B78012219467868FFF797FE52
:1052CC003B681B78002BF2D100BF0837BD4680BD70
:1052DC0080B582B000AF78600B46FB70FB78012282
:1052EC0019467868FFF783FE00BF0837BD4680BDBE
:1052FC000EB480B587B000AF786007F12803BB60AF
:10530C007B6A7B6193E07B691B7801221946786884
:10531C00FFF76DFE7B6901337B617B691B78252B65
:10532C0003D07B691B78002BEDD17B6901337B614A
:10533C007B691B78633B152B75D801A252F823F0BF
:10534C00A5530008BF530008335400083354000819
:10535C003354000833540008335400083354000805
:10536C0033540008335400083354000833540008F5
:10537C00DF5300083354000833540008335400083A
:10538C00FF5300083354000833540008335400080A
:10539C003354000813540008BB681A1DBA601B680C
:1053AC003B613B69DBB2012219467868FFF71FFEAF
:1053BC003AE0BB681A1DBA601B683B613B690A2165
:1053CC001846FFF7ABFE034619467868FFF769FFEE
:1053DC002AE0BB681A1DBA601B683B613B69082157
:1053EC001846FFF79BFE034619467868FFF759FFEE
:1053FC001AE0BB681A1DBA601B68FB60F968786814
:10540C00FFF74FFF10E0BB681A1DBA601B683B61C9
:10541C003B6910211846FFF781FE03461946786850
:10542C00FFF73FFF00E000BF7B6901337B617B69C5
:10543C001B78002B7FF471AF00BF1C37BD46BDE855
:10544C00804003B0704700BF80B582B000AF786079
:10545C00002201217868FFF7CAFD0220FAF7E4FE6A
:10546C0000BF0837BD4680BD80B582B000AF786004
:10547C00002202217868FFF7BAFD0220FAF7D4FE69
:10548C0000BF0837BD4680BD90B587B000AF7860CF
:10549C000B46FB701346BB70134B07F108040FCB84
:1054AC0084E80F007B685B79BA789A4203D97B68F1
:1054BC005B79013BBB70BB789B0007F1180213446E
:1054CC0053F8103CDAB2FB781344DBB25BB263F0F6
:1054DC007F035BB2DBB2002219467868FFF787FDC9
:1054EC0000BF1C37BD4690BD9070000880B582B0DF
:1054FC0000AF78607B68DB7A43F00403DAB27B6838
:10550C00DA727B68DB7A43F00803DBB200221946BF
:10551C007868FFF76CFD00BF0837BD4680BD80B5CD
:10552C0086B000AFF8600B467A60FB72FB7A03F032
:10553C000703FB72FB7ADB005BB243F040035BB208
:10554C00DBB200221946F868FFF751FD00237B619E
:10555C000BE07B697A6813441B7801221946F868C2
:10556C00FFF745FD7B6901337B617B69072BF0D924
:10557C0000BF1837BD4680BD80B584B000AF7860E1
:10558C000B46FB70FB78012B25D87B68FA781A73D5
:10559C00FB78002B0FD07B681B7A43F00803DAB240
:1055AC007B681A727B681B7A19467868FFF7D4FC03
:1055BC000346FB7311E07B681B7A23F00803DAB215
:1055CC007B681A727B681B7A19467868FFF7C4FCF3
:1055DC000346FB7301E00023FB73FB7B184610377B
:1055EC00BD4680BD80B582B000AF78607B681B681B
:1055FC000D4A934214D10D4B1B68591C0C4BA3FB49
:10560C0001235A0913461B019B1A9B00CA1A074B0C
:10561C001A60064B1B681A460649074800F04AFEFA
:10562C0000BF0837BD4680BD00040040E8000020E4
:10563C0089888888A87000089002002080B582B004
:10564C0000AF78607B681B68B3F1804F22D11348A0
:10565C00FDF7BBFE0346012B1CD14FF080435B6A68
:10566C001A460F490F4800F025FE002211210E4862
:10567C00FFF70AFF0D4B1B681A460D490A48FFF746
:10568C0037FE4FF080435B6A194600230022064820
:10569C00FFF724FC00BF0837BD4680BD780300200F
:1056AC00B870000890020020EC000020E8000020F8
:1056BC00C870000880B483B000AF78607B681B684A
:1056CC00064A934204D1064B1B680133044A13600B
:1056DC0000BF0C37BD4680BC704700BF0054004073
:1056EC00FC00002080B483B000AF78607B681B683E
:1056FC00064A934204D1064B1B680133044A1360DB
:10570C0000BF0C37BD4680BC704700BF0054004042
:10571C000001002080B483B000AF78607B681B6808
:10572C00064A934204D1064B1B680133044A1360AA
:10573C0000BF0C37BD4680BC704700BF003801402D
:10574C000401002080B584B000AF78607B681B68D2
:10575C002F4A934257D12F4B1B78002B12D1002389
:10576C00FB7306E0FB7B2C4A0021D154FB7B0133FD
:10577C00FB73FB7B632BF5D900224FF400512748B8
:10578C00FBF74CFA264B1B780D2B0BD0214B1B78BF
:10579C005A1CD1B21F4A11701A46214B19781E4B54
:1057AC00995421E01B4B00221A701E4B01221A70D7
:1057BC001948FAF7CFFC03469BB21A4616491A4809
:1057CC00FDF7D0FF022219491748FDF7CBFF184906
:1057DC001148FAF7B5FC0346002B05D101224FF412
:1057EC0000510E48FBF71AFA01220D490E48FEF73C
:1057FC0025F80B48FAF7AEFC03469BB21A4608494B
:10580C000948FDF7AFFF00BF1037BD4680BD00BF94
:10581C00003801406D010020D00200200010014032
:10582C00C40100206C01002090020020CC70000804
:10583C00D070000880B483B000AF0346FB80FB88B7
:10584C00102B04D1044B1B680533034A136000BFB3
:10585C000C37BD4680BC7047E800002080B500AF17
:10586C00FAF780FC00F032F800F0C0F900F070F8A4
:10587C0000F0F2F800F09AF800F092F900F03AF922
:10588C0000F062F901220B490B48FDF7D7FF0B49D9
:10589C000B48FFF76DFC0A48FFF740FB0121084855
:1058AC00FFF76AFE0749044800F004FD0648FDF7BF
:1058BC00AAFAFEE7C401002090020020A0700008A4
:1058CC00EC000020D4700008C801002080B590B016
:1058DC0000AF07F1180328220021184600F085FEBE
:1058EC003B1D00221A605A609A60DA601A6102232A
:1058FC00BB610123BB621023FB6202237B63002389
:10590C00BB634FF46013FB6307F118031846FCF7F5
:10591C0033FE0346002B01D000F0CCF90F237B6043
:10592C000223BB600023FB604FF480633B610023C8
:10593C007B613B1D02211846FDF79EF80346002BA8
:10594C0001D000F0B7F900BF4037BD4680BD000064
:10595C0080B500AF124B134A1A60114B124A5A60B1
:10596C000F4B00229A600E4B0022DA600C4B4FF466
:10597C0080421A610A4B00225A61094B00229A613B
:10598C00074B0022DA61064B00221A620448FBF72F
:10599C0075F90346002B01D000F08CF900BF80BDD7
:1059AC007001002000540040A086010080B58CB02E
:1059BC0000AF07F10C0324220021184600F015FE5D
:1059CC003B1D00221A605A60224B4FF080421A6035
:1059DC00204B00225A601F4B00229A601D4BFF2265
:1059EC00DA601C4B00221A611A4B00229A610123C7
:1059FC00FB6000233B6101237B610023BB610A2315
:105A0C00FB6100233B6201237B620023BB620A2300
:105A1C00FB6207F10C0319460E48FDF717FA034613
:105A2C00002B01D000F046F900237B600023BB6003
:105A3C003B1D19460748FDF7F1FD0346002B01D02D
:105A4C0000F038F93C210348FDF78EFA00BF3037DF
:105A5C00BD4680BD7803002080B586B000AF07F14D
:105A6C00080300221A605A609A60DA603B460022F2
:105A7C001A605A601D4B1E4A1A601C4B4FF4C852D8
:105A8C005A601A4B00229A60184B41F28732DA6046
:105A9C00164B00221A61154B00229A611348FDF730
:105AAC0087F90346002B01D000F004F94FF4805322
:105ABC00BB6007F1080319460C48FDF7B4FB03461D
:105ACC00002B01D000F0F6F800233B6000237B6034
