:020000040800F2
:10000000005000203534000825330008273300084D
:10001000293300082B3300082D33000800000000AE
:100020000000000000000000000000002F33000866
:100030003133000800000000333300083533000876
:100040007D3400087D3400087D3400087D340008CC
:100050007D3400087D3400087D3400087D340008BC
:100060007D3400087D3400087D3400087D340008AC
:100070007D3400087D3400087D3400087D3400089C
:100080003D3300084D3300087D3400087D340008FE
:100090007D3400087D3400087D3400087D3400087C
:1000A0007D3400087D3400087D3400087D3400086C
:1000B0005D3300086D3300087D3400087D3300088F
:1000C0008D3300087D3400087D3400087D3400083D
:1000D0007D3400087D3400089D3300087D3400081D
:1000E0007D3400087D3400087D34000800000000E5
:1000F0000000000000000000000000000000000000
:0C01000000000000000000005FF808F1A3
:10010C0010B5054C237833B9044B13B10448AFF345
:10011C0000800123237010BD7C0000200000000033
:10012C00083D000808B5034B1BB103490348AFF366
:10013C00008008BD0000000080000020083D000881
:10014C0010B504460E4B18784FF47A73B3FBF0F3EA
:10015C000C4A1068B0FBF3F000F0A2F868B90F2C51
:10016C0001D901200AE0002221464FF0FF3000F0B7
:10017C0055F8034B5C60002000E0012010BD00BF6F
:10018C00000000201400002008B5074A136843F053
:10019C0010031360032000F02FF80020FFF7D0FFAE
:1001AC0002F08AFF002008BD00200240034A1168BB
:1001BC00034B1B780B441360704700BFCC0000202E
:1001CC0000000020014B1868704700BFCC000020D5
:1001DC0038B50446FFF7F6FF0546B4F1FF3F02D0F1
:1001EC00044B1B781C44FFF7EDFF401BA042FAD3D5
:1001FC0038BD00BF00000020074AD36823F4E06339
:10020C001B041B0C000200F4E060184340F0BF60BC
:10021C0040F40030D060704700ED00E030B4174B74
:10022C00DB68C3F30223C3F10704042C28BF0424A6
:10023C001D1D062D18D9033B4FF0FF3505FA04F4AC
:10024C0021EA0401994005FA03F322EA0303194356
:10025C0000280BDB0901C9B200F1604000F56140D8
:10026C0080F8001330BC70470023E5E700F00F0066
:10027C000901C9B2024B1954F4E700BF00ED00E0CC
:10028C0014ED00E0002807DB00F01F0240090123F9
:10029C009340024A42F82030704700BF00E100E072
:1002AC000138B0F1807F0AD2064B5860064AF02123
:1002BC0082F823100020986007221A6070470120F2
:1002CC00704700BF10E000E000ED00E060B310B438
:1002DC0002460168154B0B441548A0FB03031B0990
:1002EC009B001364134BD363022382F821300868FC
:1002FC0020F47F5020F03000536894682343D46876
:10030C002343146923435469234394692343D469D5
:10031C00234303430B6000209063012382F82130B8
:10032C0082F8200010BC704701207047F8FFFDBF19
:10033C00CDCCCCCC0000024008B590F82130022B7B
:10034C0003D004238363012008BD0268136823F0E3
:10035C000E0313600268136823F001031360036833
:10036C00194A934214D0143293421FD01432934240
:10037C001ED0143293421ED0143293421ED014322B
:10038C00934202D04FF0807203E04FF4801200E0F1
:10039C0001220E4B5A60012380F82130002380F893
:1003AC002030436B6BB198470020CDE71022F0E76B
:1003BC004FF48072EDE74FF48052EAE74FF480324D
:1003CC00E7E70020C0E700BF080002400000024041
:1003DC0038B5C36B1A6804682568016C04238B401C
:1003EC00134235D015F0040F32D0236813F0200FD0
:1003FC0003D1236823F0040323600368434A934228
:10040C0014D01432934218D01432934217D01432B1
:10041C00934217D01432934217D01432934202D025
:10042C004FF0806203E04FF4800200E00422384B6E
:10043C005A60C36A03B1984738BD4022F7E74FF4BE
:10044C008062F4E74FF48042F1E74FF48022EEE74C
:10045C0002238B4013423CD015F0020F39D0236895
:10046C0013F0200F06D1236823F00A032360012325
:10047C0080F821300368254A934214D014329342F9
:10048C001CD0143293421BD0143293421BD0143222
:10049C0093421BD01432934202D04FF0007203E00F
:1004AC004FF4001200E00222194B5A60002380F82E
:1004BC002030836A002BBFD09847BDE72022F3E79A
:1004CC004FF40072F0E74FF40052EDE74FF40032B6
:1004DC00EAE7082303FA01F11142ADD015F0080F39
:1004EC00AAD0236823F00E032360026CC16B012396
:1004FC0003FA02F24A60836380F82130002380F80B
:10050C002030036B002B97D0984795E708000240EA
:10051C000000024090F8210070470000F0B482B057
:10052C0000263246A2E0002D5AD0012D00D1CE6813
:10053C00FF2B69D88446FF2B69D89500DCF8004066
:10054C000F27AF4024EA070406FA05F52C43CCF834
:10055C0000404C6814F0805F00F087805F4CA56908
:10056C0045F00105A561A46904F001040194019C06
:10057C009508AF1C5A4C54F8274002F00307BF00F3
:10058C004FF00F0C0CFA07FC24EA0C0C554CA04253
:10059C0043D004F58064A04200F0818004F58064AF
:1005AC00A0427ED004F58064A04234D0042435E00F
:1005BC004D4FBD4214D00BD94C4FBD4210D007F556
:1005CC008037BD420CD0A7F58017BD42B0D107E0F3
:1005DC00A7F58017BD4203D007F58037BD42A7D1E0
:1005EC008D687DB1012D08D044610826A0E7CE6846
:1005FC0008369DE7CE680C369AE70461082697E723
:10060C00002695E7042693E700F1040C93E7A2F18A
:10061C000805AD0092E7032400E00024BC4044EA46
:10062C000C0402352E4F47F825404C6814F4803FDB
:10063C0039D02F4D2C681C432C604C6814F4003FAF
:10064C0037D02B4D6C681C436C604C6814F4801FC5
:10065C0035D0274DAC681C43AC604C6814F4001FBB
:10066C0033D0234DEC682343EB6001320B6833FA33
:10067C0002F430D00124944023409C42F5D14D68C3
:10068C00122DB7D094D8022DB1D07FF64CAF032DDC
:10069C00B6D0112D7FF44CAFCE68043648E7012458
:1006AC00BCE70224BAE7124D2C6824EA03042C6040
:1006BC00C3E70F4D6C6824EA03046C60C5E70C4D6E
:1006CC00AC6824EA0304AC60C7E7094DEC6824EA83
:1006DC000303EB60C9E702B0F0BC704700100240A6
:1006EC000000014000080140000021100000311002
:1006FC000004014012B9090401617047016170479F
:10070C00C3680B4201D1016170474161704790F899
:10071C003E30DBB2402B0AD00369B3F5804F15D0C5
:10072C00036D002B36D0036D012B3DD07047036D4C
:10073C002BB9436C026803F0FE0313617047436CE2
:10074C00026843F00103DBB21361704790F83D304F
:10075C00DBB2212B0FD0436C026843F00103DBB2F8
:10076C001361436B6BB19B6A7BB10268536843F4B2
:10077C00006353607047436C026803F0FE0313611F
:10078C00EFE7826B002AEED1D0E7836B9B6A002BDC
:10079C00EBD1CBE7436CC3F3C813026803F0060339
:1007AC0043F0F00313617047436CC3F3C813026842
:1007BC0003F0060343F0F1031361B7E7436C0268DF
:1007CC00DBB21361436B3BB19B6A4BB1026853685C
:1007DC0043F4006353607047826B002AF4D1FAE74C
:1007EC00836B9B6A002BF1D1F5E710B48DB090F8B8
:1007FC003E30DAB2C16A046B90F83D30DBB2222B8A
:10080C000AD000230B9303685A690B929B690B93D4
:10081C000B9B0DB010BC7047036D0BB9402A17D061
:10082C00036D1BB90369B3F5404F19D0438D9BB2CF
:10083C00002B25D1039303685A6903929A6903929A
:10084C00039A1A6842F400721A6000230365E0E709
:10085C00019303685A6901929B690193019BD8E744
:10086C000023029303685A6902929A690292029ACF
:10087C001A6842F480721A60036D01330365C8E78D
:10088C00438D9BB2012B25D0438D9BB2022B7BD089
:10089C000268136843F48063136003685A6812F4A7
:1008AC00006F0ED011F5803F07D0012905D0082923
:1008BC0003D0102901D0202903D15A6842F4805268
:1008CC005A6000230A9303685A690A929B690A9337
:1008DC000A9BBAE711F5803F11D0082934D02029A2
:1008EC0032D0122C2ED0042940D002293ED010290F
:1008FC003CD00268136823F4806313603BE0026809
:10090C00136823F48063136003685A6812F4006F51
:10091C000CD01A6822F480621A60002304930368D6
:10092C005A6904929B690493049B8EE700220592FA
:10093C005A6905929A690592059A1A6842F40072EE
:10094C001A6082E70129CED00268136823F4806311
:10095C0013600023079303685A6907929A690792F8
:10096C00079A1A6842F400721A606EE702681368FC
:10097C0043F4806313600023069303685A6906925C
:10098C009B690693069B60E7042915D0022913D0B6
:10099C00102911D00268136843F40063136000231C
:1009AC00089303685A6908929A690892089A1A6817
:1009BC0022F480621A600CE00268136843F48063CE
:1009CC0013600023099303685A6909929B69099380
:1009DC00099B03685A6812F4006F3FF436AF11F5A7
:1009EC00803F08D0012906D0082904D0102902D054
:1009FC0020297FF42AAF5A6842F480525A6024E7C7
:100A0C00438D9BB253B1426A036812781A61436AF0
:100A1C0001334362438D013B9BB243857047438D49
:100A2C009BB253B103681A69436A1A70436A013363
:100A3C004362438D013B9BB243857047C36AB3F558
:100A4C002A0F04D0C36AB3F12A4F03D07047012395
:100A5C00C36270470823C362F8E70000002800F067
:100A6C00BE80F8B5044690F83D30002B6BD02423A3
:100A7C0084F83D302268136823F00103136001F001
:100A8C00BFF96268584B9A4262D8584B98428CBF57
:100A9C0000230123002B40F0A480554BA3FB002323
:100AAC009B0C21684A6822F03F021A434A60256871
:100ABC002A6A22F03F0266684B498E424ED80133B7
:100ACC0013432B622568E96921F44F4121F0FF01A2
:100ADC006368454A93424BD801385B00B0FBF3F393
:100AEC000133C3F30B03042B38BF04230B43EB611B
:100AFC0021680B6823F0C003E269206A02431343A8
:100B0C000B6021688B6823F4034323F0FF032269F5
:100B1C00E068024313438B602168CB6823F0FF032A
:100B2C006269A06902431343CB602268136843F0E7
:100B3C000103136000202064202384F83D302063DF
:100B4C0084F83E00F8BD80F83C3002F0D7FA8EE70E
:100B5C00284B98428CBF002301239BE74FF49671DE
:100B6C0001FB03F32449A1FB03139B090133A7E702
:100B7C00A268BAB9461E03EB4307B6FBF7F601367B
:100B8C00C6F30B06B6FA86F6760936BBC2B901383F
:100B9C0003EB4303B0FBF3F30133C3F30B0242F457
:100BAC000043A3E7461E03EB830707EB8707B6FB5F
:100BBC00F7F60136C6F30B06B6FA86F67609E4E7C5
:100BCC00013803EB830303EB8303B0FBF3F2013235
:100BDC00C2F30B0242F4404388E7012386E701206D
:100BEC0070470120AEE700BFA08601007F841E0085
:100BFC0083DE1B43FF083D00D34D621030B482B03E
:100C0C000024019490F83D40E4B2202C56D12E4C97
:100C1C002468E4082D4DA5FB0454240A04EB840439
:100C2C0004EB84040194019C013C0194019C002C74
:100C3C0035D00468A56915F0020FF4D190F83C503A
:100C4C00012D3FD0012580F83C50256815F0010F8F
:100C5C0003D1256845F00105256005682C6824F44E
:100C6C0000642C60212480F83D40102480F83E4024
:100C7C000024046442624385438D0385144BC36294
:100C8C0041640268136843F48073136080F83C403D
:100C9C000268536843F4E063536020460FE000237E
:100CAC000363202280F83D2080F83E30026C42F035
:100CBC002002026480F83C30012000E0022002B0E7
:100CCC0030BC70470220FAE71400002089B5F814F4
:100CDC000000FFFF704708B590F83D30DAB2438D45
:100CEC009BB27BB1416A036809781961436A01338D
:100CFC004362438D013B9BB24385438D9BB20BB941
:100D0C00292A00D008BD0268536823F4806353601D
:100D1C0021230363282380F83D30FFF7DBFFF1E745
:100D2C00704708B590F83D30DAB2438D9BB27BB179
:100D3C0003681969436A1970436A01334362438D2E
:100D4C00013B9BB24385438D9BB20BB92A2A00D041
:100D5C0008BD0268536823F4806353602223036345
:100D6C00282380F83D30FFF7DBFFF1E7704708B52B
:100D7C0090F83D3003F02803282B07D003686FF060
:100D8C0002025A61002380F83C3008BD02685368A7
:100D9C0023F48063536011F0040F0BD0002311F087
:100DAC00800F09D18289002180F83C101946FFF789
:100DBC00DDFFEAE70123F2E7028BF4E7704700005E
:100DCC0008B590F83D30DBB2C26A082A01D0202A5F
:100DDC0001D1282B06D0212B1ED003686FF4806222
:100DEC005A6108BD1A4BC3620268536823F4E0636E
:100DFC00536003686FF480625A610268136823F4CD
:100E0C008063136000230363202280F83D2080F868
:100E1C003E30FFF7D3FFE4E70D4BC362212303639E
:100E2C00202380F83D30002380F83E300268536860
:100E3C0023F4E063536003686FF480625A610268C4
:100E4C00136823F480631360FFF744FFC9E700BF06
:100E5C000000FFFF704710B590F83D30DBB290F802
:100E6C003E20D2B2C46A018D09B9212B04D0212BAA
:100E7C003BD0402A37D010BD082C04D0202C02D0F7
:100E8C0014F5803F19D10268536823F4E063536072
:100E9C000268136843F40073136000230363202378
:100EAC0080F83D3090F83E30DBB2402B15D000235B
:100EBC0080F83E3002F074F8DDE70268536823F4E2
:100ECC00E063536011230363002380F83E3020233A
:100EDC0080F83D3002F064F8CDE7002380F83E3016
:100EEC00FFF7B8FFC7E7222BC5D1438D9BB283B167
:100EFC0090F83E30DBB2402B11D0426A0368127876
:100F0C001A61436A01334362438D013B9BB24385B3
:100F1C00B1E70268536823F480635360ABE7036D59
:100F2C009BB9C36C012B08D0836CC3F307230268F5
:100F3C001361036D013303659DE7836C0268DBB2BB
:100F4C001361036D0233036595E7036D012B18D014
:100F5C00036D022B8FD190F83D30DBB2222B18D0D1
:100F6C0090F83D30DBB2212B85D1426A03681278B0
:100F7C001A61436A01334362438D013B9BB2438543
:100F8C0079E7836C0268DBB21361036D013303658F
:100F9C0071E70268136843F4807313606BE708B55C
:100FAC00C26A90F83D30DBB2212B00D008BD438DD6
:100FBC009BB203BB082A04D0202A02D012F5803F32
:100FCC0025D10268536823F4E06353600268136808
:100FDC0043F40073136000230363202380F83D3037
:100FEC0090F83E30DBB2402B21D0002380F83E300D
:100FFC0001F0D6FFDAE7426A036812781A61436A95
:10100C0001334362438D013B9BB24385CEE70268BB
:10101C00536823F4E063536011230363002380F8C7
:10102C003E30202380F83D3001F0BAFFBEE70023AC
:10103C0080F83E30FFF70EFFB8E7704708B590F820
:10104C003D30DBB2222B00D008BD438D9BB2032B6D
:10105C0014D903681A69436A1A70436A01334362EC
:10106C00438D013B9BB24385438D9BB2032BEBD14C
:10107C000268536823F480635360E5E7C26A022A6E
:10108C00E2D0012BE0D80268136823F4806313606C
:10109C000268536823F4E063536003681A69436A77
:1010AC001A70436A01334362438D013B9BB2438503
:1010BC00202380F83D3090F83E30DBB2402B07D037
:1010CC00002380F83E301223036301F077FFBBE767
:1010DC00002380F83E300363FFF7AFFFB4E708B599
:1010EC00C26A438D9BB2042B13D0438D9BB2032B4E
:1010FC0020D0438D9BB2022B36D003681A69436A09
:10110C001A70436A01334362438D013B9BB24385A2
:10111C000FE00268536823F48063536003681A6914
:10112C00436A1A70436A01334362438D013B9BB29D
:10113C00438508BD01684B6823F480634B60042A27
:10114C0006D0022A04D00268136823F4806313606B
:10115C0003681A69436A1A70436A01334362438D08
:10116C00013B9BB24385E4E7012A0BD0102A09D03E
:10117C00042A36D0022A34D00268136843F4007370
:10118C00136004E00268136823F48063136003683F
:10119C001A69436A1A70426A531C4362438D013BBD
:1011AC009BB2438503681B695370436A01334362E6
:1011BC00438D013B9BB243850268536823F4407313
:1011CC005360202380F83D3090F83E30DBB2402B4A
:1011DC000DD0002380F83E301223036301F0EEFEA5
:1011EC00A7E70268136843F480631360CFE700231A
:1011FC0080F83E300363FFF720FF9AE77047704793
:10120C0010B5406A90F83D20416B00238B62816BD6
:10121C008B620468216821F4806121604385416BF5
:10122C004B63816B4B6301680B6823F001030B600C
:10123C0090F83D30DBB2602B0DD0D2B202F0280218
:10124C00282A12D0202380F83D30002380F83E302D
:10125C00FFF7D4FF10BD202380F83D30002380F829
:10126C003E300364FFF7CBFFF4E70268136843F0EA
:10127C00010313600268136843F480631360002356
:10128C000363282380F83D30E2E7000010B50446E4
:10129C0090F83D30DBB290F83E20D2B2102A32D01A
:1012AC0003F02802282A36D02268526812F4006F04
:1012BC0004D1602B02D0202384F83D30002323631B
:1012CC0084F83E3023685A6812F4006F47D05A688D
:1012DC0022F400625A60636B93F82120012A20D01B
:1012EC00424A5A63606BFFF727F8002849D02268FE
:1012FC00136823F001031360202384F83D30606BE6
:10130C00436B98473DE0222BCAD101680A6822F44E
:10131C0000620A60C4E700232363282384F83D306D
:10132C00D0E7A36B314A5A63A06BFFF705F840B3C3
:10133C0023685A6912F0400F05D01A69636A1A7053
:10134C00636A013363622268136823F0010313603C
:10135C00202384F83D30A06B436B984711E094F840
:10136C003D20D2B2602A16D05A6912F0400F05D037
:10137C001A69636A1A70636A013363622046FFF765
:10138C003DFF94F83D30DBB2226C12F0040F01D01B
:10139C00282B18D010BD202284F83D200022226476
:1013AC005A6912F0400F05D01A69636A1A70636AA1
:1013BC00013363622268136823F001031360204633
:1013CC00FFF71DFFDDE72268536823F4E0635360E9
:1013DC00074BE36200232363202284F83D2084F82A
:1013EC003E302046FFF7EAFCD4E700BF0D120008A0
:1013FC000000FFFF30B583B0044690F83D50EDB2CD
:10140C000268536823F4E06353600023019303687C
:10141C005A6901921A6842F001021A60019B026833
:10142C00136823F48063136003685A6812F4006F26
:10143C0038D0222D21D02A2D1FD0426B1268526831
:10144C0092B24285428D92B21AB1026C42F0040201
:10145C0002645A6822F400625A60606BFFF75AF813
:10146C0001281FD0636B434A5A63606BFEF764FF1D
:10147C00C0B1606B436B984714E0A26B1268526862
:10148C0092B26285628D92B21AB1226C42F0040261
:10149C0022645A6822F400625A60A06BFFF73AF893
:1014AC00012840D1638D9BB223B323685A6912F093
:1014BC00040F09D01A69636A1A70636A0133636294
:1014CC00638D013B9BB2638523685A6912F0400F10
:1014DC0009D01A69636A1A70636A01336362638D97
:1014EC00013B9BB26385638D9BB21BB1236C43F0B4
:1014FC0004032364236C13BB2A2D25D094F83D30B0
:10150C00DBB2282B29D0236B222B01D0222D19D111
:10151C0000232363202284F83D2084F83E302046AB
:10152C00FFF7FEFB0EE0A36B124A5A63A06BFEF7AB
:10153C0003FF0028B6D0A06B436B9847B2E7204658
:10154C00FFF7A4FE03B030BD00232363282384F8E7
:10155C003D302046FFF7E4FBD0E7074BE362002366
:10156C002363202284F83D2084F83E302046FFF788
:10157C0025FCE7E70D1200080000FFFF70B50446DC
:10158C0002685568C66A90F83E30DBB290F83D10A0
:10159C00102B14D0C8B2402B11D0236C002B71D05F
:1015AC005369002113F0020F6FD015F4007F6CD03B
:1015BC00236C03B191692046FFF7D9FB70BD90698C
:1015CC00536913F0010105D1B6F52A0FF6D0B6F127
:1015DC002A4FF3D011B115F4007F25D113F0080F69
:1015EC0002D015F4007F26D113F0020F02D015F4AF
:1015FC00007F24D110F0040F29D0526812F4006F30
:10160C00DCD113F0800F05D015F4806F02D013F0ED
:10161C00040F18D013F0040FD0D015F4007FCDD0E8
:10162C002046FFF7BCFCC9E72046FFF707FA204627
:10163C00FFF76DF8C2E72046FFF7C0F8BEE720467B
:10164C00FFF7D3F8BAE72046FFF705FCB6E7526878
:10165C0012F4006FB2D113F0400F05D015F4806F67
:10166C0002D013F0040F09D013F0040FA6D015F418
:10167C00007FA3D02046FFF732FD9FE72046FFF7FF
:10168C00DDFC9BE7916953698CE713F0100F02D0D6
:10169C0015F4007F17D1212819D0292817D013F061
:1016AC00400F05D015F4806F02D013F0040F27D033
:1016BC0013F0040F82D015F4007F3FF47FAF204667
:1016CC00FFF7ADF97AE72046FFF794FE76E713F0C3
:1016DC00800F05D015F4806F02D013F0040F0BD0DF
:1016EC0013F0040F3FF46AAF15F4007F3FF466AFBC
:1016FC002046FFF785F961E72046FFF7ECFA5DE736
:10170C002046FFF70EFB59E7F8B5044603685D6900
:10171C005F6815F4807F0CD017F4807F40D06FF495
:10172C0080725A610268136843F400431360012607
:10173C0000E0002615F4007F08D017F4807F05D058
:10174C0046F0020623686FF400725A6115F4806F3C
:10175C0018D017F4807F15D094F83E30DBB2628D30
:10176C0091B294F83D20D2B2206B202B1AD0236872
:10177C006FF480625A6146F0040694F83E30DBB296
:10178C00102B1DD015F4006F08D017F4807F05D0F6
:10179C0046F0080623686FF400625A61B6B9F8BDCA
:1017AC000026C7E70029E2D1212A05D0292A03D037
:1017BC00282ADCD12128DAD12046FFF701FBE1E70A
:1017CC002268136843F400731360DBE7236C1E4339
:1017DC0026642046FFF75AFDE1E790F83D0070477C
:1017EC0082B0084B1B68084AA2FB03235B0A00FB70
:1017FC0003F0019000BF019B5A1E0192002BF9D1FE
:10180C0002B0704714000020D34D6210002800F085
:10181C00F58170B582B00446036813F0010F2CD02B
:10182C00AB4B5B6803F00C03042B1DD0A84B5B681F
:10183C0003F00C03082B12D06368B3F5803F41D042
:10184C00002B55D103F1804303F504331A6822F4BD
:10185C0080321A601A6822F480221A6037E09C4B9E
:10186C005B6813F4803FE7D0994B1B6813F4003F7F
:10187C0003D06368002B00F0C381236813F0020FC0
:10188C0076D0934B5B6813F00C0F5FD0904B5B687A
:10189C0003F00C03082B54D02369002B00F08A8032
:1018AC008C4B01221A60FEF78DFC0546884B1B6899
:1018BC0013F0020F75D1FEF785FC401B0228F5D9F9
:1018CC000320A0E1824A136843F4803313606368F9
:1018DC0043B3FEF777FC05467D4B1B6813F4003FC2
:1018EC00CBD1FEF76FFC401B6428F5D903208AE1AD
:1018FC00B3F5A02F09D0764B1A6822F480321A6007
:10190C001A6822F480221A60E1E703F18043A3F500
:10191C003C331A6842F480221A601A6842F480320E
:10192C001A60D4E7FEF74EFC0546694B1B6813F4AE
:10193C00003FA2D0FEF746FC401B6428F5D90320DB
:10194C0061E1634B5B6813F4803FA5D1604B1B686E
:10195C0013F0020F04D02369012B01D0012052E1B6
:10196C005B4A136823F0F803616943EAC10313600F
:10197C00236813F0080F32D0A369002B5BD0564BB1
:10198C0001221A60FEF71EFC0546514B5B6A13F0F0
:10199C00020F21D1FEF716FC401B0228F5D90320BB
:1019AC0031E14B4A136823F0F803616943EAC10340
:1019BC001360DDE7474B00221A60FEF703FC054677
:1019CC00434B1B6813F0020FD2D0FEF7FBFB401BFE
:1019DC000228F5D9032016E10120FFF701FF236847
:1019EC0013F0040F00F09880394BDB6913F0805F23
:1019FC0033D1374BDA6942F08052DA61DB6903F09C
:101A0C0080530193019B0125344B1B6813F4807F99
:101A1C0025D0E368012B36D0002B4CD103F1804349
:101A2C0003F504331A6A22F001021A621A6A22F0D0
:101A3C0004021A622CE0284B00221A60FEF7C2FB4B
:101A4C000546234B5B6A13F0020FC8D0FEF7BAFBB6
:101A5C00401B0228F5D90320D5E00025D4E71F4A06
:101A6C00136843F480731360FEF7ACFB06461B4B04
:101A7C001B6813F4807FCCD1FEF7A4FB801B642879
:101A8C00F5D90320BFE0124A136A43F00103136235
:101A9C00E3687BB3FEF796FB06460D4B1B6A13F00F
:101AAC00020F38D1FEF78EFB801B41F2883398422F
:101ABC00F3D90320A7E0052B12D0054B1A6A22F0AC
:101ACC0001021A621A6A22F004021A62E0E700BFED
:101ADC00001002400000424280044242007000406C
:101AEC004C4B1A6A42F004021A621A6A42F0010262
:101AFC001A62CDE7FEF766FB0646464B1B6A13F0EF
:101B0C00020F08D0FEF75EFB801B41F2883398422F
:101B1C00F3D9032077E0E5B9E369002B72D03D4A95
:101B2C00526802F00C02082A56D0022B17D03A4BFE
:101B3C0000221A60FEF746FB0446364B1B6813F076
:101B4C00007F47D0FEF73EFB001B0228F5D903208F
:101B5C0059E0304AD36923F08053D361DCE72E4B34
:101B6C0000221A60FEF72EFB05462A4B1B6813F069
:101B7C00007F06D0FEF726FB401B0228F5D9032078
:101B8C0041E0236AB3F5803F1AD022494B6823F415
:101B9C007413226A606A024313434B601E4B01228A
:101BAC001A60FEF70FFB04461A4B1B6813F0007FFC
:101BBC000ED1FEF707FB001B0228F5D9032022E00B
:101BCC00144A536823F40033A1680B435360DCE7D9
:101BDC00002018E0002016E0012B16D00D4B5B689E
:101BEC0003F48031226A914201D001200BE003F40E
:101BFC007013626A93420AD0012004E001207047FE
:101C0C00012000E0002002B070BD0120FBE70020A5
:101C1C00F9E700BF001002406000424210B487B0E8
:101C2C00164C94E80F000DF1180C0CE90F00238AE8
:101C3C00ADF80430124B5B6803F00C02082A1AD181
:101C4C00C3F38342624412F8102C13F4803F05D185
:101C5C000C4800FB02F007B010BC7047084B5B68E7
:101C6C00C3F34043634413F8143C074800FB02F0F1
:101C7C00B0FBF3F0EFE70448EDE700BF203D0008B0
:101C8C000010024000093D0000127A00002800F00C
:101C9C00A38070B50446524B1B6803F007038B42BC
:101CAC000CD24F4A136823F007030B4313601368DD
:101CBC0003F007038B4201D0012070BD236813F0A1
:101CCC00020F17D013F0040F04D0464A536843F4A4
:101CDC00E0635360236813F0080F04D0414A536843
:101CEC0043F4605353603F4A536823F0F003A068F9
:101CFC00034353600D46236813F0010F31D0636822
:101D0C00012B20D0022B25D0364A126812F0020F7C
:101D1C0064D034494A6822F0030213434B60FEF747
:101D2C0051FA06462F4B5B6803F00C036268B3EB69
:101D3C00820F16D0FEF746FA801B41F28833984288
:101D4C00F0D90320B9E7274A126812F4003FE0D11A
:101D5C000120B2E7234A126812F0007FD9D101208A
:101D6C00ABE71F4B1B6803F00703AB420CD91C4AB3
:101D7C00136823F007032B431360136803F0070366
:101D8C00AB4201D0012098E7236813F0040F06D072
:101D9C00144A536823F4E063E1680B4353602368EF
:101DAC0013F0080F07D00F4A536823F460532169CE
:101DBC0043EAC1035360FFF731FF0A4B5B68C3F37F
:101DCC000313094AD35CD840084B1860084B1868B9
:101DDC00FEF7B6F9002070E70120704701206CE790
:101DEC000020024000100240803F00081400002038
:101DFC0004000020014B1868704700BF140000203D
:101E0C0008B5FFF7F7FF044B5B68C3F30223034AE3
:101E1C00D35CD84008BD00BF00100240903F0008C2
:101E2C0008B5FFF7E7FF044B5B68C3F3C223034A13
:101E3C00D35CD84008BD00BF00100240903F0008A2
:101E4C0010B4036A046A24F001040462846924F067
:101E5C00F00444EA021223F00A030B43826103628A
:101E6C0010BC704710B4036A23F01003036284693A
:101E7C00036A24F4704444EA023223F0A00343EAD8
:101E8C0001138261036210BC7047836823F07003F6
:101E9C00194341F00701816070470268D36843F031
:101EAC000103D3600268936803F00703062B03D089
:101EBC00136843F0010313600020704770477047AC
:101ECC00704710B5044603681A6912F0020F11D05E
:101EDC00DA6812F0020F0DD06FF002021A610123C2
:101EEC00037703689B6913F0030F70D001F038F887
:101EFC000023237723681A6912F0040F12D0DA68D2
:101F0C0012F0040F0ED06FF004021A610223237733
:101F1C0023689B6913F4407F5FD0204601F020F8C2
:101F2C000023237723681A6912F0080F12D0DA689D
:101F3C0012F0080F0ED06FF008021A6104232377F9
:101F4C002368DB6913F0030F4ED0204601F008F82C
:101F5C000023237723681A6912F0100F12D0DA6865
:101F6C0012F0100F0ED06FF010021A6108232377B5
:101F7C002368DB6913F4407F3DD0204600F0F0FF6E
:101F8C000023237723681A6912F0010F03D0DA6853
:101F9C0012F0010F36D123681A6912F0800F03D0AA
:101FAC00DA6812F0800F34D123681A6912F0400FEE
:101FBC0003D0DA6812F0400F32D123681A6912F09C
:101FCC00200F03D0DA6812F0200F30D110BDFFF7CC
:101FDC0075FF2046FFF773FF8AE72046FFF76EFF79
:101FEC002046FFF76CFF9BE72046FFF767FF204674
:101FFC00FFF765FFACE72046FFF760FF2046FFF7D1
:10200C005EFFBDE76FF001021A61204600F080FF11
:10201C00C1E76FF080021A61204600F096F9C3E721
:10202C006FF040021A612046FFF74AFFC5E76FF0D8
:10203C0020021A61204600F087F9C7E790F83D00AE
:10204C007047000003681B4A90420AD0B0F1804FE1
:10205C0007D0A2F59432904203D002F580629042F0
:10206C0003D123F070034A681343124A90420AD0FA
:10207C00B0F1804F07D0A2F59432904203D002F514
:10208C008062904203D123F44073CA68134323F057
:10209C0080034A69134303608B68C3620B688362D5
:1020AC00044B984202D00123436170470B690363D0
:1020BC00F9E700BF002C0140A8B110B5044690F818
:1020CC003D305BB1022384F83D30211D2068FFF7C1
:1020DC00B9FF012384F83D30002010BD80F83C305E
:1020EC0001F0B6F8EEE701207047002849D0F8B5AA
:1020FC0005460C4690F83D30002B3DD0022385F868
:10210C003D30294651F8042B936823F4804323F087
:10211C00070393602868FFF795FF29688A688E6922
:10212C000F6A2068104326F4407626F00306A26856
:10213C00A36942EA0323334323F47C4323F0FC03D7
:10214C00E668E26946EA02261E43226A1303226904
:10215C0043EA0213334327F022076268646942EAB8
:10216C0004123A43886029688B612B681A62012338
:10217C0085F83D300020F8BD80F83C3001F034F893
:10218C00BCE70120704710B4846824F47F4442EA11
:10219C0003230B432343836010BC704790F83C30FF
:1021AC00012B66D010B50446012380F83C30022385
:1021BC0080F83D300268936823F47F4323F0770363
:1021CC0093600B68402B4AD013D9602B3DD01ED99D
:1021DC00702B28D0B3F5005F30D1CB684A68896882
:1021EC000068FFF7D0FF2268936843F48043936044
:1021FC0024E0102B06D004D9202B03D0302B01D097
:10220C001CE0DBB919462068FFF73FFE16E0502BA7
:10221C0014D1CA6849680068FFF712FE5021206883
:10222C00FFF733FE0AE0CB684A6889680068FFF75D
:10223C00AAFF2268936843F077039360012384F824
:10224C003D30002084F83C0010BDCA684968006825
:10225C00FFF708FE60212068FFF717FEEEE7CA685B
:10226C0049680068FFF7ECFD40212068FFF70DFE80
:10227C00E4E70220704710B401F01F01012303FAB8
:10228C0001F4036A23EA04030362036A8A401343DA
:10229C00036210BC704710B50446B1B1042925D0B7
:1022AC00012200210068FFF7E6FF012204212068CB
:1022BC00FFF7E1FF2268D36843F00203D360226882
:1022CC00D36843F00403D36009E0012200210068C5
:1022DC00FFF7D1FF2268D36843F00203D360226872
:1022EC00136843F001031360002010BD0122042188
:1022FC000068FFF7C0FF2268D36843F00403D36083
:10230C00EDE790F83C30012B1CD070B4012680F81E
:10231C003C60022380F83D3002685568936825F0D4
:10232C0070050C682C4323F080054B682B435460DC
:10233C000268936080F83D60002380F83C301846BA
:10234C0070BC704702207047704770470268D368B2
:10235C0023F49073D3600268536923F00103536133
:10236C00202380F83A30704790F83930DBB2212BBB
:10237C002AD18368B3F5805F16D0036A5A1C0262B7
:10238C001A7803685A60C38C013B9BB2C384EBB9C7
:10239C000268D36823F08003D3600268D36843F0EB
:1023AC004003D36000207047036A1B880268C3F3A4
:1023BC000803536003691BB9036A02330362E2E743
:1023CC00036A01330362DEE7022070470020704786
:1023DC0038B504460268136923F44053C1680B43B3
:1023EC00136183680269134342691A430168CB681D
:1023FC0023F4B05323F00C031343CB6002685369EE
:10240C0023F4407381690B4353610268214B9A4258
:10241C001FD0FFF7F5FC00EB800000EB8000636839
:10242C009B00B0FBF3F01C4DA5FB0032510964225C
:10243C0002FB110213013233A5FB03235B0903F0EA
:10244C00F00202EB011203F00F03216813448B60BE
:10245C0038BDFFF7E5FC00EB800000EB8000636803
:10246C009B00B0FBF3F00C4DA5FB0032510964222C
:10247C0002FB110213013233A5FB03235B0903F0AA
:10248C00F00202EB011203F00F03216813448B607E
:10249C00DEE700BF003801401F85EB5158B310B583
:1024AC00044690F839300BB3242384F83930226871
:1024BC00D36823F40053D3602046FFF789FF2268CA
:1024CC00136923F4904313612268536923F02A03A0
:1024DC0053612268D36843F40053D3600020E06357
:1024EC00202384F8393084F83A3010BD80F8383025
:1024FC0000F0CEFED8E70120704790F83930DBB2FF
:10250C00202B16D1B9B1C2B190F83830012B16D0AE
:10251C0001628284C2840023C363212280F83920A3
:10252C0080F838300168CA6842F08002CA601846E8
:10253C00704702207047012070470120704702202D
:10254C00704708B50168CB6823F04003CB602023AB
:10255C0080F8393000F040FD002008BD08B590F837
:10256C003A30DBB2222B45D18368B3F5805F0ED0B5
:10257C00036903BB03685A68836A591C81621A7029
:10258C00C38D013B9BB2C385F3B1002033E0826A5B
:10259C00036943B903685B68C3F308031380836A58
:1025AC0002338362ECE703685B68DBB21380836AF7
:1025BC0001338362E4E703685B68826A511C8162C1
:1025CC0003F07F031370DBE70268D36823F020036A
:1025DC00D3600268D36823F48073D36002685369B4
:1025EC0023F001035361202380F83A3000F002FD00
:1025FC00002000E0022008BD7047000010B5044622
:10260C0002681368D168526913F00F0005D113F0FA
:10261C00200F02D011F0200F53D1002867D012F0F8
:10262C00010202D111F4907F61D013F0010F06D09A
:10263C0011F4807F03D0E06B40F00100E06313F0F5
:10264C00040F04D01AB1E06B40F00200E06313F009
:10265C00020F04D01AB1E06B40F00400E06313F0F9
:10266C00080F04D01AB1E26B42F00802E263E26B8D
:10267C00002A48D013F0200F02D011F0200F24D1E3
:10268C0023685B6903F04003E26B12F0080F00D182
:10269C003BB32046FFF75AFE23685A6912F0400FED
:1026AC001BD05A6922F040025A61636B8BB11A4AF3
:1026BC005A63606BFDF740FE28B3606B436B984721
:1026CC0021E02046FFF74AFF1DE02046FFF746FFBA
:1026DC00D6E72046FFF790FF15E02046FFF78CFF6A
:1026EC0011E02046FFF788FF0023E3630BE013F0B3
:1026FC00800F02D011F0800F06D113F0400F02D0E2
:10270C0011F0400F04D110BD2046FFF72DFEFAE763
:10271C002046FFF716FFF6E72927000808B5406AA0
:10272C000023C385C384FFF767FF08BD70B505465A
:10273C000E46A1F13003DBB2092B39D9A1F14103CB
:10274C00DBB2192B5BD9A1F16103DBB2192B7DD95B
:10275C00A1F12103DBB20E2B40F2A0806B7B002B8E
:10276C0000F09E80FF21284600F005FA70BDA6F10E
:10277C00300303EB43035A0022444C4B995CC1F1E8
:10278C000701C9B2284600F0F6F90134E4B2022C74
:10279C00E4D86B7B002BEAD1A6F1300303EB4303A7
:1027AC005A002244414B995C284600F0E4F9ECE7CE
:1027BC000024ECE7A6F1410303EB43035A00224447
:1027CC003A4B1A4492F83C10C1F10701C9B22846A1
:1027DC0000F0D1F90134E4B2022CBFD86B7B002B92
:1027EC00E8D1A6F1410303EB43035A0022442F4BDB
:1027FC001A4492F83C10284600F0BDF9EAE7002490
:10280C00EAE7A6F1610303EB43035A002244274B8A
:10281C001A4492F8D810C1F10701C9B2284600F049
:10282C00AAF90134E4B2022C98D86B7B002BE8D1C6
:10283C00A6F1610303EB43035A0022441B4B1A44D9
:10284C0092F8D810284600F096F9EAE70024EAE757
:10285C00A6F1210303EB43035A002244134B1A4401
:10286C0092F87411C1F10701C9B2284600F083F93E
:10287C000134E4B2022C3FF671AF6B7B002BE7D135
:10288C00A6F1210303EB43035A002244074B1A44DD
:10289C0092F87411284600F06EF9E9E70024E9E794
:1028AC002021284600F067F960E700BF343D00089E
:1028BC0070B505460E46A1F13003DBB2092B3CD9AD
:1028CC00A1F14103DBB2192B60D9A1F16103DBB299
:1028DC00192B40F28480A1F12103DBB20E2B40F2C4
:1028EC00A8806B7B002B00F0A680FF21284600F00F
:1028FC0042F970BDA6F1300202EB420253002344B0
:10290C0003334F4AD15CC1F10701C9B2284600F02C
:10291C0032F90134E4B2022CE3D86B7B002BE9D101
:10292C00A6F1300202EB4202530023440333444A23
:10293C00D15C284600F01FF9EBE70024EBE7A6F189
:10294C00410202EB42025300234403333C4A13443A
:10295C0093F83C10C1F10701C9B2284600F00BF9FD
:10296C000134E4B2022CBCD86B7B002BE7D1A6F16E
:10297C00410202EB4202530023440333304A134416
:10298C0093F83C10284600F0F6F8E9E70024E9E754
:10299C00A6F1610202EB4202530023440333284A9E
:1029AC00134493F8D810C1F10701C9B2284600F0BE
:1029BC00E2F80134E4B2022C93D86B7B002BE7D104
:1029CC00A6F1610202EB42025300234403331C4A7A
:1029DC00134493F8D810284600F0CDF8E9E700240A
:1029EC00E9E7A6F1210202EB420253002344033330
:1029FC00134A134493F87411C1F10701C9B2284664
:102A0C0000F0B9F80134E4B2022C3FF66AAF6B7BEC
:102A1C00002BE6D1A6F1210202EB42025300234423
:102A2C000333074A134493F87411284600F0A3F8B3
:102A3C00E8E70024E8E72021284600F09CF858E756
:102A4C00343D0008F8B505460E4617461C461A4696
:102A5C00394600F0A7F831462846FFF767FE621C9E
:102A6C00D2B23946284600F09DF831462846FFF789
:102A7C001FFFF8BD2DE9F04180460D4617461E4656
:102A8C00002408E007EB84023346D2B24046FFF73D
:102A9C00D9FF0134E4B2295D0029F3D1BDE8F081FE
:102AAC0070B584B0044615461E460A46054901A871
:102ABC0000F012FD33462A4601A92046FFF7DAFF43
:102ACC0004B070BD983F000838B50546002409E0F5
:102ADC00064B03EB8403D3F8A421E1B2284600F0A3
:102AEC000BF90134072CF3DD38BD00BF343D000871
:102AFC0008B501230A4681790068FEF77FF808B112
:102B0C00002008BD0120FCE730B583B0044608095D
:102B1C00257B237A65F3C30362F30003DBB243F036
:102B2C00040360F30713DBB28DF8043003F0FB03EE
:102B3C008DF8053043F0040361F30713DBB28DF815
:102B4C0006306FF3820323728DF8073004230DEBEC
:102B5C000302A1792068FEF751F850B9012500E075
:102B6C0000BF2068FEF739FE2028F9D1284603B0B3
:102B7C0030BD0025F5E708B50122FFF7C5FF08BDFC
:102B8C0008B500220121FFF7BFFF0220FDF720FB53
:102B9C0008BD08B500220221FFF7B6FF0220FDF7A1
:102BAC0017FB08BD70B584B006460C4615460D4B98
:102BBC000FCB0DF1100C0CE90F007379AB4201D265
:102BCC005D1EEDB204AB03EB850555F8101C2144DA
:102BDC0049B261F07F010022C9B23046FFF794FF81
:102BEC0004B070BD683F000808B5C17A41F004011B
:102BFC00C172002241F00801FFF786FF08BD30B515
:102C0C0083B004460023ADF8043008684A6820609D
:102C1C00626023722373A372E372637363726379CA
:102C2C00012B01D908226272E2790AB1012B13D06F
:102C3C003220FDF7CDFA04F10C012046FFF758FFC6
:102C4C004FF4FA70FDF7C4FA34238DF804303023B6
:102C5C008DF80530002511E0637A43F004036372AC
:102C6C00E6E700BF2068FEF7B8FD2028F9D1022D59
:102C7C001BD00520FDF7ACFA0135EDB2022D07D8BB
:102C8C00022301AAA1792068FDF7B8FF0028E9D03A
:102C9C0024238DF8043020238DF80530022301AA5B
:102CAC00A1792068FDF7AAFF04E00120FDF790FA56
:102CBC00E2E700BF2068FEF790FD2028F9D1617A89
:102CCC00002241F020012046FFF71EFF0423A372CF
:102CDC002046FFF789FF2046FFF752FF0223E372DD
:102CEC00002206212046FFF70FFF05462046FFF77E
:102CFC0050FF284603B030BD70B50646154601F0AE
:102D0C000701C900002241F04001FFF7FDFE00243D
:102D1C0005E00122295D3046FFF7F6FE0134072C51
:102D2C00F7D970BD012901D90020704708B501738E
:102D3C00037A61F3C303014601F8083FFFF7D8FE9D
:102D4C0008BD000030B589B00024049405940694A5
:102D5C000794184B9A6942F010029A619A6902F032
:102D6C0010020192019A9A6942F004029A619A69DE
:102D7C0002F004020292029A9A6942F008029A61E5
:102D8C009B6903F008030393039B0B4D22464FF4FE
:102D9C0000512846FDF7AEFC4FF400530493012379
:102DAC00059306940223079304A92846FDF7B6FB66
:102DBC0009B030BD001002400010014008B50948B0
:102DCC00094B0360094B436000238360C3604FF4DD
:102DDC008042026143618361C3610362FDF73EFE81
:102DEC0008BD00BF1401002000540040A086010063
:102DFC0030B587B000240294039404940594009495
:102E0C0001940F4D0F4B2B604FF4FA536B60AC6079
:102E1C0040F2F313EB602C61AC612846FFF74CF9E0
:102E2C004FF48053029302A92846FFF7B7F9009498
:102E3C00019469462846FFF764FA07B030BD00BF1D
:102E4C00680100200004004008B50848084B0360E6
:102E5C004FF4E133436000238360C36003610C22B1
:102E6C0042618361C361FFF719FB08BD2C0200208E
:102E7C000044004030B58DB00024049406940894AE
:102E8C000A9401940294104D4FF080432B606C60B7
:102E9C00AC60FF23EB602C61AC61012303930593C1
:102EAC000A22079209930B9203A92846FFF71DF9F2
:102EBC000194029401A92846FFF723FA3C212846E5
:102ECC00FFF7E9F90DB030BDEC01002000B583B07F
:102EDC000E4B5A6942F001025A615B6903F001031F
:102EEC000193019B002208211020FDF797F9102077
:102EFC00FDF7C8F9002208211120FDF78FF91120E8
:102F0C00FDF7C0F903B05DF804FB00BF00100240F0
:102F1C0008B502680E4B9A4200D008BD0D490A68EC
:102F2C0001320D4BA3FB02031B0903EB8303980037
:102F3C00131A0B6033B10A2BEFD100210748FFF7AE
:102F4C00F1FEEAE701210548FFF7ECFEE5E700BFDB
:102F5C000004004098000020CDCCCCCC9C0000207C
:102F6C0008B50368B3F1804F00D008BD0948FFF7DE
:102F7C0065F80128F9D14FF400510748FDF7C0FB63
:102F8C004FF08043596A00231A460448FFF788FD26
:102F9C00EBE700BFEC010020001001409C0000207A
:102FAC000268044B9A4200D07047034A53690133BC
:102FBC005361F9E700540040980000200268044B6C
:102FCC009A4200D07047034A936901339361F9E741
:102FDC0000540040980000200268044B9A4200D034
:102FEC007047034AD3690133D361F9E700440040C9
:102FFC00980000200268044B9A4200D07047034AA4
:10300C00136A01331362F9E7004400409800002072
:10301C0010B590B02422002107A800F055FA002426
:10302C0001940294039404940594022306930123BF
:10303C000A9310230B9306A8FEF7E8FB0F230193CA
:10304C000294039404940594214601A8FEF71EFEF5
:10305C0010B010BD08B5FDF797F8FFF7D9FFFFF7D3
:10306C0071FEFFF7ABFEFFF7C3FEFFF7EDFEFFF7B8
:10307C0001FFFFF72BFF0A48FEF70FFF094C0A4927
:10308C002046FFF7BCFD2046FFF71EFD0A2207492C
:10309C000748FFF732FA01212046FFF743FEFEE70F
:1030AC00680100209C000020783F000808000020E8
:1030BC002C0200207047000082B00E4B9A6942F03F
:1030CC0001029A619A6902F001020092009ADA698F
:1030DC0042F08052DA61DB6903F080530193019B6B
:1030EC00054A536823F0E06343F08073536002B0E9
:1030FC00704700BF001002400000014030B587B09F
:10310C000023029303930493059302682F4B9A4276
:10311C0001D007B030BD04462D4DAB6943F0080318
:10312C00AB61AB6903F008030093009BC0230293CF
:10313C00122303930323059302A92648FDF7EEF906
:10314C00EB6943F40013EB61EB6903F40013019397
:10315C00019B2148214B0360002343608360802244
:10316C00C260036143618361C361FDF7AFF830BB9B
:10317C00194BA3635C621A481A4B0360102343601B
:10318C00002383608022C260036143618361C36159
:10319C00FDF79CF8B0B9124B63635C6200220C2102
:1031AC001F20FDF73BF81F20FDF76CF800220B21C8
:1031BC002020FDF733F82020FDF764F8A9E7FFF78E
:1031CC0079FFD5E7FFF776FFE5E700BF0054004035
:1031DC0000100240000C0140A801002080000240B9
:1031EC00D00000206C00024000B587B00023029391
:1031FC000393049305930368B3F1804F02D007B097
:10320C005DF804FB03F50433DA6942F00102DA617C
:10321C00DA6902F001020092009A9A6942F0040203
:10322C009A619B6903F004030193019B06A9032394
:10323C0041F8103D0548FDF771F900220F211C20C3
:10324C00FCF7ECFF1C20FDF71DF8D8E70008014047
:10325C0002680E4B9A4200D0704700B583B003F55C
:10326C000333DA6942F00202DA61DB6903F002032C
:10327C000193019B00220E211D20FCF7CFFF1D2086
:10328C00FDF700F803B05DF804FB00BF000400403C
:10329C0030B587B00023029303930493059302681F
:1032AC001B4B9A4201D007B030BD03F5E633DA6907
:1032BC0042F40032DA61DA6902F400320092009AC8
:1032CC009A6942F004029A619B6903F0040301932A
:1032DC00019B0423029302230393032305930D4DB7
:1032EC0002A92846FDF71AF9082302930024039437
:1032FC0004940DEB03012846FDF710F922460A2130
:10330C002620FCF78BFF2620FCF7BCFFCBE700BF89
:10331C0000440040000801407047FEE7FEE7FEE76E
:10332C00FEE770477047704708B5FCF73FFF08BDD4
:10333C0008B50248FDF74CF808BD00BFD0000020CE
:10334C0008B50248FDF744F808BD00BFA8010020ED
:10335C0008B50248FEF7B5FD08BD00BFEC01002022
:10336C0008B50248FEF7ADFD08BD00BF680100209E
:10337C0008B50248FEF702F908BD00BF1401002091
:10338C0008B50248FEF7C0F908BD00BF14010020C3
:10339C0008B50248FFF732F908BD00BF2C02002027
:1033AC0008B503460B4A126842B10A4A1068034436
:1033BC006A46934206D8074A136008BD054A064977
:1033CC001160F2E700F056F80C2303604FF0FF3069
:1033DC00F3E700BFBC000020700200200F4B1A68FE
:1033EC0042F001021A6059680D4A0A405A601A6884
:1033FC0022F0847222F480321A601A6822F480223D
:10340C001A605A6822F4FE025A604FF41F029A6046
:10341C00044B4FF000629A60704700BF00100240EE
:10342C000000FFF800ED00E0002103E00B4B5B58BF
:10343C00435004310A480B4B42189A42F6D30A4ABD
:10344C0002E0002342F8043B084B9A42F9D3FFF701
:10345C00C5FF00F015F8FFF7FDFD7047D83F0008D9
:10346C00000000207C0000207C0000207002002066
:10347C00FEE70000014B1868704700BF18000020E1
:10348C0070B500250C4E0D4CA41BA410A54209D1FF
:10349C0000F034FC00250A4E0A4CA41BA410A542D3
:1034AC0005D170BD56F8253098470135EEE756F832
:1034BC00253098470135F2E7D03F0008D03F00088F
:1034CC00D03F0008D43F000803460244934200D189
:1034DC00704703F8011BF9E70EB46FF0004100B51B
:1034EC009CB01DAB029006900791049108480949C5
:1034FC0053F8042B0591006802A9019300F066F8BB
:10350C000022029B1A701CB05DF804EB03B07047EC
:10351C00180000200802FFFF2DE9F0478E68824654
:10352C009E420C469046994637D88A8912F4906F81
:10353C0031D00223256809696F1A656905EB4505C9
:10354C0095FBF3F509F101033B449D4238BF1D4641
:10355C00530530D5294600F037FB064650B90C23ED
:10356C004FF0FF30CAF80030A38943F04003A38129
:10357C00BDE8F0873A46216900F0B6FAA38923F436
:10358C00906343F08003A38126613E4426604E463F
:10359C006561ED1BA5604E4500D94E46324641464D
:1035AC00206800F0ACFAA36800209B1BA360236882
:1035BC001E442660DCE72A4600F060FB0646002825
:1035CC00E2D12169504600F0B3FAC8E72DE9F04F7B
:1035DC001D468B899DB01F0680460C4616460FD59E
:1035EC000B696BB9402100F0EFFA2060206128B91B
:1035FC000C23C8F800304FF0FF30C8E04023636163
:10360C000023099320238DF8293030234FF0010B30
:10361C008DF82A30039537463D4615F8013B0BB122
:10362C00252B3ED1B7EB060A0BD05346324621462A
:10363C004046FFF771FF013000F0A480099B534412
:10364C0009933B78002B00F09D8000234FF0FF3254
:10365C00CDE90523049307938DF853301A932F4625
:10366C00052217F8011B504800F030FA049BD0B922
:10367C00D90644BF20228DF853201A0744BF2B22B1
:10368C008DF853202A782A2A15D02F4600200A2597
:10369C00079A394611F8013B303B092B4DD9B8B18B
:1036AC000FE02F46B8E7404A3D46801A0BFA00F06F
:1036BC0018430490D3E7039A111D12680391002A52
:1036CC0001DB079204E0524243F002030792049399
:1036DC003B782E2B0CD17B782A2B33D1039B0237D2
:1036EC001A1D1B680392002BB8BF4FF0FF330593D4
:1036FC002E4D03223978284600F0E8F938B14023E2
:10370C00401B03FA00F0049B013703430493397800
:10371C00062227487E1C8DF8281000F0D7F90028C7
:10372C0038D0244B13BB039B073323F00703083318
:10373C000393099B4B4409936DE705FB023201206F
:10374C000F46A6E700230A2519460137059338468C
:10375C0010F8012B303A092A03D9002BC8D0059157
:10376C00C6E705FB012101230746F0E703AB0093F5
:10377C002246114B04A94046AFF30080B0F1FF3F45
:10378C008146D6D1A3895B063FF535AF09981DB0AC
:10379C00BDE8F08F03AB00932246074B04A94046CB
:1037AC0000F082F8EAE700BF9C3F0008A23F000847
:1037BC00A63F000800000000253500082DE9F04761
:1037CC0091461F468A680B6906469342B8BF13465A
:1037DC00C9F8003091F843200C46DDF8208012B176
:1037EC000133C9F800302368990642BFD9F800307C
:1037FC000233C9F80030256815F0060507D104F12D
:10380C00190AE368D9F800209B1AAB4229DC94F81A
:10381C0043302268003318BF012392062ED404F1E2
:10382C00430239463046C047013021D02368E56851
:10383C0003F00603042B18BF0025D9F800204FF025
:10384C00000908BFAD1AA368226908BF25EAE5750F
:10385C009342C4BF9B1AED181A344D451AD100205F
:10386C0008E00123524639463046C047013003D1A7
:10387C004FF0FF30BDE8F0870135C2E73020E1188A
:10388C0081F843005A1C94F845102244023382F804
:10389C004310C4E70123224639463046C047013065
:1038AC00E6D009F10109D8E72DE9F04301F1430C09
:1038BC000C46097E85B06E291746064698460C9A2A
:1038CC0000F0B38022D8632936D00AD8002900F042
:1038DC00B980582900F0838004F1420584F8421025
:1038EC0032E0642901D06929F6D1206813680506F5
:1038FC0003F104012AD51B681160002B03DA2D2279
:10390C005B4284F843206F480A2239E0732900F0A7
:10391C009D8008D86F2920D07029DDD1236843F011
:10392C002003236003E0752917D07829D4D178239C
:10393C00654884F8453055E0136804F14205191DBB
:10394C001B68116084F8423001238CE01B6810F076
:10395C00400F116018BF1BB2CFE713682568181D04
:10396C001060280601D51B6802E06806FBD51B8891
:10397C006F2914BF0A2208225248002184F84310F0
:10398C006568002DA560C0F29580216821F00401C6
:10399C002160002B3DD1002D40F08E806546082A19
:1039AC000BD12368DB0708D5236962689A42DEBF16
:1039BC00302305F8013C05F1FF35ACEB0503236121
:1039CC00CDF800803B4603AA21463046FFF7F6FEB1
:1039DC0001304DD14FF0FF3005B0BDE8F0833948D0
:1039EC0084F84510136821681D1D1B6815600A06B4
:1039FC000BD5CA0744BF41F0200121601BB92268D6
:103A0C0022F0200222601022B7E74D0648BF9BB27D
:103A1C00EFE76546B3FBF2F102FB1133C35C05F82B
:103A2C00013D0B460029F5D1B9E713682568181D2F
:103A3C006169106028061B6801D5196002E06A06EE
:103A4C00FBD51980002365462361B9E71368191D5E
:103A5C0011601D6862680021284600F037F808B133
:103A6C00401B606063682361002384F84330A7E740
:103A7C0023692A4639463046C0470130AAD023680C
:103A8C009B0713D4E068039B9842B8BF1846A3E782
:103A9C0001234A4639463046C04701309AD0013599
:103AAC00E368039A9B1AAB42F2DCEBE7002504F1C6
:103ABC001909F5E7002BACD1037804F1420584F821
:103ACC0042306CE7AD3F0008BE3F000810B5C9B2EC
:103ADC0002449042034601D1002303E01C780130DC
:103AEC008C42F6D1184610BD10B5431E0A449142C3
:103AFC0000D110BD11F8014B03F8014FF7E78842D4
:103B0C0010B501EB020307D8421E99420AD011F8F6
:103B1C00014B02F8014FF8E78342F5D98118D21A0C
:103B2C00D34200D110BD13F8014D01F8014DF7E758
:103B3C0038B50546002943D051F8043C0C1F002B26
:103B4C00B8BFE41800F0D0F81E4A1368104633B919
:103B5C00636014602846BDE8384000F0C6B8A34244
:103B6C000BD921686218934201BF1A685B6852181E
:103B7C00226063600460EDE713465A680AB1A24202
:103B8C00FAD919685818A0420BD12068014458186A
:103B9C0082421960DED110685268014419605A6083
:103BAC00D8E702D90C232B60D4E7206821188A426D
:103BBC0001BF116852680918216062605C60C9E736
:103BCC0038BD00BFC400002070B5CD1C25F0030526
:103BDC0008350C2D38BF0C25002D064601DBA942FB
:103BEC0003D90C233360002070BD00F07DF8214A0E
:103BFC001468214691B9204C23681BB9304600F05B
:103C0C0063F820602946304600F05EF8431C24D14E
:103C1C000C233046336000F068F8E4E70B685B1B5C
:103C2C0018D40B2B0FD90B60CC18CD50304600F0AC
:103C3C005CF804F10B00231D20F00700C31AD3D04D
:103C4C005A42E250D0E74B688C4216BF6360136057
:103C5C000C46EBE70C464968CCE7C41C24F0030483
:103C6C00A04205D0211A304600F02EF80130CFD0FA
:103C7C002560DBE7C4000020C8000020F8B507462B
:103C8C0014460E4621B9BDE8F8401146FFF79CBF1B
:103C9C0022B9FFF74DFF25462846F8BD00F026F85F
:103CAC00A0420FD221463846FFF78EFF054600286A
:103CBC00F2D031462246FFF717FF31463846FFF760
:103CCC0037FFE9E73546E7E738B50023054C0546ED
:103CDC0008462360FFF764FB431C02D1236803B141
:103CEC002B6038BD6C0200207047704751F8043CC3
:103CFC00181F002BBCBF0B58C0187047F8B500BF7D
:103D0C00F8BC08BC9E467047F8B500BFF8BC08BCB0
:043D1C009E46704708
:103D200002030405060708090A0B0C0D0E0F1010FC
:103D30000102000001020307010601030000070061
:103D40000202030705050202030505070300030439
:103D50000407030202050507030202070507020222
:103D60000300000703020307050703020305050715
:103D70000302030704070302030705030302020704
:103D80000101030201070106030202070505030200
:103D900002070404030202070107030003070407E4
:103DA00002030201070102020303010703000307E4
:103DB00004050300000701010301030704070302D0
:103DC00003070007030203070107030203070404B4
:103DD00003020304040703020307040303020205AA
:103DE00005070203020007000300030701070300A1
:103DF0000306010603000307060703000303040389
:103E00000300030407040202030305010202010286
:103E10000507030100070106010202060101000176
:103E2000030601070102010605050001020407045B
:103E3000010201010506030100070007000200005E
:103E4000070000000203010603000107040303004A
:103E5000000601010303010704070302010700072D
:103E6000010201060106030201070400010203002A
:103E7000040701020207000001020201050201031A
:103E80000100060103000306010703000306010603
:103E900003000306070703000303040303000301F1
:103EA00005060202030305010700000100000707E1
:103EB00000000000000600000300040600000306E6
:103EC00009060400030000060000030000060000CD
:103ED0000300000600000300483F00083C3F0008C4
:103EE000303F0008243F0008183F00080C3F00083E
:103EF000043F0008F83E00081F1F1F1F1F1F1F1F41
:103F0000000000001F1F1F1F1F4040001F1F1F40F9
:103F1000401F1F1F000000001F1F1F404040404067
:103F2000000000004040401F1F1F1F1F0000000036
:103F30004040401F1F4040400000000040404040C3
:103F4000401F1F1F000000004040404040404040D4
:103F500000000000303132333435363738394142D1
:103F600043444546000000000000000040000000FF
:103F700014000000540000001401002014044E003E
:103F80000000000000000000010203040607080909
:103F9000000000000102030425640000232D302BE3
:103FA0002000686C4C00656667454647003031323A
:103FB0003334353637383941424344454600303191
:103FC00032333435363738396162636465660000F0
:043FD00031010008B3
:043FD4000D010008D3
:103FD80001000000100000006419272F5F104E0830
:103FE800626D00000024F4001C00002000000000A6
:103FF80000000000000000000000000000000000B9
:1040080000000000000000000000000000000000A8
:104018000000000000000000000000000000000098
:104028000000000000000000000000000000000088
:104038000000000000000000000000000000000078
:0C4048000000000000000000000000006C
:040000050800343586
:00000001FF
