:020000040800F2
:100000000050002071CC0008A57D0008B17D0008DB
:10001000B77D0008BD7D0008C37D0008000000001A
:10002000000000000000000000000000C97D000882
:10003000D57D000800000000E17D0008ED7D00088E
:10004000B9CC0008B9CC0008B9CC0008B9CC00087C
:10005000B9CC0008B9CC0008B9CC0008B9CC00086C
:10006000B9CC0008B9CC0008F97D0008097E000869
:10007000B9CC0008B9CC00081D7E0008317E00080C
:10008000B9CC0008B9CC0008B9CC0008B9CC00083C
:10009000B9CC0008B9CC0008B9CC0008B9CC00082C
:1000A000B9CC0008457E0008B9CC0008B9CC0008DE
:1000B000597E0008B9CC00086D7E0008B9CC000854
:1000C000B9CC0008817E0008B9CC0008B9CC000882
:1000D000B9CC0008957E0008B9CC0008B9CC00085E
:1000E000B9CC0008B9CC0008B9CC00080000000069
:1000F0000000000000000000000000000000000000
:0C01000000000000000000005FF808F1A3
:1001100010B5054C237833B9044B13B10448AFF341
:1001200000800123237010BD180200200000000091
:10013000D8D5000808B5034B1BB103490348AFF3FA
:10014000008008BD000000001C020020D8D5000877
:1001500081F0004102E000BF83F0004330B54FEA78
:1001600041044FEA430594EA050F08BF90EA020FE5
:100170001FBF54EA000C55EA020C7FEA645C7FEA78
:10018000655C00F0E2804FEA5454D4EB5555B8BF9B
:100190006D420CDD2C4480EA020281EA030382EA0C
:1001A000000083EA010180EA020281EA0303362D9E
:1001B00088BF30BD11F0004F4FEA01314FF4801C71
:1001C0004CEA113102D0404261EB410113F0004F83
:1001D0004FEA03334CEA133302D0524263EB43033A
:1001E00094EA050F00F0A780A4F10104D5F1200ED8
:1001F0000DDB02FA0EFC22FA05F2801841F1000133
:1002000003FA0EF2801843FA05F359410EE0A5F106
:1002100020050EF1200E012A03FA0EFC28BF4CF037
:10022000020C43FA05F3C01851EBE37101F00045ED
:1002300007D54FF0000EDCF1000C7EEB00006EEBFA
:100240000101B1F5801F1BD3B1F5001F0CD3490884
:100250005FEA30004FEA3C0C04F101044FEA4452DB
:1002600012F5800F80F09A80BCF1004F08BF5FEA62
:10027000500C50F1000041EB045141EA050130BD42
:100280005FEA4C0C404141EB010111F4801FA4F1E5
:100290000104E9D191F0000F04BF01460020B1FA3A
:1002A00081F308BF2033A3F10B03B3F120020CDA72
:1002B0000C3208DD02F1140CC2F10C0201FA0CF050
:1002C00021FA02F10CE002F11402D8BFC2F1200CB5
:1002D00001FA02F120FA0CFCDCBF41EA0C0190406B
:1002E000E41AA2BF01EB0451294330BD6FEA0404B4
:1002F0001F3C1CDA0C340EDC04F11404C4F120029F
:1003000020FA04F001FA02F340EA030021FA04F3B0
:1003100045EA030130BDC4F10C04C4F1200220FA07
:1003200002F001FA04F340EA0300294630BD21FA45
:1003300004F0294630BD94F0000F83F4801306BF0B
:1003400081F480110134013D4EE77FEA645C18BFFF
:100350007FEA655C29D094EA050F08BF90EA020F96
:1003600005D054EA000C04BF1946104630BD91EA8E
:10037000030F1EBF0021002030BD5FEA545C05D191
:100380004000494128BF41F0004130BD14F58004D0
:100390003CBF01F5801130BD01F0004545F0FE4144
:1003A00041F470014FF0000030BD7FEA645C1ABF79
:1003B000194610467FEA655C1CBF0B46024650EAB0
:1003C000013406BF52EA033591EA030F41F40021DC
:1003D00030BD00BF90F0000F04BF0021704730B562
:1003E0004FF4806404F132044FF000054FF0000137
:1003F00050E700BF90F0000F04BF0021704730B5F8
:100400004FF4806404F1320410F0004548BF4042CC
:100410004FF000013EE700BF42004FEAE2014FEA21
:1004200031014FEA02701FBF12F07F4393F07F4FFC
:1004300081F06051704732F07F4208BF704793F0FF
:100440007F4F04BF41F40021704730B54FF4607412
:1004500001F0004521F000411CE700BF50EA010215
:1004600008BF704730B54FF000050AE050EA0102BE
:1004700008BF704730B511F0004502D5404261EB2E
:1004800041014FF4806404F132045FEA915C3FF46F
:10049000D8AE4FF003025FEADC0C18BF03325FEA0C
:1004A000DC0C18BF033202EBDC02C2F1200300FABD
:1004B00003FC20FA02F001FA03FE40EA0E0021FAE2
:1004C00002F11444BDE600BF70B54FF0FF0C4CF4D0
:1004D000E06C1CEA11541DBF1CEA135594EA0C0F82
:1004E00095EA0C0F00F0DEF82C4481EA030621EABD
:1004F0004C5123EA4C5350EA013518BF52EA0335F8
:1005000041F4801143F4801338D0A0FB02CE4FF0A9
:100510000005E1FB02E506F00042E0FB03E54FF0D9
:100520000006E1FB03569CF0000F18BF4EF0010ED1
:10053000A4F1FF04B6F5007F64F5407404D25FEACD
:100540004E0E6D4146EB060642EAC62141EA555180
:100550004FEAC52040EA5E504FEACE2EB4F1FD0CC2
:1005600088BFBCF5E06F1ED8BEF1004F08BF5FEA40
:10057000500E50F1000041EB045170BD06F00046F2
:1005800046EA010140EA020081EA0301B4EB5C049F
:10059000C2BFD4EB0C0541EA045170BD41F4801197
:1005A0004FF0000E013C00F3AB8014F1360FDEBFBC
:1005B000002001F0004170BDC4F10004203C35DA98
:1005C0000C341BDC04F11404C4F1200500FA05F31B
:1005D00020FA04F001FA05F240EA020001F00042BC
:1005E00021F0004110EBD37021FA04F642EB060132
:1005F0005EEA430E08BF20EAD37070BDC4F10C045C
:10060000C4F1200500FA04F320FA05F001FA04F21F
:1006100040EA020001F0004110EBD37041F100010B
:100620005EEA430E08BF20EAD37070BDC4F1200516
:1006300000FA05F24EEA020E20FA04F301FA05F27E
:1006400043EA020321FA04F001F0004121FA04F226
:1006500020EA020000EBD3705EEA430E08BF20EAF6
:10066000D37070BD94F0000F0FD101F00046400030
:1006700041EB010111F4801F08BF013CF7D041EAB2
:10068000060195F0000F18BF704703F000465200B6
:1006900043EB030313F4801F08BF013DF7D043EA87
:1006A0000603704794EA0C0F0CEA135518BF95EA3D
:1006B0000C0F0CD050EA410618BF52EA4306D1D1C4
:1006C00081EA030101F000414FF0000070BD50EAE3
:1006D000410606BF1046194652EA430619D094EA6D
:1006E0000C0F02D150EA013613D195EA0C0F05D157
:1006F00052EA03361CBF104619460AD181EA0301AB
:1007000001F0004141F0FE4141F470014FF0000062
:1007100070BD41F0FE4141F4780170BD70B54FF0FD
:10072000FF0C4CF4E06C1CEA11541DBF1CEA13557D
:1007300094EA0C0F95EA0C0F00F0A7F8A4EB05045F
:1007400081EA030E52EA03354FEA013100F0888056
:100750004FEA03334FF0805545EA131343EA12631F
:100760004FEA022245EA111545EA10654FEA0026D4
:100770000EF000419D4208BF964244F1FD0404F58D
:10078000407402D25B084FEA3202B61A65EB0305E9
:100790005B084FEA32024FF480104FF4002CB6EBA6
:1007A000020E75EB030E22BFB61A754640EA0C0026
:1007B0005B084FEA3202B6EB020E75EB030E22BF66
:1007C000B61A754640EA5C005B084FEA3202B6EBA7
:1007D000020E75EB030E22BFB61A754640EA9C0066
:1007E0005B084FEA3202B6EB020E75EB030E22BF36
:1007F000B61A754640EADC0055EA060E18D04FEAF4
:10080000051545EA16754FEA06164FEAC30343EA93
:1008100052734FEAC2025FEA1C1CC0D111F4801F60
:100820000BD141EA00014FF000004FF0004CB6E759
:1008300011F4801F04BF01430020B4F1FD0C88BFF8
:10084000BCF5E06F3FF6AFAEB5EB030C04BFB6EB03
:10085000020C5FEA500C50F1000041EB045170BDF6
:100860000EF0004E4EEA113114EB5C04C2BFD4EB23
:100870000C0541EA045170BD41F480114FF0000EA7
:10088000013C90E645EA060E8DE60CEA135594EA23
:100890000C0F08BF95EA0C0F3FF43BAF94EA0C0F26
:1008A0000AD150EA01347FF434AF95EA0C0F7FF49B
:1008B00025AF104619462CE795EA0C0F06D152EAEF
:1008C00003353FF4FDAE1046194622E750EA4106D3
:1008D00018BF52EA43067FF4C5AE50EA41047FF4E4
:1008E0000DAF52EA43057FF4EBAE12E74FF0FF3C49
:1008F00006E000BF4FF0010C02E000BF4FF0010C1A
:100900004DF804CD4FEA410C7FEA6C5C4FEA430C92
:1009100018BF7FEA6C5C1BD001B050EA410C0CBFE1
:1009200052EA430C91EA030F02BF90EA020F002043
:10093000704710F1000F91EA030F58BF994208BFAA
:1009400090422CBFD8176FEAE37040F00100704767
:100950004FEA410C7FEA6C5C02D150EA013C07D1BE
:100960004FEA430C7FEA6C5CD6D152EA033CD3D009
:100970005DF8040B704700BF8446104662468C4603
:100980001946634600E000BF01B5FFF7B7FF002836
:1009900048BF10F1000F01BD4DF808EDFFF7F4FF5F
:1009A0000CBF012000205DF808FB00BF4DF808EDEA
:1009B000FFF7EAFF34BF012000205DF808FB00BF0D
:1009C0004DF808EDFFF7E0FF94BF012000205DF82F
:1009D00008FB00BF4DF808EDFFF7CEFF94BF0120E4
:1009E00000205DF808FB00BF4DF808EDFFF7C4FFDD
:1009F00034BF012000205DF808FB00BF4A0011D27F
:100A000012F5001211D20DD56FF47873B3EB625268
:100A10000ED44FEAC12343F0004343EA505323FA74
:100A200002F070474FF00000704750EA013002D1E9
:100A30004FF0FF3070474FF0000070477BB972B93C
:100A40000029BEBF00204FF0004106E008BF00288B
:100A50001CBF6FF000414FF0FF3000F0A7B9ADF1BF
:100A6000080C6DE904CE002909DB002B1ADB00F02D
:100A700035F8DDF804E0DDE9022304B070474042B8
:100A800061EB4101002B1BDB00F028F8DDF804E0EE
:100A9000DDE9022304B0404261EB4101524263EBC5
:100AA00043037047524263EB430300F017F8DDF84D
:100AB00004E0DDE9022304B0404261EB41017047EC
:100AC000524263EB430300F009F8DDF804E0DDE98E
:100AD000022304B0524263EB430370472DE9F04711
:100AE0008C460446089E002B4BD18A42154667D996
:100AF000B2FA82F24AB1C2F1200701FA02F320FAF7
:100B000007F7954047EA030C94404FEA154EBCFBAB
:100B1000FEF71FFA85F80EFB17C307FB08F9210C37
:100B200041EA0343994509D9EB1807F1FF3180F0F9
:100B30001C81994540F21981023F2B44A3EB090324
:100B4000B3FBFEF00EFB103300FB08F1A4B244EA45
:100B50000344A14209D92C1900F1FF3380F0078129
:100B6000A14240F2048102382C4440EA07400027A9
:100B7000641A1EB10023D440C6E900433946BDE8DB
:100B8000F0878B4209D9002E00F0EC800027C6E9DF
:100B9000000138463946BDE8F087B3FA83F7002FE5
:100BA00048D18B4202D3824200F2FB80841A61EB6F
:100BB000030301209C46002EE0D0C6E9004CDDE78F
:100BC00002B9FFDEB2FA82F2002A40F08F800127DC
:100BD000491B4FEA15481FFA85F9B1FBF8FE08FBDF
:100BE0001E1109FB0EF04FEA144C4CEA01439842E7
:100BF00007D9EB180EF1FF3102D2984200F2CD80F6
:100C00008E461B1AB3FBF8F008FB103309FB00F902
:100C1000A4B244EA0344A14507D92C1900F1FF33DB
:100C200002D2A14500F2B6801846A4EB090440EABE
:100C30000E409EE7C7F12005BB4022FA05FC4CEAB6
:100C4000030C21FA05F44FEA1C4EB4FBFEF91FFA1F
:100C50008CF80EFB194420FA05F3B94009FB08FA99
:100C600019430B0C43EA0444A24502FA07F200FAC6
:100C700007F30BD91CEB040409F1FF3080F08880E6
:100C8000A24540F28580A9F102096444A4EB0A045C
:100C9000B4FBFEF00EFB104400FB08FA89B241EAF7
:100CA0000444A24508D91CEB040400F1FF316BD2C7
:100CB000A24569D90238644440EA0940A0FB028990
:100CC000A4EB0A044C454146CE4654D351D0002EE5
:100CD00069D05A1A64EB0E0404FA05F522FA07F3F8
:100CE000FC401D43C6E90054002747E79540C2F188
:100CF000200321FA03F04FEA1548B0FBF8F71FFA7A
:100D000085F908FB170024FA03F3914007FB09FC5F
:100D10000B43190C41EA00418C4504FA02F407D94F
:100D2000691807F1FF3031D28C452FD9023F294491
:100D3000A1EB0C01B1FBF8F008FB101C00FB09FE55
:100D400099B241EA0C418E4507D9691800F1FF3389
:100D500018D28E4516D902382944A1EB0E0140EA7B
:100D600007473AE73746304608E70F46E6E61846B3
:100D7000FBE64345ABD2B8EB020169EB0C0201384C
:100D80009646A4E71846E8E7084695E70746CFE702
:100D900081467BE702382C4447E7AEF1020E2B4434
:100DA0002FE7384607E73746E8E600BF704700BF41
:100DB00010F8012B11F8013B012A28BF9A42F7D005
:100DC000D01A7047034613F8012B002AFBD1181ADA
:100DD0000138704780B500AF084B1B68074A43F0E5
:100DE00010031360032000F03FFE012000F008F81C
:100DF00006F03EFD0023184680BD00BF00200240E3
:100E000080B582B000AF7860124B1A68124B1B7825
:100E100019464FF47A73B3FBF1F3B2FBF3F31846C0
:100E200000F057FE0346002B01D001230EE07B6843
:100E30000F2B0AD8002279684FF0FF3000F01FFE18
:100E4000064A7B681360002300E001231846083738
:100E5000BD4680BDBC000020040000200000002032
:100E600080B400AF054B1B781A46054B1B68134432
:100E7000034A136000BFBD4680BC704704000020D9
:100E80006804002080B400AF024B1B681846BD46C2
:100E900080BC70476804002080B586B000AF7860E1
:100EA0000023FB7500233B610023BB600023FB6034
:100EB0007B68002B01D10123BEE07B689B68002B7F
:100EC0007B689B6A002B09D17B680022DA627B6811
:100ED000002283F82420786806F0FCFC786800F093
:100EE000A3FB0346FB757B689B6A03F01003002B92
:100EF00040F09980FB7D002B40F095807B689B6AD9
:100F000023F4885323F0020343F002027B689A62C1
:100F10007B685A687B68DB691A437B681B7B5B00D4
:100F20001343BA681343BB607B689B68B3F5807F4B
:100F300003D07B689B68012B02D14FF4807300E0E3
:100F400000233A6913433B617B681B7D012B19D158
:100F50007B681B7B002B09D17B689B69013B5A0393
:100F60003B69134343F400633B610BE07B689B6A7E
:100F700043F020027B689A627B68DB6A43F00102DF
:100F80007B68DA627B681B685B6823F469417B6875
:100F90001B683A690A435A607B681B689A68284B49
:100FA00013407A681268B9680B4393607B689B684A
:100FB000B3F5807F03D07B689B68012B04D17B68ED
:100FC0001B69013B1B05FB607B681B68DB6A23F424
:100FD00070017B681B68FA680A43DA627B681B68E9
:100FE0009A68184B1340BA689A420BD17B6800226A
:100FF000DA627B689B6A23F0030343F001027B689B
:101000009A6218E07B689B6A23F0120343F0100297
:101010007B689A627B68DB6A43F001027B68DA6274
:101020000123FB7507E07B689B6A43F010027B6835
:101030009A620123FB75FB7D18461837BD4680BDBB
:10104000FDF7E1FFFE0E1FFF80B584B000AF7860B2
:101050000023FB737B6893F82430012B01D102231A
:1010600098E07B68012283F82420786800F082FAF7
:101070000346FB73FB7B002B40F087807B689B6AF9
:1010800023F4407323F0010343F480727B689A6277
:101090007B681B68414A934205D1414B5B6803F46E
:1010A0007023002B15D17B689B6A23F480127B6828
:1010B0009A627B681B685B6803F48063002B26D010
:1010C0007B689B6A23F4405343F480527B689A62A6
:1010D0001DE07B689B6A43F480127B689A627B68A0
:1010E0001B682F4A934204D07B681B682B4A9342AB
:1010F0000DD12B4B5B6803F48063002B07D07B681A
:101100009B6A23F4405343F480527B689A627B6865
:101110009B6A03F48053002B06D07B68DB6A23F0C4
:1011200006027B68DA6202E07B680022DA627B6892
:10113000002283F824207B681B686FF002021A608B
:101140007B681B689B6803F46023B3F5602F13D1A1
:101150007B681B68114A934205D1114B5B6803F40D
:101160007023002B08D17B681B689A687B681B681A
:1011700042F4A0029A600CE07B681B689A687B6866
:101180001B6842F480129A6003E07B68002283F8B7
:101190002420FB7B18461037BD4680BD0028014047
:1011A0000024014080B586B000AFF860B9607A6075
:1011B0000023FB75FB681B68644A934204D0FB68FC
:1011C0001B68634A934206D1604B5B6803F470234B
:1011D000002B40F0B380FB6893F82430012B01D141
:1011E0000223AEE0FB68012283F82420F86800F0B7
:1011F000C1F90346FB75FB7D002B40F09A80FB682C
:101200009B6A23F4706323F0010343F48072FB684C
:101210009A62FB681B684E4A934205D14B4B5B6850
:1012200003F47023002B15D1FB689B6A23F4801212
:10123000FB689A62FB681B685B6803F48063002BA1
:1012400026D0FB689B6A23F4405343F48052FB682A
:101250009A621DE0FB689B6A43F48012FB689A6205
:10126000FB681B68394A934204D0FB681B68384A04
:1012700093420DD1354B5B6803F48063002B07D09C
:10128000FB689B6A23F4405343F48052FB689A62E4
:10129000FB689B6A03F48053002B06D0FB68DB6A73
:1012A00023F00602FB68DA6202E0FB680022DA62E1
:1012B000FB68002283F82420FB681B6A254A9A6297
:1012C000FB681B6A244ADA62FB681B6A234A1A63BA
:1012D000FB681B686FF002021A60FB681B689A6863
:1012E000FB681B6842F480729A60FB68186AFB68AE
:1012F0001B684C331946BA687B6800F051FCFB68E8
:101300001B689B6803F46023B3F5602F08D1FB686A
:101310001B689A68FB681B6842F4A0029A600FE0A1
:10132000FB681B689A68FB681B6842F480129A602D
:1013300006E0FB68002283F8242001E00123FB750E
:10134000FB7D18461837BD4680BD00BF0024014014
:1013500000280140AB1600082717000843170008B3
:1013600080B483B000AF786000BF0C37BD4680BC4E
:10137000704780B483B000AF786000BF0C37BD46C3
:1013800080BC704780B485B000AF786039600023BE
:10139000FB730023BB607B6893F82430012B01D1E1
:1013A0000223DCE07B68012283F824203B685B6831
:1013B000062B1CD87B681B68596B3B685A68134620
:1013C0009B001344053B1F2202FA03F3DB43194041
:1013D0003B6818683B685A6813469B001344053BFA
:1013E00000FA03F27B681B680A435A633CE03B68DF
:1013F0005B680C2B1CD87B681B68196B3B685A68B0
:1014000013469B001344233B1F2202FA03F3DB43E2
:1014100019403B6818683B685A6813469B001344A0
:10142000233B00FA03F27B681B680A431A631BE044
:101430007B681B68D96A3B685A6813469B00134453
:10144000413B1F2202FA03F3DB4319403B68186853
:101450003B685A6813469B001344413B00FA03F271
:101460007B681B680A43DA623B681B68092B1CD93E
:101470007B681B68D9683B681A6813465B00134495
:101480001E3B072202FA03F3DB4319403B689868CE
:101490003B681A6813465B0013441E3B00FA03F2D4
:1014A0007B681B680A43DA6019E07B681B6819696E
:1014B0003B681A6813465B001344072202FA03F3E1
:1014C000DB4319403B6898683B681A6813465B0029
:1014D000134400FA03F27B681B680A431A613B68F5
:1014E0001B68102B03D03B681B68112B32D17B6823
:1014F0001B681D4A934225D17B681B689B6803F4D7
:101500000003002B26D17B681B689A687B681B68E8
:1015100042F400029A603B681B68102B1AD1134BEF
:101520001B68134AA2FB03239A0C13469B00134427
:101530005B00BB6002E0BB68013BBB60BB68002B8B
:10154000F9D107E07B689B6A43F020027B689A62CE
:101550000123FB737B68002283F82420FB7B184661
:101560001437BD4680BC704700240140BC000020F9
:1015700083DE1B4380B584B000AF78600023FB603E
:101580000023BB607B681B689B6803F00103012B91
:1015900040D07B681B689A687B681B6842F0010238
:1015A0009A601F4B1B681F4AA2FB03239B0CBB6066
:1015B00002E0BB68013BBB60BB68002BF9D1FFF7C1
:1015C00061FCF8601FE0FFF75DFC0246FB68D31A80
:1015D000022B18D97B681B689B6803F00103012B61
:1015E00011D07B689B6A43F010027B689A627B682B
:1015F000DB6A43F001027B68DA627B68002283F8D1
:101600002420012307E07B681B689B6803F001032B
:10161000012BD8D1002318461037BD4680BD00BF2E
:10162000BC00002083DE1B4380B584B000AF78602F
:101630000023FB607B681B689B6803F00103012BA0
:101640002ED17B681B689A687B681B6822F00102B8
:101650009A60FFF717FCF8601BE0FFF713FC0246E7
:10166000FB68D31A022B14D97B681B689B6803F0B4
:101670000103012B0DD17B689B6A43F010027B684C
:101680009A627B68DB6A43F001027B68DA620123BD
:1016900007E07B681B689B6803F00103012BDCD02B
:1016A000002318461037BD4680BD80B584B000AF1A
:1016B00078607B685B6AFB60FB689B6A03F05003A1
:1016C000002B27D1FB689B6A43F40072FB689A6287
:1016D000FB681B689B6803F46023B3F5602F15D18A
:1016E000FB681B7B002B11D1FB689B6A23F4807283
:1016F000FB689A62FB689B6A03F48053002B05D158
:10170000FB689B6A43F00102FB689A62F86805F087
:101710009DFA04E0FB681B6A1B6B7868984700BF62
:101720001037BD4680BD80B584B000AF78607B685F
:101730005B6AFB60F868FFF713FE00BF1037BD4619
:1017400080BD80B584B000AF78607B685B6AFB6069
:10175000FB689B6A43F04002FB689A62FB68DB6AA5
:1017600043F00402FB68DA62F868FFF702FE00BF8C
:101770001037BD4680BD000090B587B000AF7860DF
:101780000023FB750023FB607B6893F82430012B5A
:1017900001D1022395E07B68012283F82420786838
:1017A000FFF742FF0346FB75FB7D002B40F0848072
:1017B0007B689B6A23F4885323F0020343F0020200
:1017C0007B689A62414B1C68022003F051F8034683
:1017D000B4FBF3F35B00FB6002E0FB68013BFB60E2
:1017E000FB68002BF9D17868FFF7C4FE7B681B68A3
:1017F0009A687B681B6842F008029A60FFF742FB18
:1018000038611BE0FFF73EFB02463B69D31A0A2B07
:1018100014D97B681B689B6803F00803002B0DD06C
:101820007B689B6A23F0120343F010027B689A6284
:101830007B68002283F82420012342E07B681B6838
:101840009B6803F00803002BDCD17B681B689A6857
:101850007B681B6842F004029A60FFF713FB386153
:101860001BE0FFF70FFB02463B69D31A0A2B14D982
:101870007B681B689B6803F00403002B0DD07B681A
:101880009B6A23F0120343F010027B689A627B6824
:10189000002283F82420012313E07B681B689B68E7
:1018A00003F00403002BDCD17B689B6A23F0030365
:1018B00043F001027B689A627B68002283F824204F
:1018C000FB7D18461C37BD4690BD00BFBC00002004
:1018D00080B485B000AF78607B6803F00703FB60DD
:1018E0000C4BDB68BB60BA684FF6FF031340BB606C
:1018F000FB681A02BB68134343F0BF6343F4003331
:10190000BB60044ABB68D36000BF1437BD4680BCCF
:10191000704700BF00ED00E080B400AF044BDB680F
:101920001B0A03F007031846BD4680BC704700BF82
:1019300000ED00E080B483B000AF0346FB7197F97F
:101940000730002B0BDBFB7903F01F02064997F9E8
:1019500007305B09012000FA02F241F8232000BFA2
:101960000C37BD4680BC704700E100E080B483B016
:1019700000AF03463960FB7197F90730002B0ADB93
:101980003B68DAB20C4997F907301201D2B20B4426
:1019900083F800230AE03B68DAB20849FB7903F0D8
:1019A0000F03043B1201D2B20B441A7600BF0C376E
:1019B000BD4680BC704700BF00E100E000ED00E0E4
:1019C00080B489B000AFF860B9607A60FB6803F05A
:1019D0000703FB61FB69C3F10703042B28BF042342
:1019E000BB61FB690433062B02D9FB69033B00E0B2
:1019F00000237B614FF0FF32BB6902FA03F3DA4345
:101A0000BB681A407B699A404FF0FF317B6901FA4D
:101A100003F3D9437B680B40134318462437BD4674
:101A200080BC704780B582B000AF78607B68013BB6
:101A3000B3F1807F01D301230FE00A4A7B68013BA9
:101A400053600F214FF0FF30FFF790FF054B00224E
:101A50009A60044B07221A60002318460837BD46D7
:101A600080BD00BF10E000E080B582B000AF7860BC
:101A70007868FFF72DFF00BF0837BD4680BD80B5F1
:101A800086B000AF0346B9607A60FB7300237B61C8
:101A9000FFF742FF78617A68B9687869FFF790FFCD
:101AA000024697F90F3011461846FFF75FFF00BF57
:101AB0001837BD4680BD80B582B000AF0346FB71CC
:101AC00097F907301846FFF735FF00BF0837BD46C6
:101AD00080BD80B582B000AF78607868FFF7A2FF64
:101AE000034618460837BD4680BD000080B485B067
:101AF00000AF78600023FB607B68002B01D10123DD
:101B000043E07B681B681A46224B1344224AA2FB1F
:101B100003231B099A007B681A647B681F4ADA63F7
:101B20007B68022283F821207B681B681B68FB60AE
:101B3000FB6823F47F5323F03003FB607B685A6813
:101B40007B689B681A437B68DB681A437B681B6968
:101B50001A437B685B691A437B689B691A437B68FD
:101B6000DB691343FA681343FB607B681B68FA6800
:101B70001A607B6800229A637B68012283F8212027
:101B80007B68002283F82020002318461437BD46C6
:101B900080BC7047F8FFFDBFCDCCCCCC000002402C
:101BA00080B586B000AFF860B9607A603B60002312
:101BB000FB75FB6893F82030012B01D102234AE02A
:101BC000FB68012283F82020FB6893F82130012B69
:101BD0003AD1FB68022283F82120FB6800229A6335
:101BE000FB681B681A68FB681B6822F001021A6018
:101BF0003B687A68B968F86800F0F4F9FB68DB6A5A
:101C0000002B08D0FB681B681A68FB681B6842F051
:101C10000E021A600FE0FB681B681A68FB681B68FD
:101C200022F004021A60FB681B681A68FB681B68D4
:101C300042F00A021A60FB681B681A68FB681B689E
:101C400042F001021A6005E0FB68002283F82020C0
:101C50000223FB75FB7D18461837BD4680BD80B456
:101C600085B000AF78600023FB737B6893F8213068
:101C7000022B08D07B6804229A637B68002283F8D9
:101C80002020012320E07B681B681A687B681B68A2
:101C900022F00E021A607B681B681A687B681B685A
:101CA00022F001021A607B681A6C7B68DB6B0121F1
:101CB00001FA02F25A607B68012283F821207B68D6
:101CC000002283F82020FB7B18461437BD4680BCD9
:101CD0007047000080B584B000AF78600023FB73CC
:101CE0007B6893F82130022B05D07B6804229A632D
:101CF0000123FB7351E07B681B681A687B681B68D3
:101D000022F00E021A607B681B681A687B681B68E9
:101D100022F001021A607B681B68224A934229D094
:101D20007B681B68204A934222D07B681B681F4A4D
:101D300093421AD07B681B681D4A934212D07B687D
:101D40001B681C4A93420AD07B681B681A4A93425C
:101D500002D14FF480130EE04FF080730BE04FF48C
:101D6000803308E04FF4805305E04FF4807302E0C5
:101D7000102300E00123114A53607B68012283F89D
:101D800021207B68002283F820207B685B6B002B7E
:101D900003D07B685B6B78689847FB7B18461037ED
:101DA000BD4680BD080002401C00024030000240D9
:101DB00044000240580002406C0002400000024013
:101DC00080B584B000AF78607B68DB6B1B68FB601C
:101DD0007B681B681B68BB607B681B6C04229A4095
:101DE000FB681340002B4FD0BB6803F00403002BAB
:101DF0004AD07B681B681B6803F02003002B07D1C7
:101E00007B681B681A687B681B6822F004021A60F2
:101E10007B681B68664A934229D07B681B68654AC9
:101E2000934222D07B681B68634A93421AD07B6836
:101E30001B68624A934212D07B681B68604A9342D7
:101E40000AD07B681B685F4A934202D14FF480033B
:101E50000EE04FF080630BE04FF4802308E04FF476
:101E6000804305E04FF4806302E0402300E0042358
:101E7000554A53607B68DB6A002B00F094807B68D6
:101E8000DB6A786898478EE07B681B6C02229A4078
:101E9000FB681340002B56D0BB6803F00203002BF5
:101EA00051D07B681B681B6803F02003002B0BD10B
:101EB0007B681B681A687B681B6822F00A021A603C
:101EC0007B68012283F821207B681B68384A934293
:101ED00029D07B681B68374A934222D07B681B68F5
:101EE000354A93421AD07B681B68344A934212D019
:101EF0007B681B68324A93420AD07B681B68314A70
:101F0000934202D14FF400130EE04FF000730BE048
:101F10004FF4003308E04FF4005305E04FF4007332
:101F200002E0202300E00223274A53607B6800225E
:101F300083F820207B689B6A002B34D07B689B6AE7
:101F4000786898472FE07B681B6C08229A40FB68F2
:101F50001340002B28D0BB6803F00803002B23D0CC
:101F60007B681B681A687B681B6822F00E021A6087
:101F70007B681A6C7B68DB6B012101FA02F25A6004
:101F80007B6801229A637B68012283F821207B68A9
:101F9000002283F820207B681B6B002B04D07B6819
:101FA0001B6B7868984700BF00BF1037BD4680BDE7
:101FB000080002401C000240300002404400024081
:101FC000580002406C0002400000024080B483B020
:101FD00000AF78607B6893F8213018460C37BD4617
:101FE00080BC704780B485B000AFF860B9607A609B
:101FF0003B60FB681A6CFB68DB6B012101FA02F2A3
:102000005A60FB681B683A685A60FB685B68102B73
:1020100008D1FB681B687A689A60FB681B68BA681D
:10202000DA6007E0FB681B68BA689A60FB681B68A7
:102030007A68DA6000BF1437BD4680BC7047000084
:1020400080B48BB000AF7860396000237B620023DE
:102050003B6227E101227B6A02FA03F3FB613B68E2
:102060001B68FA691340BB61BA69FB699A4240F088
:1020700016813B685B68122B34D0122B0DD8022BD3
:102080002BD0022B04D8002B31D0012B1CD048E0E0
:10209000032B43D0112B1BD043E0894A934226D017
:1020A000874A934206D8874A934220D0864A934271
:1020B0001DD036E0854A934219D0854A934216D006
:1020C000844A934213D02CE03B68DB683B6228E0F3
:1020D0003B68DB6804333B6223E03B68DB68083322
:1020E0003B621EE03B68DB680C333B6219E03B68F7
:1020F0009B68002B02D104233B6212E03B689B6883
:10210000012B05D108233B627B68FA691A6108E05C
:1021100008233B627B68FA695A6102E000233B6254
:1021200000BFBB69FF2B01D87B6801E07B680433EB
:102130007B61BB69FF2B02D87B6A9B0002E07B6A54
:10214000083B9B003B617B691A680F213B6901FAE0
:1021500003F3DB431A40396A3B6901FA03F31A437C
:102160007B691A603B685B6803F08053002B00F0CA
:102170009680594B9B69584A43F001039361564B33
:102180009B6903F00103BB60BB68544A7B6A9B08F0
:10219000023352F82330FB607B6A03F003039B0099
:1021A0000F2202FA03F3DB43FA681340FB607B68FB
:1021B0004B4A934213D07B684A4A93420DD07B68C6
:1021C000494A934207D07B68484A934201D103238E
:1021D00006E0042304E0022302E0012300E00023E0
:1021E0007A6A02F0030292009340FA681343FB609C
:1021F0003A497B6A9B080233FA6841F823203B681E
:102200005B6803F48033002B06D0394B1A683849D9
:10221000BB6913430B6006E0354B1A68BB69DB43AF
:10222000334913400B603B685B6803F40033002BB9
:1022300006D02F4B5A682E49BB6913434B6006E00A
:102240002B4B5A68BB69DB43294913404B603B6801
:102250005B6803F48013002B06D0254B9A68244951
:10226000BB6913438B6006E0214B9A68BB69DB4373
:102270001F4913408B603B685B6803F40013002B1D
:1022800006D01B4BDA681A49BB691343CB6006E0E2
:10229000174BDA68BB69DB4315491340CB607B6A97
:1022A00001337B623B681A687B6A22FA03F3002BD6
:1022B0007FF4D0AE00BF2C37BD4680BC704700BF56
:1022C0000000211000001110000012100000311059
:1022D00000003210000022100010024000000140F7
:1022E00000080140000C01400010014000140140B2
:1022F0000004014080B485B000AF78600B467B805D
:102300007B689A687B881340002B02D00123FB7303
:1023100001E00023FB73FB7B18461437BD4680BCED
:10232000704780B483B000AF78600B467B80134663
:102330007B707B78002B03D07A887B681A6103E07E
:102340007B881A047B681A6100BF0C37BD4680BCCD
:10235000704780B485B000AF78600B467B807B68A7
:10236000DB68FB607A88FB6813401A04FB68D9437A
:102370007B880B401A437B681A6100BF1437BD4647
:1023800080BC704780B582B000AF0346FB80084B2D
:102390005A69FB881340002B06D0054AFB8853611D
:1023A000FB88184604F07AFD00BF0837BD4680BDA3
:1023B0000004014080B584B000AF78607B68002BDA
:1023C00001D101231FE17B6893F83D30DBB2002B84
:1023D00006D17B68002283F83C20786805F0E4FA97
:1023E0007B68242283F83D207B681B681A687B6821
:1023F0001B6822F001021A607B681B681A687B6800
:102400001B6842F400421A607B681B681A687B688C
:102410001B6822F400421A6002F02EF9F8607B6813
:102420005B687B4A934207D8FB687A4A934294BF21
:1024300001230023DBB206E0FB68774A934294BF96
:1024400001230023DBB2002B01D00123DBE0FB687A
:10245000724AA2FB03239B0CBB607B681B685B6812
:1024600023F03F017B681B68BA680A435A607B68A7
:102470001B681B6A23F03F017B685B68644A9342D8
:1024800002D8BB68013309E0BB684FF4967202FBC7
:1024900003F3634AA2FB03239B0901337A681268A2
:1024A0000B4313627B681B68DB6923F44F4222F005
:1024B000FF027B685B6856498B420DD8FB68591E4A
:1024C0007B685B685B00B1FBF3F30133C3F30B0381
:1024D000042B38BF04234FE07B689B68002B11D18D
:1024E000FB68581E7B6859680B465B000B44B0FBC9
:1024F000F3F30133C3F30B03002B0CBF01230023C1
:10250000DBB212E0FB68581E7B6859680B469B00E3
:102510000B4499000B44B0FBF3F30133C3F30B03FB
:10252000002B0CBF01230023DBB2002B01D00123C1
:1025300022E07B689B68002B0ED1FB68581E7B68ED
:1025400059680B465B000B44B0FBF3F30133C3F354
:102550000B0343F400430FE0FB68581E7B68596887
:102560000B469B000B4499000B44B0FBF3F3013383
:10257000C3F30B0343F44043796809681343CB6109
:102580007B681B681B6823F0C0017B68DA697B6885
:102590001B6A1A437B681B680A431A607B681B68C6
:1025A0009B6823F4034323F0FF037A6811697A6878
:1025B000D26811437A6812680B4393607B681B688A
:1025C000DB6823F0FF017B685A697B689B691A43CB
:1025D0007B681B680A43DA607B681B681A687B6843
:1025E0001B6842F001021A607B6800221A647B6853
:1025F000202283F83D207B6800221A637B6800223A
:1026000083F83E20002318461037BD4680BD00BF2A
:10261000A08601007F841E00FF083D0083DE1B436F
:10262000D34D621080B487B000AFF8607A601A466C
:102630000B467B8113463B8100237B61FB6893F84B
:102640003D30DBB2202B40F08580454B1B68DB081A
:10265000444AA2FB03231A0A13469B0013449A0020
:1026600013447B617B69013B7B617B69002B16D145
:10267000FB6800221A63FB68202283F83D20FB6878
:10268000002283F83E20FB681B6C43F02002FB68AD
:102690001A64FB68002283F83C2001235BE0FB689E
:1026A0001B689B6903F00203022BDBD0FB6893F8E5
:1026B0003C30012B01D102234DE0FB68012283F85D
:1026C0003C20FB681B681B6803F00103012B07D04B
:1026D000FB681B681A68FB681B6842F001021A60FD
:1026E000FB681B681A68FB681B6822F400621A60AA
:1026F000FB68212283F83D20FB68102283F83E20EE
:10270000FB6800221A64FB687A685A62FB683A899F
:102710005A85FB685B8D9AB2FB681A85FB68124A82
:10272000DA627A89FB685A64FB68002283F83C20ED
:10273000FB681B685A68FB681B6842F4E0625A60D9
:10274000FB681B681A68FB681B6842F480721A6099
:10275000002300E0022318461C37BD4680BC7047AA
:10276000BC00002089B5F8140000FFFF80B588B0D8
:1027700000AF78600023BB617B681B685B687B618E
:102780007B68DB6A3B617B6893F83E30FB737B6858
:1027900093F83D30BB73FB7B102B03D0FB7B402BAE
:1027A00040F0C1807B681B689B69BB617B681B68CC
:1027B0005B69FB61FB6903F00103002B0DD13B69F1
:1027C000B3F52A0F03D03B69B3F12A4F01D101239E
:1027D00000E00023012B00F03281FB6903F00103CC
:1027E000002B0CD07B695B0A03F00103002B06D0A1
:1027F000786801F051FB786800F0C3FC92E0FB6957
:10280000DB0803F00103002B09D07B695B0A03F0AE
:102810000103002B03D0786800F038FD82E0FB69EB
:102820005B0803F00103002B09D07B695B0A03F00E
:102830000103002B03D0786800F051FD72E0BB6902
:102840009B0803F00103002B3BD07B681B685B688F
:1028500003F40063B3F5006F00F0F380FB69DB095C
:1028600003F00103002B0FD07B699B0A03F00103E7
:10287000002B09D0FB699B0803F00103002B03D157
:10288000786800F03DF94DE0FB699B0803F0010317
:10289000002B00F0D6807B695B0A03F00103002B5C
:1028A00000F0CF80BB7B212B03D1786800F0C4F906
:1028B000C7E0FB7B402B40F0C480786800F032FA20
:1028C000BFE07B681B685B6803F40063B3F5006FCF
:1028D00000F0B780FB699B0903F00103002B0FD0C8
:1028E0007B699B0A03F00103002B09D0FB699B085D
:1028F00003F00103002B03D1786800F0A7FA11E080
:10290000FB699B0803F00103002B00F09A807B69B0
:102910005B0A03F00103002B00F09380786800F05D
:1029200046FB8EE08DE07B681B6C002B04D07B683F
:102930001B685B69FB6107E07B681B689B69BB6187
:102940007B681B685B69FB61FB695B0803F0010343
:10295000002B12D07B695B0A03F00103002B0CD023
:102960007B681B6C002B03D07B681B689B69BB6179
:10297000B969786800F00AFF66E0FB691B0903F09B
:102980000103002B09D07B695B0A03F00103002BD4
:1029900003D0786800F044FF56E0BB7B212B02D0C7
:1029A000BB7B292B25D1FB69DB0903F00103002B3D
:1029B0000FD07B699B0A03F00103002B09D0FB6950
:1029C0009B0803F00103002B03D1786800F022FE7E
:1029D00039E0FB699B0803F00103002B33D07B69CE
:1029E0005B0A03F00103002B2DD0786800F04FFE46
:1029F00029E0FB699B0903F00103002B0FD07B69E1
:102A00009B0A03F00103002B09D0FB699B0803F02C
:102A10000103002B03D1786800F059FE14E0FB6934
:102A20009B0803F00103002B0ED07B695B0A03F0C7
:102A30000103002B08D0786800F087FE04E000BF97
:102A400002E000BF00E000BF2037BD4680BD80B47B
:102A500083B000AF786000BF0C37BD4680BC7047C4
:102A600080B483B000AF786000BF0C37BD4680BC37
:102A7000704780B483B000AF78600B46FB7013469C
:102A80003B8000BF0C37BD4680BC704780B483B02C
:102A900000AF786000BF0C37BD4680BC704780B483
:102AA00083B000AF786000BF0C37BD4680BC704774
:102AB00080B483B000AF786000BF0C37BD4680BCE7
:102AC000704780B483B000AF786000BF0C37BD465C
:102AD00080BC704780B483B000AF786000BF0C3713
:102AE000BD4680BC704780B483B000AF78607B681F
:102AF00093F83D30DBB218460C37BD4680BC7047BA
:102B000080B584B000AF78607B6893F83D30FB738C
:102B10007B6893F83E30BB737B68DB6ABB607B6885
:102B20001B8D002B50D1FB7B212B4DD1BB68082B7B
:102B30001DD0BB68202B1AD0BB6813F5803F16D080
:102B40007B681B685A687B681B6822F4E0625A60E5
:102B50007B6811221A637B68002283F83E207B6821
:102B6000202283F83D20786804F0D8F860E07B6884
:102B70001B685A687B681B6822F4E0625A607B68B5
:102B80001B681A687B681B6842F400721A607B68D5
:102B900000221A637B68202283F83D207B6893F82B
:102BA0003E30DBB2402B07D17B68002283F83E2009
:102BB0007868FFF774FF3BE07B68002283F83E20D3
:102BC000786804F0ABF833E0FB7B212B05D0BB7BAE
:102BD000402B2DD1FB7B222B2AD17B685B8D9BB2B6
:102BE000002B08D17B681B685A687B681B6822F43D
:102BF00080625A601CE07B6893F83E30DBB2402B69
:102C000003D1786800F08EF812E07B685B6A1A786E
:102C10007B681B681A617B685B6A5A1C7B685A6216
:102C20007B685B8D9BB2013B9AB27B685A85FFE75C
:102C300000BF1037BD4680BD80B584B000AF78605E
:102C40007B68DB6AFB607B6893F83D30DBB2212B4D
:102C500064D17B685B8D9BB2002B12D07B685B6A72
:102C60001A787B681B681A617B685B6A5A1C7B68F0
:102C70005A627B685B8D9BB2013B9AB27B685A8536
:102C80004CE0FB68082B1DD0FB68202B1AD0FB689A
:102C900013F5803F16D07B681B685A687B681B68F9
:102CA00022F4E0625A607B6811221A637B6800227A
:102CB00083F83E207B68202283F83D20786804F06A
:102CC0002DF82BE07B681B685A687B681B6822F430
:102CD000E0625A607B681B681A687B681B6842F474
:102CE00000721A607B6800221A637B68202283F8D6
:102CF0003D207B6893F83E30DBB2402B07D17B68E8
:102D0000002283F83E207868FFF7C9FE06E07B6862
:102D1000002283F83E20786804F000F800BF1037E6
:102D2000BD4680BD80B584B000AF78607B6893F805
:102D30003D30FB737B681B6D002B1DD17B68DB6C0A
:102D4000012B0BD17B689B6CDAB27B681B681A6124
:102D50007B681B6D9A1C7B681A6573E07B689B6CB3
:102D60009BB21B12DAB27B681B681A617B681B6D11
:102D70005A1C7B681A6565E07B681B6D012B0BD1C3
:102D80007B689B6CDAB27B681B681A617B681B6D81
:102D90005A1C7B681A6555E07B681B6D022B51D16C
:102DA000FB7B222B0DD17B681B681A687B681B6834
:102DB00042F480721A607B681B6D5A1C7B681A652E
:102DC00040E07B685B8D9BB2002B15D0FB7B212BF9
:102DD00012D17B685B6A1A787B681B681A617B6812
:102DE0005B6A5A1C7B685A627B685B8D9BB2013BB5
:102DF0009AB27B685A8525E07B685B8D9BB2002B7D
:102E000020D1FB7B212B1DD17B681B685A687B6816
:102E10001B6822F4E0625A607B681B681A687B6852
:102E20001B6842F400721A607B6800221A637B6898
:102E3000202283F83D207B68002283F83E207868BA
:102E4000FFF72DFE00BF1037BD4680BD80B584B0B2
:102E500000AF78607B6893F83D30DBB2222B40F006
:102E6000A2807B685B8D9BB2FB60FB68032B21D942
:102E70007B681B681A697B685B6AD2B21A707B68D0
:102E80005B6A5A1C7B685A627B685B8D9BB2013B14
:102E90009AB27B685A857B685B8D9BB2032B40F0AE
:102EA00082807B681B685A687B681B6822F480629A
:102EB0005A6078E07B68DB6A022B74D0FB68012BD8
:102EC00002D0FB68002B6ED1786800F0B3FF034698
:102ED000002B42D17B681B681A687B681B6822F450
:102EE00080621A607B681B685A687B681B6822F4E2
:102EF000E0625A607B681B681A697B685B6AD2B2C1
:102F00001A707B685B6A5A1C7B685A627B685B8DAF
:102F10009BB2013B9AB27B685A857B68202283F87A
:102F20003D207B6893F83E30DBB2402B0AD17B68B2
:102F3000002283F83E207B6800221A637868FFF73E
:102F4000B7FD30E07B68002283F83E207B681222C8
:102F50001A63786803F0FAFE25E07B681B685A68FC
:102F60007B681B6822F4E0625A607B681B681A6900
:102F70007B685B6AD2B21A707B685B6A5A1C7B689A
:102F80005A627B685B8D9BB2013B9AB27B685A8523
:102F90007B68202283F83D207B68002283F83E2056
:102FA0007868FFF78EFD00BF1037BD4680BD80B545
:102FB00084B000AF78607B68DB6AFB607B685B8D08
:102FC0009BB2042B1BD17B681B685A687B681B680B
:102FD00022F480625A607B681B681A697B685B6AAE
:102FE000D2B21A707B685B6A5A1C7B685A627B6833
:102FF0005B8D9BB2013B9AB27B685A85BDE07B68D2
:103000005B8D9BB2032B29D17B681B685A687B6858
:103010001B6822F480625A60FB68042B0AD0FB68AC
:10302000022B07D07B681B681A687B681B6822F438
:1030300080621A607B681B681A697B685B6AD2B21F
:103040001A707B685B6A5A1C7B685A627B685B8D6E
:103050009BB2013B9AB27B685A858EE07B685B8DA0
:103060009BB2022B76D1FB68012B02D0FB68102BA0
:1030700008D17B681B681A687B681B6822F4806231
:103080001A6019E0FB68042B02D0FB68022B08D100
:103090007B681B681A687B681B6842F480621A6050
:1030A0000AE0FB68102B07D07B681B681A687B68F6
:1030B0001B6842F400721A607B681B681A697B689F
:1030C0005B6AD2B21A707B685B6A5A1C7B685A6270
:1030D0007B685B8D9BB2013B9AB27B685A857B68AB
:1030E0001B681A697B685B6AD2B21A707B685B6A7C
:1030F0005A1C7B685A627B685B8D9BB2013B9AB21B
:103100007B685A857B681B685A687B681B6822F459
:1031100040725A607B68202283F83D207B6893F8D8
:103120003E30DBB2402B0AD17B68002283F83E2080
:103130007B6800221A637868FFF7BAFC1DE07B68A1
:10314000002283F83E207B6812221A63786803F01D
:10315000FDFD12E07B681B681A697B685B6AD2B26E
:103160001A707B685B6A5A1C7B685A627B685B8D4D
:103170009BB2013B9AB27B685A8500BF1037BD46AF
:1031800080BD80B483B000AF78607B6893F83E3038
:10319000DBB2402B17D17B681B6D002B09D17B68FC
:1031A0005B6CDBB21A467B681B6802F0FE021A6198
:1031B00067E07B685B6CDBB243F00103DAB27B68EB
:1031C0001B681A615DE07B681B69B3F5804F33D1E2
:1031D0007B6893F83D30DBB2212B09D17B685B6CB7
:1031E000DBB21A467B681B6802F0FE021A6108E037
:1031F0007B685B6CDBB243F00103DAB27B681B686F
:103200001A617B685B6B002B04D07B685B6B9B6AED
:10321000002B08D17B689B6B002B32D07B689B6BAB
:103220009B6A002B2DD07B681B685A687B681B68E3
:1032300042F400625A6024E07B681B6D002B0ED1C3
:103240007B685B6C9BB2DB11DBB203F00603DBB285
:1032500063F00F03DAB27B681B681A6111E07B68C8
:103260001B6D012B0DD17B685B6C9BB2DB11DBB25C
:1032700003F00603DBB263F00E03DAB27B681B686F
:103280001A6100BF0C37BD4680BC704780B483B064
:1032900000AF78607B685B6CDAB27B681B681A6190
:1032A0007B685B6B002B04D07B685B6B9B6A002B9D
:1032B00008D17B689B6B002B0CD07B689B6B9B6A57
:1032C000002B07D07B681B685A687B681B6842F438
:1032D00000625A6000BF0C37BD4680BC704780B4A6
:1032E00091B000AF78607B6893F83E3087F83F304C
:1032F0007B68DB6ABB637B681B6B7B637B6893F8D3
:103300003D30DBB2222B40F074817B681B6D002BBB
:103310000FD197F83F30402B0BD100233B637B68E4
:103320001B685B693B637B681B689B693B633B6B0A
:103330006BE17B681B6D002B1DD17B681B69B3F5AE
:10334000404F18D10023FB627B681B685B69FB62FE
:103350007B681B689B69FB62FB6A7B681B681A6859
:103360007B681B6842F480721A607B681B6D5A1C74
:103370007B681A6549E17B685B8D9BB2002B13D19A
:103380000023BB627B681B685B69BB627B681B6850
:103390009B69BB62BB6A7B681B681A687B681B6899
:1033A00042F400721A6020E17B685B8D9BB2012BB6
:1033B00040F08A80BB6B13F5803F37D17B681B6878
:1033C0001A687B681B6822F480621A607B681B683D
:1033D0005B6803F40063B3F5006F13D17B681B686F
:1033E0001A687B681B6822F480621A6000237B6283
:1033F0007B681B685B697B627B681B689B697B627F
:103400007B6AF2E000233B627B681B685B693B627E
:103410007B681B689B693B623B6A7B681B681A6818
:103420007B681B6842F400721A60DEE0BB6B082BFD
:103430002ED0BB6B202B2BD07B6B122B02D1BB6B06
:10344000012B25D1BB6B042B0ED0BB6B022B0BD0F9
:10345000BB6B102B08D07B681B681A687B681B68E5
:1034600022F480621A6007E07B681B681A687B6838
:103470001B6842F480621A600023FB617B681B6852
:103480005B69FB617B681B689B69FB61FB69ACE066
:103490007B681B681A687B681B6822F480621A606C
:1034A0000023BB617B681B685B69BB617B681B6831
:1034B0009B69BB61BB697B681B681A687B681B687A
:1034C00042F400721A6090E07B685B8D9BB2022B25
:1034D00058D1BB6B042B21D0BB6B022B1ED0BB6B16
:1034E000102B1BD07B681B681A687B681B6842F432
:1034F00000621A6000237B617B681B685B697B61EB
:103500007B681B689B697B617B697B681B681A68A9
:103510007B681B6822F480621A6012E07B681B687B
:103520001A687B681B6842F480621A6000233B6162
:103530007B681B685B693B617B681B689B693B61BF
:103540003B697B681B685B6803F40063B3F5006F3D
:103550004BD1BB6B13F5803F0BD0BB6B012B08D05D
:10356000BB6B082B05D0BB6B102B02D0BB6B202B89
:103570003BD17B681B685A687B681B6842F48052A9
:103580005A6032E07B681B681A687B681B6842F4EB
:1035900080621A607B681B685B6803F40063B3F5A4
:1035A000006F17D1BB6B13F5803F0BD0BB6B012BAA
:1035B00008D0BB6B082B05D0BB6B102B02D0BB6BAC
:1035C000202B07D17B681B685A687B681B6842F414
:1035D00080525A600023FB607B681B685B69FB605C
:1035E0007B681B689B69FB60FB687B6800221A652F
:1035F0000BE00023BB607B681B685B69BB607B687A
:103600001B689B69BB60BB68FFE700BF4437BD46D2
:1036100080BC704780B584B000AF78607B6893F859
:103620003D30FB737B685B8D9BB2002B2BD07B689E
:103630005B6A1A787B681B681A617B685B6A5A1C34
:103640007B685A627B685B8D9BB2013B9AB27B6858
:103650005A857B685B8D9BB2002B14D1FB7B292B99
:1036600011D17B681B685A687B681B6822F48062F2
:103670005A607B6821221A637B68282283F83D20E8
:103680007868FFF7E4F900BF1037BD4680BD80B40D
:1036900083B000AF78607B685B8D9BB2002B11D04C
:1036A0007B685B6A1A787B681B681A617B685B6A57
:1036B0005A1C7B685A627B685B8D9BB2013B9AB255
:1036C0007B685A8500BF0C37BD4680BC704780B50B
:1036D00084B000AF78607B6893F83D30FB737B6803
:1036E0005B8D9BB2002B2CD07B681B681A697B68B2
:1036F0005B6AD2B21A707B685B6A5A1C7B685A623A
:103700007B685B8D9BB2013B9AB27B685A857B6874
:103710005B8D9BB2002B14D1FB7B2A2B11D17B68D4
:103720001B685A687B681B6822F480625A607B6859
:1037300022221A637B68282283F83D207868FFF7ED
:103740008FF900BF1037BD4680BD80B483B000AF95
:1037500078607B685B8D9BB2002B12D07B681B6806
:103760001A697B685B6AD2B21A707B685B6A5A1C02
:103770007B685A627B685B8D9BB2013B9AB27B6827
:103780005A8500BF0C37BD4680BC704780B584B0F9
:1037900000AF786039600023FB737B6893F83D309D
:1037A000DBB203F02803282B27D17B681B685A68FB
:1037B0007B681B6822F480625A603B689B0803F0B8
:1037C0000103002B01D10123FB733B68DB0903F0EC
:1037D0000103002B03D17B68DB68BB8102E07B68BF
:1037E0009B69BB817B68002283F83C20BA89FB7B04
:1037F00019467868FFF73DF90EE00023BB607B684F
:103800001B685B69BB607B681B689B69BB60BB68AE
:103810007B68002283F83C2000BF1037BD4680BD86
:1038200080B584B000AF78607B6893F83D30FB735F
:103830007B681B685A687B681B6822F4E0625A60E8
:103840000023BB607B681B685B69BB607B681B688F
:103850001A687B681B6842F001021A60BB687B68CB
:103860001B681A687B681B6822F480621A607B6898
:103870001B685B6803F40063B3F5006F72D1FB7BD8
:10388000222B02D0FB7B2A2B35D17B689B6B1B68DC
:103890005B689AB27B685A857B685B8D9BB2002B14
:1038A00005D07B681B6C43F004027B681A647B685C
:1038B0001B685A687B681B6822F400625A607B6848
:1038C0009B6B1846FEF782FB0346012B49D07B68B1
:1038D0009B6B694A5A637B689B6B1846FEF7FAF943
:1038E0000346002B3DD07B689B6B5B6B7A68926BC9
:1038F0001046984735E07B685B6B1B685B689AB243
:103900007B685A857B685B8D9BB2002B05D07B68FA
:103910001B6C43F004027B681A647B681B685A685E
:103920007B681B6822F400625A607B685B6B1846F8
:10393000FEF74CFB0346012B14D07B685B6B4E4AB1
:103940005A637B685B6B1846FEF7C4F90346002B8D
:1039500008D07B685B6B5B6B7A68526B104698474C
:1039600000E000BF7B685B8D9BB2002B3ED07B6884
:103970001B685B6903F00403042B12D17B681B688E
:103980001A697B685B6AD2B21A707B685B6A5A1CE0
:103990007B685A627B685B8D9BB2013B9AB27B6805
:1039A0005A857B681B685B6903F04003402B12D18A
:1039B0007B681B681A697B685B6AD2B21A707B6885
:1039C0005B6A5A1C7B685A627B685B8D9BB2013BC9
:1039D0009AB27B685A857B685B8D9BB2002B05D0C1
:1039E0007B681B6C43F004027B681A647B681B6C69
:1039F000002B03D0786800F043F839E0FB7B2A2BDA
:103A000009D17B6800221A637B68282283F83D2055
:103A10007868FFF725F87B6893F83D30DBB2282BF8
:103A200011D17B68154ADA627B6800221A637B68D1
:103A3000202283F83D207B68002283F83E207868AE
:103A4000FFF724F814E07B681B6B222B02D0FB7B72
:103A5000222B0DD17B6800221A637B68202283F819
:103A60003D207B68002283F83E207868FEF7F8FF4F
:103A700000BF1037BD4680BDE53C00080000FFFFD9
:103A800080B584B000AF78607B6893F83D30FB73FD
:103A90007B6893F83E30BB73BB7B102B02D0BB7BA3
:103AA000402B0AD1FB7B222B07D17B681B681A684D
:103AB0007B681B6822F400621A60FB7B03F028031A
:103AC000282B07D17B6800221A637B68282283F8A1
:103AD0003D2015E07B681B685B6803F40063B3F569
:103AE000006F0AD0FB7B602B07D07B68202283F815
:103AF0003D207B68002283F83E207B6800221A6309
:103B00007B681B685B6803F40063B3F5006F61D1E9
:103B10007B681B685A687B681B6822F400625A60E5
:103B20007B685B6B93F82130012B20D07B685B6B4B
:103B30006A4A5A637B685B6B1846FEF7CBF803460C
:103B4000002B00F089807B681B681A687B681B6803
:103B500022F001021A607B68202283F83D207B68F6
:103B60005B6B5B6B7A68526B1046984774E07B68BE
:103B70009B6B5A4A5A637B689B6B1846FEF7AAF800
:103B80000346002B68D07B681B685B6903F0400329
:103B9000402B0BD17B681B681A697B685B6AD2B2C9
:103BA0001A707B685B6A5A1C7B685A627B681B6868
:103BB0001A687B681B6822F001021A607B68202269
:103BC00083F83D207B689B6B5B6B7A68926B104639
:103BD000984741E07B6893F83D30DBB2602B25D1FC
:103BE0007B68202283F83D207B6800221A647B6872
:103BF0001B685B6903F04003402B0BD17B681B689B
:103C00001A697B685B6AD2B21A707B685B6A5A1C5D
:103C10007B685A627B681B681A687B681B6822F0A5
:103C200001021A607868FEF755FF15E07B681B6893
:103C30005B6903F04003402B0BD17B681B681A695A
:103C40007B685B6AD2B21A707B685B6A5A1C7B68BD
:103C50005A627868FEF735FF7B681B6CBB60BB68F7
:103C600003F00103002B0ED1BB6803F00203002B0D
:103C700009D1BB6803F00403002B04D1BB6803F037
:103C80000803002B07D07B681B685A687B681B6899
:103C900022F4E0625A607B6893F83D30FB737B68E6
:103CA0001B6C03F00403042B13D1FB7B282B10D1D6
:103CB0007B680B4ADA627B6800221A637B682022E9
:103CC00083F83D207B68002283F83E207868FEF769
:103CD000DDFE00BF1037BD4680BD00BFE53C0008DB
:103CE0000000FFFF80B586B000AF78600023FB6066
:103CF0007B685B6A7B617B6993F83D30FB744B4B5F
:103D00001B68DB084A4AA2FB03231A0A13469B00DE
:103D10001344DA00D31AFB60FB68002B06D17B69E1
:103D20001B6C43F020027B691A640AE0FB68013BCC
:103D3000FB607B691B681B6803F40073B3F5007FAD
:103D4000EAD07B695B6B002B03D07B695B6B002245
:103D50009A627B699B6B002B03D07B699B6B002273
:103D60009A627B691B681A687B691B6822F480620F
:103D70001A607B6900225A857B695B6B002B03D03C
:103D80007B695B6B00225A637B699B6B002B03D0C2
:103D90007B699B6B00225A637B691B681A687B698D
:103DA0001B6822F001021A607B6993F83D30DBB298
:103DB000602B0ED17B69202283F83D207B69002295
:103DC00083F83E207B6900221A647869FEF782FE40
:103DD00027E0FB7C03F02803282B17D17B691B68A5
:103DE0001A687B691B6842F001021A607B691B68D4
:103DF0001A687B691B6842F480621A607B69002242
:103E00001A637B69282283F83D2007E07B69202222
:103E100083F83D207B69002283F83E207869FEF715
:103E200050FE00BF1837BD4680BD00BFBC0000205B
:103E300089B5F81480B485B000AF78600023FB60CA
:103E4000134B1B68DB08134AA2FB03231A0A134611
:103E50009B001344FB60FB68013BFB60FB68002B8D
:103E600007D17B681B6C43F020027B681A64012336
:103E700008E07B681B681B6803F40073B3F5007FE0
:103E8000E9D0002318461437BD4680BC704700BFF8
:103E9000BC00002089B5F81480B483B000AF78600E
:103EA0007B68DB6AB3F52A0F03D17B680122DA62F3
:103EB00007E07B68DB6AB3F12A4F02D17B680822F6
:103EC000DA6200BF0C37BD4680BC704780B586B053
:103ED00000AF78607B68002B01D101236CE27B6826
:103EE0001B6803F00103002B00F08780924B5B6896
:103EF00003F00C03042B0CD08F4B5B6803F00C0316
:103F0000082B12D18C4B5B6803F48033B3F5803FF0
:103F10000BD1894B1B6803F40033002B6CD07B68FA
:103F20005B68002B68D1012346E27B685B68B3F5D0
:103F3000803F06D1804B1B687F4A43F48033136077
:103F40002EE07B685B68002B0CD17B4B1B687A4AA8
:103F500023F480331360784B1B68774A23F4802363
:103F600013601DE07B685B68B3F5A02F0CD1724B2A
:103F70001B68714A43F4802313606F4B1B686E4AC1
:103F800043F4803313600BE06B4B1B686A4A23F4E5
:103F900080331360684B1B68674A23F480231360E7
:103FA0007B685B68002B13D0FCF76CFF386108E07E
:103FB000FCF768FF02463B69D31A642B01D903233F
:103FC000FAE15D4B1B6803F40033002BF0D014E0E2
:103FD000FCF758FF386108E0FCF754FF02463B69E4
:103FE000D31A642B01D90323E6E1534B1B6803F476
:103FF0000033002BF0D100E000BF7B681B6803F0AA
:104000000203002B63D04C4B5B6803F00C03002BC6
:104010000BD0494B5B6803F00C03082B1CD1464BBB
:104020005B6803F48033002B16D1434B1B6803F00D
:104030000203002B05D07B681B69012B01D00123F3
:10404000BAE13D4B1B6823F0F8027B685B69DB003B
:10405000394913430B603AE07B681B69002B20D081
:10406000364B01221A60FCF70DFF386108E0FCF7BF
:1040700009FF02463B69D31A022B01D903239BE1B6
:104080002D4B1B6803F00203002BF0D02A4B1B685A
:1040900023F0F8027B685B69DB00274913430B6060
:1040A00015E0264B00221A60FCF7ECFE386108E0B0
:1040B000FCF7E8FE02463B69D31A022B01D9032321
:1040C0007AE11D4B1B6803F00203002BF0D17B68E3
:1040D0001B6803F00803002B3AD07B689B69002B18
:1040E00019D0174B01221A60FCF7CCFE386108E0AA
:1040F000FCF7C8FE02463B69D31A022B01D9032301
:104100005AE10D4B5B6A03F00203002BF0D0012053
:1041100000F0DAFA1CE00A4B00221A60FCF7B2FE4B
:1041200038610FE0FCF7AEFE02463B69D31A022B62
:1041300008D9032340E100BF0010024000004242C2
:10414000800442429E4B5B6A03F00203002BE9D1DC
:104150007B681B6803F00403002B00F0A68000239B
:10416000FB75974BDB6903F08053002B0DD1944B0B
:10417000DB69934A43F08053D361914BDB6903F0D1
:104180008053BB60BB680123FB758E4B1B6803F437
:104190008073002B18D18B4B1B688A4A43F48073C1
:1041A0001360FCF76FFE386108E0FCF76BFE024617
:1041B0003B69D31A642B01D90323FDE0814B1B68B3
:1041C00003F48073002BF0D07B68DB68012B06D1F1
:1041D0007B4B1B6A7A4A43F0010313622DE07B6834
:1041E000DB68002B0CD1764B1B6A754A23F0010368
:1041F0001362734B1B6A724A23F0040313621CE0C0
:104200007B68DB68052B0CD16D4B1B6A6C4A43F055
:10421000040313626A4B1B6A694A43F00103136289
:104220000BE0674B1B6A664A23F001031362644B81
:104230001B6A634A23F0040313627B68DB68002B6C
:1042400015D0FCF71FFE38610AE0FCF71BFE0246A2
:104250003B69D31A41F28832934201D90323ABE080
:10426000574B1B6A03F00203002BEED014E0FCF75F
:1042700009FE38610AE0FCF705FE02463B69D31AE5
:1042800041F28832934201D9032395E04C4B1B6ADB
:1042900003F00203002BEED1FB7D012B05D1484B2F
:1042A000DB69474A23F08053D3617B68DB69002BCD
:1042B00000F08180424B5B6803F00C03082B61D057
:1042C0007B68DB69022B46D13F4B00221A60FCF76A
:1042D000D9FD386108E0FCF7D5FD02463B69D31AE9
:1042E000022B01D9032367E0354B1B6803F00073F1
:1042F000002BF0D17B681B6AB3F5803F08D1304BAF
:104300005B6823F400327B689B682D4913434B6044
:104310002B4B5B6823F474127B68196A7B685B6AB9
:104320000B43274913434B60274B01221A60FCF7CC
:10433000A9FD386108E0FCF7A5FD02463B69D31AE8
:10434000022B01D9032337E01D4B1B6803F00073D8
:10435000002BF0D02FE01C4B00221A60FCF792FDDE
:10436000386108E0FCF78EFD02463B69D31A022B48
:1043700001D9032320E0124B1B6803F00073002BCC
:10438000F0D118E07B68DB69012B01D1012313E038
:104390000B4B5B68FB60FB6803F480327B681B6A35
:1043A0009A4206D1FB6803F470127B685B6A9A42FA
:1043B00001D0012300E0002318461837BD4680BD18
:1043C00000100240007000406000424280B584B09E
:1043D00000AF786039607B68002B01D10123D0E009
:1043E0006A4B1B6803F007033A689A4210D9674B7F
:1043F0001B6823F0070265493B6813430B60634B5E
:104400001B6803F007033A689A4201D00123B8E021
:104410007B681B6803F00203002B20D07B681B68BD
:1044200003F00403002B05D0594B5B68584A43F452
:10443000E06353607B681B6803F00803002B05D022
:10444000534B5B68524A43F460535360504B5B6874
:1044500023F0F0027B689B684D4913434B607B68F7
:104460001B6803F00103002B40D07B685B68012BC5
:1044700007D1474B1B6803F40033002B15D10123F0
:104480007FE07B685B68022B07D1414B1B6803F020
:104490000073002B09D1012373E03D4B1B6803F02F
:1044A0000203002B01D101236BE0394B5B6823F041
:1044B00003027B685B68364913434B60FCF7E2FC00
:1044C000F8600AE0FCF7DEFC0246FB68D31A41F212
:1044D0008832934201D9032353E02D4B5B6803F0EC
:1044E0000C027B685B689B009A42EBD1274B1B68F0
:1044F00003F007033A689A4210D2244B1B6823F05A
:10450000070222493B6813430B60204B1B6803F0F2
:1045100007033A689A4201D0012332E07B681B68A6
:1045200003F00403002B08D0194B5B6823F4E0620E
:104530007B68DB68164913434B607B681B6803F09C
:104540000803002B09D0124B5B6823F460527B6890
:104550001B69DB000E4913434B6000F021F8014654
:104560000B4B5B681B0903F00F030A4AD35C21FA6B
:1045700003F3094A1360094B1B681846FCF740FC1B
:10458000002318461037BD4680BD00BF0020024002
:104590000010024038E80008BC00002000000020A5
:1045A00090B48AB000AF2A4B3C1D0FCB84E80F00BB
:1045B000284B1B883B800023FB610023BB61002349
:1045C0007B6200237B6100233B62234B5B68FB61C2
:1045D000FB6903F00C03042B02D0082B03D02DE061
:1045E0001E4B3B622DE0FB699B0C03F00F0307F1B0
:1045F0002802134413F8243C7B61FB6903F48033E5
:10460000002B13D0144B5B685B0C03F0010307F124
:104610002802134413F8283CBB617B690F4A02FB54
:1046200003F2BB69B2FBF3F37B6204E07B690C4AE3
:1046300002FB03F37B627B6A3B6202E0074B3B6257
:1046400000BF3B6A18462837BD4690BC704700BF84
:10465000F0D5000800D600080010024000127A00D1
:1046600000093D0080B400AF024B1B681846BD46F0
:1046700080BC7047BC00002080B500AFFFF7F2FFA0
:104680000146054B5B681B0A03F00703034AD35C32
:1046900021FA03F3184680BD0010024048E80008E4
:1046A00080B500AFFFF7DEFF0146054B5B68DB0A14
:1046B00003F00703034AD35C21FA03F3184680BDD5
:1046C0000010024048E8000880B485B000AF786070
:1046D0000A4B1B680A4AA2FB03235B0A7A6802FBA7
:1046E00003F3FB6000BFFB685A1EFA60002BF9D190
:1046F00000BF1437BD4680BC704700BFBC0000201F
:10470000D34D621080B586B000AF786000233B6166
:104710000023FB607B681B6803F00103002B7DD046
:104720000023FB754F4BDB6903F08053002B0DD149
:104730004C4BDB694B4A43F08053D361494BDB69F7
:1047400003F08053BB60BB680123FB75464B1B68BD
:1047500003F48073002B18D1434B1B68424A43F487
:1047600080731360FCF78EFB386108E0FCF78AFB6E
:1047700002463B69D31A642B01D903236DE03A4BFF
:104780001B6803F48073002BF0D0364B1B6A03F4D4
:104790004073FB60FB68002B2ED07B685B6803F4E2
:1047A0004073FA689A4227D02E4B1B6A23F4407359
:1047B000FB602E4B01221A602C4B00221A60294A02
:1047C000FB681362FB6803F00103002B14D0FCF7B5
:1047D00059FB38610AE0FCF755FB02463B69D31AE6
:1047E00041F28832934201D9032336E01D4B1B6A04
:1047F00003F00203002BEED01A4B1B6A23F4407225
:104800007B685B68174913430B62FB7D012B05D165
:10481000144BDB69134A23F08053D3617B681B6818
:1048200003F00203002B08D00E4B5B6823F44042D8
:104830007B689B680B4913434B607B681B6803F0E4
:104840001003002B08D0074B5B6823F480027B68C1
:10485000DB68044913434B60002318461837BD46F4
:1048600080BD00BF00100240007000404004424282
:1048700090B58DB000AF7860554B07F10C040FCBAD
:1048800084E80F00534B1B883B8100237B6200238D
:10489000FB6200233B620023FB610023BB627B6859
:1048A000022B7FD0102B02D0012B48D08BE04A4B3B
:1048B0005B68FB61484B1B6803F08073002B7FD063
:1048C000FB699B0C03F00F0307F13002134413F84C
:1048D000243C3B62FB6903F48033002B18D03E4B31
:1048E0005B685B0C03F0010307F13002134413F81B
:1048F000283C7B62FB6903F48033002B0DD0374AE0
:104900007B6AB2FBF3F23B6A02FB03F3FB6204E057
:104910003B6A334A02FB03F3FB622F4B5B6803F4F1
:104920008003B3F5800F02D1FB6ABB6248E0FB6AEB
:104930005B002C4AA2FB03235B08BB6240E0264BD2
:104940001B6AFB61FB6903F44073B3F5807F08D1F8
:10495000FB6903F00203002B03D04FF40043BB625A
:104960001FE0FB6903F44073B3F5007F09D11A4BD4
:104970005B6A03F00203002B03D049F64043BB629D
:104980000FE0FB6903F44073B3F5407F1AD1124B7B
:104990001B6803F40033002B14D04FF22443BB6296
:1049A00010E00FE0FFF77CFE02460B4B5B689B0BB1
:1049B00003F0030301335B00B2FBF3F3BB6202E0DD
:1049C00000BF00E000BFBB6A18463437BD4690BD4B
:1049D00004D6000814D600080010024000127A0025
:1049E00000093D00ABAAAAAA80B582B000AF7860EA
:1049F0007B68002B01D1012376E07B685B6A002B8A
:104A000008D17B685B68B3F5827F09D07B680022A0
:104A1000DA6105E07B6800221A617B6800225A6136
:104A20007B6800229A627B6893F85130DBB2002BDE
:104A300006D17B68002283F85020786802F0FCFFE2
:104A40007B68022283F851207B681B681A687B68A8
:104A50001B6822F040021A607B685B6803F4827274
:104A60007B689B6803F404431A437B68DB6803F4A8
:104A700000631A437B681B6903F002031A437B68D7
:104A80005B6903F001031A437B689B6903F40073BD
:104A90001A437B68DB6903F038031A437B681B6A9F
:104AA00003F0800342EA03017B689B6A03F400522F
:104AB0007B681B680A431A607B689B691A0C7B68D9
:104AC0001B6802F004025A607B681B68DA697B6825
:104AD0001B6822F40062DA617B6800225A657B68F9
:104AE000012283F85120002318460837BD4680BDB7
:104AF00080B588B000AFF860B9603B601346FB80BA
:104B00000023FB77FB6893F85030012B01D102237F
:104B100026E1FB68012283F85020FCF7B3F9B86165
:104B2000FB88FB82FB6893F85130DBB2012B02D08B
:104B30000223FB770BE1BB68002B02D0FB88002B24
:104B400002D10123FB7702E1FB68032283F85120A5
:104B5000FB6800225A65FB68BA681A63FB68FA882A
:104B60009A86FB68FA88DA86FB6800229A63FB68FB
:104B700000229A87FB680022DA87FB6800225A64C9
:104B8000FB6800221A64FB689B68B3F5004F0FD1E5
:104B9000FB681B681A68FB681B6822F040021A60F9
:104BA000FB681B681A68FB681B6842F480421A6045
:104BB000FB681B681B6803F04003402B07D0FB68B1
:104BC0001B681A68FB681B6842F040021A60FB68A9
:104BD000DB68B3F5006F4BD1FB685B68002B02D03C
:104BE000FB8A012B3ED1FB681B6B1A88FB681B6894
:104BF000DA60FB681B6B9A1CFB681A63FB68DB8E30
:104C00009BB2013B9AB2FB68DA862BE0FB681B681B
:104C10009B6803F00203022B12D1FB681B6B1A88FE
:104C2000FB681B68DA60FB681B6B9A1CFB681A63E5
:104C3000FB68DB8E9BB2013B9AB2FB68DA8611E01F
:104C4000FCF720F90246BB69D31A3A689A4203D8A6
:104C50003B68B3F1FF3F02D13B68002B02D1032335
:104C6000FB7774E0FB68DB8E9BB2002BCED14CE06F
:104C7000FB685B68002B02D0FB8A012B40D1FB68EC
:104C80001A6BFB681B680C3312781A70FB681B6B7D
:104C90005A1CFB681A63FB68DB8E9BB2013B9AB21D
:104CA000FB68DA862CE0FB681B689B6803F0020354
:104CB000022B13D1FB681A6BFB681B680C3312784C
:104CC0001A70FB681B6B5A1CFB681A63FB68DB8E4F
:104CD0009BB2013B9AB2FB68DA8611E0FCF7D2F88E
:104CE0000246BB69D31A3A689A4203D83B68B3F1CB
:104CF000FF3F02D13B68002B02D10323FB7726E064
:104D0000FB68DB8E9BB2002BCDD1BA693968F8689D
:104D100000F0B2F80346002B02D0FB6820225A654F
:104D2000FB689B68002B0AD100233B61FB681B6872
:104D3000DB683B61FB681B689B683B613B69FB6808
:104D40005B6D002B02D00123FB7700E000BFFB6806
:104D5000012283F85120FB68002283F85020FB7F5A
:104D600018462037BD4680BD80B588B000AFF860DA
:104D7000B9603B601346FB71FCF784F80246BB6ADE
:104D80009B1A3A681344FB61FCF77CF8B861394B15
:104D90001B685B011B0DFA6902FB03F37B6154E0A6
:104DA0003B68B3F1FF3F50D0FCF76CF80246BB699B
:104DB000D31AFA699A4202D9FB69002B3DD1FB68EC
:104DC0001B685A68FB681B6822F0E0025A60FB68A7
:104DD0005B68B3F5827F11D1FB689B68B3F5004F28
:104DE00004D0FB689B68B3F5806F07D1FB681B6834
:104DF0001A68FB681B6822F040021A60FB689B6A15
:104E0000B3F5005F0FD1FB681B681A68FB681B686D
:104E100022F400521A60FB681B681A68FB681B6862
:104E200042F400521A60FB68012283F85120FB68AB
:104E3000002283F85020032317E07B69002B01D167
:104E40000023FB617B69013B7B61FB681B689A68FF
:104E5000BB681340BA689A420CBF01230023DBB23F
:104E60001A46FB799A429BD1002318462037BD464B
:104E700080BD00BFBC00002080B586B002AFF860E6
:104E8000B9607A607B680093BB6800228021F86873
:104E9000FFF76AFF0346002B07D0FB685B6D43F00A
:104EA0002002FB685A65032300E0002318461037F0
:104EB000BD4680BD80B582B000AF78607B68002BB6
:104EC00001D1012341E07B6893F83D30DBB2002B38
:104ED00006D17B68002283F83C20786802F0EAFD66
:104EE0007B68022283F83D207B681A687B68043364
:104EF0001946104600F0CEFC7B68012283F846205C
:104F00007B68012283F83E207B68012283F83F20E2
:104F10007B68012283F840207B68012283F84120CE
:104F20007B68012283F842207B68012283F84320BA
:104F30007B68012283F844207B68012283F84520A6
:104F40007B68012283F83D20002318460837BD46C0
:104F500080BD000080B485B000AF78607B6893F8B6
:104F60003D30DBB2012B01D001233AE07B68022205
:104F700083F83D207B681B68DA687B681B6842F019
:104F80000102DA607B681B68184A93420ED07B6886
:104F90001B68B3F1804F09D07B681B68144A9342A9
:104FA00004D07B681B68134A934211D17B681B684D
:104FB0009B6803F00703FB60FB68062B10D07B683F
:104FC0001B681A687B681B6842F001021A6007E0E0
:104FD0007B681B681A687B681B6842F001021A60D4
:104FE000002318461437BD4680BC7047002C014092
:104FF000000400400008004080B582B000AF786037
:105000007B68002B01D1012341E07B6893F83D30A0
:10501000DBB2002B06D17B68002283F83C20786845
:1050200000F039F87B68022283F83D207B681A681B
:105030007B6804331946104600F02CFC7B68012283
:1050400083F846207B68012283F83E207B6801229A
:1050500083F83F207B68012283F840207B6801228F
:1050600083F841207B68012283F842207B6801227B
:1050700083F843207B68012283F844207B68012267
:1050800083F845207B68012283F83D2000231846E1
:105090000837BD4680BD80B483B000AF786000BFE4
:1050A0000C37BD4680BC704780B586B000AF7860D5
:1050B00039607B68002B01D1012393E07B6893F872
:1050C0003D30DBB2002B06D17B68002283F83C2008
:1050D000786802F045FD7B68022283F83D207B68FA
:1050E0001B689B687A68126823F4804323F00703E7
:1050F00093607B681A687B6804331946104600F099
:10510000C9FB7B681B689B687B617B681B689B692C
:105110003B617B681B681B6AFB603B681B687A69A4
:1051200013437B613B6923F4407323F003033B612A
:105130003B689A683B689B691B0213433A691343B7
:105140003B613B6923F4406323F00C033B613B6903
:1051500023F4704323F0F0033B613B68DA683B685B
:10516000DB691B0213433A6913433B613B681B69CC
:105170001A013B681B6A1B0313433A6913433B61E3
:10518000FB6823F02203FB603B685A683B685B695D
:105190001B011343FA681343FB607B681B687A6941
:1051A0009A607B681B683A699A617B681B68FA6839
:1051B0001A627B68012283F846207B68012283F80B
:1051C0003E207B68012283F83F207B68012283F820
:1051D00042207B68012283F843207B68012283F808
:1051E0003D20002318461837BD4680BD80B584B0E9
:1051F00000AF786039607B6893F83E30FB737B6862
:1052000093F83F30BB737B6893F842307B737B68C5
:1052100093F843303B733B68002B10D1FB7B012B91
:1052200002D17B7B012B01D0012388E07B68022225
:1052300083F83E207B68022283F8422031E03B68FD
:10524000042B10D1BB7B012B02D13B7B012B01D066
:10525000012374E07B68022283F83F207B680222EE
:1052600083F843201DE0FB7B012B08D1BB7B012B86
:1052700005D17B7B012B02D13B7B012B01D001238C
:105280005DE07B68022283F83E207B68022283F87F
:105290003F207B68022283F842207B68022283F849
:1052A00043203B68002B02D0042B10D01FE07B680A
:1052B0001B6801220021184600F06CFD7B681B680A
:1052C000DA687B681B6842F00202DA602EE07B68D5
:1052D0001B6801220421184600F05CFD7B681B68F6
:1052E000DA687B681B6842F00402DA601EE07B68C3
:1052F0001B6801220021184600F04CFD7B681B68EA
:1053000001220421184600F045FD7B681B68DA681D
:105310007B681B6842F00202DA607B681B68DA680F
:105320007B681B6842F00402DA6000BF7B681B6880
:105330001A687B681B6842F001021A600023184655
:105340001037BD4680BD80B582B000AF78607B6805
:105350001B681B6903F00203022B22D17B681B68C8
:10536000DB6803F00203022B1BD17B681B686FF024
:1053700002021A617B6801221A777B681B689B69AD
:1053800003F00303002B03D0786801F08BFC05E0E9
:10539000786800F056FA786800F05CFA7B680022C2
:1053A0001A777B681B681B6903F00403042B22D166
:1053B0007B681B68DB6803F00403042B1BD17B684C
:1053C0001B686FF004021A617B6802221A777B68FF
:1053D0001B689B6903F44073002B03D0786801F0CD
:1053E00061FC05E0786800F02CFA786800F032FA89
:1053F0007B6800221A777B681B681B6903F008032F
:10540000082B22D17B681B68DB6803F00803082B9C
:105410001BD17B681B686FF008021A617B6804224D
:105420001A777B681B68DB6903F00303002B03D04A
:10543000786801F037FC05E0786800F002FA7868D7
:1054400000F008FA7B6800221A777B681B681B69EA
:1054500003F01003102B22D17B681B68DB6803F07C
:105460001003102B1BD17B681B686FF010021A61B0
:105470007B6808221A777B681B68DB6903F440733A
:10548000002B03D0786801F00DFC05E0786800F08F
:10549000D8F9786800F0DEF97B6800221A777B681B
:1054A0001B681B6903F00103012B0ED17B681B688D
:1054B000DB6803F00103012B07D17B681B686FF0E9
:1054C00001021A61786801F08BFB7B681B681B691D
:1054D00003F08003802B0ED17B681B68DB6803F030
:1054E0008003802B07D17B681B686FF080021A61F4
:1054F000786800F0DAFC7B681B681B6903F04003E6
:10550000402B0ED17B681B68DB6803F04003402B07
:1055100007D17B681B686FF040021A61786800F061
:10552000A2F97B681B681B6903F02003202B0ED1B6
:105530007B681B68DB6803F02003202B07D17B68A6
:105540001B686FF020021A61786800F0A5FC00BFAC
:105550000837BD4680BD000080B584B000AFF8605C
:10556000B9607A60FB6893F83C30012B01D10223CB
:10557000ACE0FB68012283F83C207B680C2B00F236
:105580009F8001A252F823F0BD550008C1560008C3
:10559000C1560008C1560008FD550008C156000854
:1055A000C1560008C15600083F560008C156000801
:1055B000C1560008C15600087F560008FB681B68EA
:1055C000B968184600F0C8F9FB681B689A69FB685F
:1055D0001B6842F008029A61FB681B689A69FB68C5
:1055E0001B6822F004029A61FB681B689969BB681A
:1055F0001A69FB681B680A439A6162E0FB681B68D2
:10560000B968184600F00EFAFB681B689A69FB68D7
:105610001B6842F400629A61FB681B689A69FB6828
:105620001B6822F480629A61FB681B689969BB68F9
:105630001B691A02FB681B680A439A6141E0FB6818
:105640001B68B968184600F057FAFB681B68DA69EE
:10565000FB681B6842F00802DA61FB681B68DA69C4
:10566000FB681B6822F00402DA61FB681B68D969D9
:10567000BB681A69FB681B680A43DA6121E0FB68B2
:105680001B68B968184600F0A1FAFB681B68DA6964
:10569000FB681B6842F40062DA61FB681B68DA6928
:1056A000FB681B6822F48062DA61FB681B68D969B9
:1056B000BB681B691A02FB681B680A43DA6100E0D9
:1056C00000BFFB68002283F83C20002318461037F7
:1056D000BD4680BD80B584B000AF786039607B681E
:1056E00093F83C30012B01D10223A6E07B68012214
:1056F00083F83C207B68022283F83D207B681B688E
:105700009B68FB60FB6823F07703FB60FB6823F476
:105710007F43FB607B681B68FA689A603B681B6884
:10572000402B67D0402B0BD8102B73D0102B02D8F6
:10573000002B6FD078E0202B6CD0302B6AD073E038
:10574000702B0DD0702B04D8502B33D0602B41D050
:105750006AE0B3F5805F66D0B3F5005F17D063E011
:105760007B6818683B6899683B685A683B68DB68E7
:1057700000F0F1FA7B681B689B68FB60FB6843F0F4
:105780007703FB607B681B68FA689A604CE07B6873
:1057900018683B6899683B685A683B68DB6800F0AA
:1057A000DAFA7B681B689A687B681B6842F480425F
:1057B0009A6039E07B6818683B6859683B68DB6829
:1057C0001A4600F051FA7B681B685021184600F019
:1057D000A8FA29E07B6818683B6859683B68DB6871
:1057E0001A4600F06FFA7B681B686021184600F0CB
:1057F00098FA19E07B6818683B6859683B68DB6871
:105800001A4600F031FA7B681B684021184600F008
:1058100088FA09E07B681A683B681B6819461046DD
:1058200000F07FFA00E000BF7B68012283F83D2092
:105830007B68002283F83C20002318461037BD46C1
:1058400080BD80B483B000AF786000BF0C37BD4628
:1058500080BC704780B483B000AF786000BF0C3765
:10586000BD4680BC704780B483B000AF786000BF95
:105870000C37BD4680BC704780B483B000AF786001
:105880007B6893F83D30DBB218460C37BD4680BCD0
:105890007047000080B485B000AF786039607B68E5
:1058A0001B68FB607B68294A93420BD07B68B3F18D
:1058B000804F07D07B68264A934203D07B68254AF5
:1058C000934208D1FB6823F07003FB603B685B6880
:1058D000FA681343FB607B681C4A93420BD07B68D9
:1058E000B3F1804F07D07B68194A934203D07B689D
:1058F000184A934208D1FB6823F44073FB603B686D
:10590000DB68FA681343FB60FB6823F080023B68A6
:105910005B691343FB607B68FA681A603B689A68AE
:105920007B68DA623B681A687B689A627B68074A20
:10593000934203D13B681A697B681A637B68012232
:105940005A6100BF1437BD4680BC7047002C01402F
:10595000000400400008004080B487B000AF7860C9
:1059600039607B681B6A23F001027B681A627B68DE
:105970001B6A7B617B685B683B617B689B69FB6042
:10598000FB6823F07003FB60FB6823F00303FB60FC
:105990003B681B68FA681343FB607B6923F00203D2
:1059A0007B613B689B687A6913437B617B681C4A17
:1059B00093420CD17B6923F008037B613B68DB6871
:1059C0007A6913437B617B6923F004037B617B6805
:1059D000134A934211D13B6923F480733B613B69C5
:1059E00023F400733B613B685B693A6913433B6195
:1059F0003B689B693A6913433B617B683A695A602B
:105A00007B68FA689A613B685A687B685A637B686E
:105A10007A691A6200BF1C37BD4680BC704700BF60
:105A2000002C014080B487B000AF786039607B689B
:105A30001B6A23F010027B681A627B681B6A7B6119
:105A40007B685B683B617B689B69FB60FB6823F458
:105A5000E043FB60FB6823F44073FB603B681B681A
:105A60001B02FA681343FB607B6923F020037B6110
:105A70003B689B681B017A6913437B617B681D4A05
:105A800093420DD17B6923F080037B613B68DB6827
:105A90001B017A6913437B617B6923F040037B61BF
:105AA0007B68144A934213D13B6923F480633B61C2
:105AB0003B6923F400633B613B685B699B003A6987
:105AC00013433B613B689B699B003A6913433B610D
:105AD0007B683A695A607B68FA689A613B685A68E1
