:020000040800F2
:1000000000500020CDB400080D69000819690008EF
:100010001F690008256900082B690008000000001E
:10002000000000000000000000000000316900082E
:100030003D69000800000000496900085569000892
:1000400015B5000815B5000815B500086169000868
:1000500015B5000815B5000815B5000815B5000858
:1000600015B5000815B500087569000815B5000834
:1000700015B5000815B500088569000899690008DC
:1000800015B5000815B5000815B5000815B5000828
:1000900015B5000815B5000815B5000815B5000818
:1000A00015B5000815B5000815B5000815B5000808
:1000B000AD690008C1690008D5690008E969000850
:1000C00015B5000815B5000815B5000815B50008E8
:1000D00015B50008FD69000815B5000815B500083C
:1000E00015B5000815B5000815B50008000000009A
:1000F0000000000000000000000000000000000000
:0C01000000000000000000005FF808F1A3
:1001100010B5054C237833B9044B13B10448AFF341
:1001200000800123237010BD200200200000000089
:1001300034BE000808B5034B1BB103490348AFF3B5
:10014000008008BD000000002402002034BE00082A
:100150007BB972B90029BEBF00204FF0004106E014
:1001600008BF00281CBF6FF000414FF0FF3000F0C7
:10017000A7B9ADF1080C6DE904CE002909DB002B0D
:100180001ADB00F035F8DDF804E0DDE9022304B005
:100190007047404261EB4101002B1BDB00F028F867
:1001A000DDF804E0DDE9022304B0404261EB4101E7
:1001B000524263EB43037047524263EB430300F048
:1001C00017F8DDF804E0DDE9022304B0404261EBFA
:1001D00041017047524263EB430300F009F8DDF838
:1001E00004E0DDE9022304B0524263EB43037047AD
:1001F0002DE9F0478C460446089E002B4BD18A42DD
:10020000154667D9B2FA82F24AB1C2F1200701FA63
:1002100002F320FA07F7954047EA030C94404FEAAF
:10022000154EBCFBFEF71FFA85F80EFB17C307FB44
:1002300008F9210C41EA0343994509D9EB1807F164
:10024000FF3180F01C81994540F21981023F2B4417
:10025000A3EB0903B3FBFEF00EFB103300FB08F128
:10026000A4B244EA0344A14209D92C1900F1FF3396
:1002700080F00781A14240F2048102382C4440EA18
:1002800007400027641A1EB10023D440C6E900438A
:100290003946BDE8F0878B4209D9002E00F0EC808A
:1002A0000027C6E9000138463946BDE8F087B3FAB1
:1002B00083F7002F48D18B4202D3824200F2FB80A9
:1002C000841A61EB030301209C46002EE0D0C6E9AE
:1002D000004CDDE702B9FFDEB2FA82F2002A40F0FC
:1002E0008F800127491B4FEA15481FFA85F9B1FB9A
:1002F000F8FE08FB1E1109FB0EF04FEA144C4CEA05
:100300000143984207D9EB180EF1FF3102D298420F
:1003100000F2CD808E461B1AB3FBF8F008FB1033B9
:1003200009FB00F9A4B244EA0344A14507D92C19FA
:1003300000F1FF3302D2A14500F2B6801846A4EBCB
:10034000090440EA0E409EE7C7F12005BB4022FAAF
:1003500005FC4CEA030C21FA05F44FEA1C4EB4FBF1
:10036000FEF91FFA8CF80EFB194420FA05F3B94088
:1003700009FB08FA19430B0C43EA0444A24502FAAC
:1003800007F200FA07F30BD91CEB040409F1FF3064
:1003900080F08880A24540F28580A9F1020964447A
:1003A000A4EB0A04B4FBFEF00EFB104400FB08FAB9
:1003B00089B241EA0444A24508D91CEB040400F1C7
:1003C000FF316BD2A24569D90238644440EA094042
:1003D000A0FB0289A4EB0A044C454146CE4654D307
:1003E00051D0002E69D05A1A64EB0E0404FA05F5B8
:1003F00022FA07F3FC401D43C6E90054002747E7F3
:100400009540C2F1200321FA03F04FEA1548B0FBF2
:10041000F8F71FFA85F908FB170024FA03F3914057
:1004200007FB09FC0B43190C41EA00418C4504FA17
:1004300002F407D9691807F1FF3031D28C452FD962
:10044000023F2944A1EB0C01B1FBF8F008FB101CA2
:1004500000FB09FE99B241EA0C418E4507D96918A3
:1004600000F1FF3318D28E4516D902382944A1EB8A
:100470000E0140EA07473AE73746304608E70F469D
:10048000E6E61846FBE64345ABD2B8EB020169EB62
:100490000C0201389646A4E71846E8E7084695E7B7
:1004A0000746CFE781467BE702382C4447E7AEF1A9
:1004B000020E2B442FE7384607E73746E8E600BF31
:1004C000704700BF10F8012B11F8013B012A28BF2B
:1004D0009A42F7D0D01A7047034613F8012B002A2E
:1004E000FBD1181A0138704780B500AF084B1B6864
:1004F000074A43F010031360032000F045F9012080
:1005000000F008F805F0BCFF0023184680BD00BFCE
:100510000020024080B582B000AF7860124B1A68AC
:10052000124B1B7819464FF47A73B3FBF1F3B2FB0D
:10053000F3F3184600F06BF90346002B01D00123BA
:100540000EE07B680F2B0AD8002279684FF0FF304D
:1005500000F025F9064A7B681360002300E00123C0
:1005600018460837BD4680BDC800002004000020A2
:100570000000002080B400AF054B1B781A46054BE5
:100580001B681344034A136000BFBD4680BC70471C
:10059000040000204C04002080B400AF024B1B6814
:1005A0001846BD4680BC70474C04002080B485B01E
:1005B00000AF78607B6803F00703FB600C4BDB68DF
:1005C000BB60BA684FF6FF031340BB60FB681A02BA
:1005D000BB68134343F0BF6343F40033BB60044A7A
:1005E000BB68D36000BF1437BD4680BC704700BFF6
:1005F00000ED00E080B400AF044BDB681B0A03F0A1
:1006000007031846BD4680BC704700BF00ED00E000
:1006100080B483B000AF0346FB7197F90730002B1D
:100620000BDBFB7903F01F02064997F907305B09E2
:10063000012000FA02F241F8232000BF0C37BD462A
:1006400080BC704700E100E080B483B000AF034697
:10065000FB7197F90730002B10DBFB7903F01F02C9
:10066000094997F907305B09012000FA02F22033AB
:1006700041F82320BFF34F8FBFF36F8F00BF0C37BC
:10068000BD4680BC704700BF00E100E080B483B08D
:1006900000AF03463960FB7197F90730002B0ADB86
:1006A0003B68DAB20C4997F907301201D2B20B4419
:1006B00083F800230AE03B68DAB20849FB7903F0CB
:1006C0000F03043B1201D2B20B441A7600BF0C3761
:1006D000BD4680BC704700BF00E100E000ED00E0D7
:1006E00080B489B000AFF860B9607A60FB6803F04D
:1006F0000703FB61FB69C3F10703042B28BF042335
:10070000BB61FB690433062B02D9FB69033B00E0A4
:1007100000237B614FF0FF32BB6902FA03F3DA4337
:10072000BB681A407B699A404FF0FF317B6901FA40
:1007300003F3D9437B680B40134318462437BD4667
:1007400080BC704780B582B000AF78607B68013BA9
:10075000B3F1807F01D301230FE00A4A7B68013B9C
:1007600053600F214FF0FF30FFF790FF054B002241
:100770009A60044B07221A60002318460837BD46CA
:1007800080BD00BF10E000E080B582B000AF7860AF
:100790007868FFF70BFF00BF0837BD4680BD80B506
:1007A00086B000AF0346B9607A60FB7300237B61BB
:1007B000FFF720FF78617A68B9687869FFF790FFE2
:1007C000024697F90F3011461846FFF75FFF00BF4A
:1007D0001837BD4680BD80B582B000AF0346FB71BF
:1007E00097F907301846FFF713FF00BF0837BD46DB
:1007F00080BD80B582B000AF0346FB7197F907302A
:100800001846FFF721FF00BF0837BD4680BD80B501
:1008100082B000AF78607868FFF794FF034618460F
:100820000837BD4680BD000080B485B000AF786059
:100830000023FB607B68002B01D1012343E07B6830
:100840001B681A46224B1344224AA2FB03231B09AE
:100850009A007B681A647B681F4ADA637B6802220D
:1008600083F821207B681B681B68FB60FB6823F40E
:100870007F5323F03003FB607B685A687B689B687A
:100880001A437B68DB681A437B681B691A437B68E1
:100890005B691A437B689B691A437B68DB69134376
:1008A000FA681343FB607B681B68FA681A607B6810
:1008B00000229A637B68012283F821207B68002252
:1008C00083F82020002318461437BD4680BC7047AB
:1008D000F8FFFDBFCDCCCCCC0000024080B586B087
:1008E00000AFF860B9607A603B600023FB75FB687D
:1008F00093F82030012B01D102234AE0FB6801224A
:1009000083F82020FB6893F82130012B3AD1FB6853
:10091000022283F82120FB6800229A63FB681B688F
:100920001A68FB681B6822F001021A603B687A684B
:10093000B968F86800F0BAF9FB68DB6A002B08D0E8
:10094000FB681B681A68FB681B6842F00E021A609D
:100950000FE0FB681B681A68FB681B6822F0040242
:100960001A60FB681B681A68FB681B6842F00A0281
:100970001A60FB681B681A68FB681B6842F001027A
:100980001A6005E0FB68002283F820200223FB7533
:10099000FB7D18461837BD4680BD000080B584B089
:1009A00000AF78600023FB737B6893F82130022B43
:1009B00005D07B6804229A630123FB7351E07B68B6
:1009C0001B681A687B681B6822F00E021A607B683D
:1009D0001B681A687B681B6822F001021A607B683A
:1009E0001B68224A934229D07B681B68204A9342A5
:1009F00022D07B681B681F4A93421AD07B681B6811
:100A00001D4A934212D07B681B681C4A93420AD04D
:100A10007B681B681A4A934202D14FF480130EE0A0
:100A20004FF080730BE04FF4803308E04FF48053B5
:100A300005E04FF4807302E0102300E00123114A27
:100A400053607B68012283F821207B68002283F8B1
:100A500020207B685B6B002B03D07B685B6B786826
:100A60009847FB7B18461037BD4680BD0800024002
:100A70001C00024030000240440002405800024086
:100A80006C0002400000024080B584B000AF786086
:100A90007B68DB6B1B68FB607B681B681B68BB604B
:100AA0007B681B6C04229A40FB681340002B4FD0DC
:100AB000BB6803F00403002B4AD07B681B681B68EB
:100AC00003F02003002B07D17B681B681A687B6842
:100AD0001B6822F004021A607B681B68664A934216
:100AE00029D07B681B68654A934222D07B681B68CB
:100AF000634A93421AD07B681B68624A934212D0C1
:100B00007B681B68604A93420AD07B681B685F4A17
:100B1000934202D14FF480030EE04FF080630BE06C
:100B20004FF4802308E04FF4804305E04FF48063E6
:100B300002E0402300E00423554A53607B68DB6AEF
:100B4000002B00F094807B68DB6A786898478EE021
:100B50007B681B6C02229A40FB681340002B56D026
:100B6000BB6803F00203002B51D07B681B681B6835
:100B700003F02003002B0BD17B681B681A687B688D
:100B80001B6822F00A021A607B68012283F8212088
:100B90007B681B68384A934229D07B681B68374AB8
:100BA000934222D07B681B68354A93421AD07B68F7
:100BB0001B68344A934212D07B681B68324A9342C6
:100BC0000AD07B681B68314A934202D14FF400136C
:100BD0000EE04FF000730BE04FF4003308E04FF4E9
:100BE000005305E04FF4007302E0202300E00223ED
:100BF000274A53607B68002283F820207B689B6A29
:100C0000002B34D07B689B6A786898472FE07B681C
:100C10001B6C08229A40FB681340002B28D0BB684D
:100C200003F00803002B23D07B681B681A687B68DD
:100C30001B6822F00E021A607B681A6C7B68DB6B03
:100C4000012101FA02F25A607B6801229A637B68F3
:100C5000012283F821207B68002283F820207B6812
:100C60001B6B002B04D07B681B6B7868984700BF18
:100C700000BF1037BD4680BD080002401C00024086
:100C80003000024044000240580002406C00024024
:100C90000000024080B483B000AF78607B6893F8B6
:100CA000213018460C37BD4680BC704780B485B0F3
:100CB00000AFF860B9607A603B60FB681A6CFB6853
:100CC000DB6B012101FA02F25A60FB681B683A688B
:100CD0005A60FB685B68102B08D1FB681B687A6858
:100CE0009A60FB681B68BA68DA6007E0FB681B68FB
:100CF000BA689A60FB681B687A68DA6000BF1437CC
:100D0000BD4680BC7047000080B48BB000AF7860F7
:100D1000396000237B6200233B6227E101227B6A6A
:100D200002FA03F3FB613B681B68FA691340BB617D
:100D3000BA69FB699A4240F016813B685B68122BE6
:100D400034D0122B0DD8022B2BD0022B04D8002B21
:100D500031D0012B1CD048E0032B43D0112B1BD0EA
:100D600043E0894A934226D0874A934206D8874A6D
:100D7000934220D0864A93421DD036E0854A934262
:100D800019D0854A934216D0844A934213D02CE05E
:100D90003B68DB683B6228E03B68DB6804333B620E
:100DA00023E03B68DB6808333B621EE03B68DB689E
:100DB0000C333B6219E03B689B68002B02D1042393
:100DC0003B6212E03B689B68012B05D108233B6224
:100DD0007B68FA691A6108E008233B627B68FA695C
:100DE0005A6102E000233B6200BFBB69FF2B01D8C0
:100DF0007B6801E07B6804337B61BB69FF2B02D811
:100E00007B6A9B0002E07B6A083B9B003B617B693D
:100E10001A680F213B6901FA03F3DB431A40396A70
:100E20003B6901FA03F31A437B691A603B685B680C
:100E300003F08053002B00F09680594B9B69584A71
:100E400043F001039361564B9B6903F00103BB60C0
:100E5000BB68544A7B6A9B08023352F82330FB601C
:100E60007B6A03F003039B000F2202FA03F3DB43C8
:100E7000FA681340FB607B684B4A934213D07B684F
:100E80004A4A93420DD07B68494A934207D07B6817
:100E9000484A934201D1032306E0042304E00223DD
:100EA00002E0012300E000237A6A02F003029200CC
:100EB0009340FA681343FB603A497B6A9B0802330C
:100EC000FA6841F823203B685B6803F48033002B09
:100ED00006D0394B1A683849BB6913430B6006E0EA
:100EE000354B1A68BB69DB43334913400B603B68E1
:100EF0005B6803F40033002B06D02F4B5A682E4951
:100F0000BB6913434B6006E02B4B5A68BB69DB435C
:100F1000294913404B603B685B6803F48013002B46
:100F200006D0254B9A682449BB6913438B6006E0C1
:100F3000214B9A68BB69DB431F4913408B603B68B8
:100F40005B6803F40013002B06D01B4BDA681A49C8
:100F5000BB691343CB6006E0174BDA68BB69DB4320
:100F600015491340CB607B6A01337B623B681A688A
:100F70007B6A22FA03F3002B7FF4D0AE00BF2C373C
:100F8000BD4680BC704700BF00002110000011105A
:100F9000000012100000311000003210000022107A
:100FA000001002400000014000080140000C014018
:100FB00000100140001401400004014080B485B0DD
:100FC00000AF78600B467B807B689A687B88134013
:100FD000002B02D00123FB7301E00023FB73FB7B9A
:100FE00018461437BD4680BC704780B483B000AF4C
:100FF00078600B467B8013467B707B78002B03D098
:101000007A887B681A6103E07B881A047B681A611E
:1010100000BF0C37BD4680BC704780B483B000AFC2
:1010200078600B467B807B68DA687B881340002BF6
:1010300003D07A887B685A6102E07A887B681A61FB
:1010400000BF0C37BD4680BC7047000080B582B041
:1010500000AF0346FB80084B5A69FB881340002B06
:1010600006D0054AFB885361FB88184604F0A4FDAE
:1010700000BF0837BD4680BD0004014080B584B084
:1010800000AF78607B68002B01D101230FE17B6802
:1010900093F83D30DBB2002B06D17B68002283F849
:1010A0003C20786805F01EFA7B68242283F83D20F6
:1010B0007B681B681A687B681B6822F001021A6053
:1010C00002F03CF8F8607B685B687B4A934207D883
:1010D000FB687A4A934294BF01230023DBB206E007
:1010E000FB68774A934294BF01230023DBB2002BB5
:1010F00001D00123DBE0FB68724AA2FB03239B0CB7
:10110000BB607B681B685B6823F03F017B681B68E2
:10111000BA680A435A607B681B681B6A23F03F0168
:101120007B685B68644A934202D8BB68013309E07C
:10113000BB684FF4967202FB03F3634AA2FB0323DE
:101140009B0901337A6812680B4313627B681B6842
:10115000DB6923F44F4222F0FF027B685B6856494B
:101160008B420DD8FB68591E7B685B685B00B1FB46
:10117000F3F30133C3F30B03042B38BF04234FE015
:101180007B689B68002B11D1FB68581E7B685968EF
:101190000B465B000B44B0FBF3F30133C3F30B03CB
:1011A000002B0CBF01230023DBB212E0FB68581EAA
:1011B0007B6859680B469B000B4499000B44B0FBBD
:1011C000F3F30133C3F30B03002B0CBF0123002304
:1011D000DBB2002B01D0012322E07B689B68002B4F
:1011E0000ED1FB68581E7B6859680B465B000B44A8
:1011F000B0FBF3F30133C3F30B0343F400430FE0FD
:10120000FB68581E7B6859680B469B000B4499008D
:101210000B44B0FBF3F30133C3F30B0343F440433C
:10122000796809681343CB617B681B681B6823F0EE
:10123000C0017B68DA697B681B6A1A437B681B689C
:101240000A431A607B681B689B6823F4034323F0FE
:10125000FF037A6811697A68D26811437A68126864
:101260000B4393607B681B68DB6823F0FF017B689E
:101270005A697B689B691A437B681B680A43DA607A
:101280007B681B681A687B681B6842F001021A6061
:101290007B6800221A647B68202283F83D207B68EB
:1012A00000221A637B68002283F83E200023184640
:1012B0001037BD4680BD00BFA08601007F841E00A0
:1012C000FF083D0083DE1B43D34D621080B487B01E
:1012D00000AFF8607A601A460B467B8113463B816B
:1012E00000237B61FB6893F83D30DBB2202B40F09C
:1012F0008580454B1B68DB08444AA2FB03231A0A7E
:1013000013469B0013449A0013447B617B69013BA5
:101310007B617B69002B16D1FB6800221A63FB6896
:10132000202283F83D20FB68002283F83E20FB68E2
:101330001B6C43F02002FB681A64FB68002283F8F0
:101340003C2001235BE0FB681B689B6903F0020300
:10135000022BDBD0FB6893F83C30012B01D1022338
:101360004DE0FB68012283F83C20FB681B681B688A
:1013700003F00103012B07D0FB681B681A68FB68A8
:101380001B6842F001021A60FB681B681A68FB6860
:101390001B6822F400621A60FB68212283F83D205A
:1013A000FB68102283F83E20FB6800221A64FB6869
:1013B0007A685A62FB683A895A85FB685B8D9AB2F3
:1013C000FB681A85FB68124ADA627A89FB685A64FC
:1013D000FB681B681A68FB681B6842F480721A601D
:1013E000FB68002283F83C20FB681B685A68FB6896
:1013F0001B6842F4E0625A60002300E002231846B2
:101400001C37BD4680BC7047C800002089B5F81461
:101410000000FFFF80B588B000AF78600023BB619B
:101420007B681B685B687B617B68DB6A3B617B6810
:1014300093F83E30FB737B6893F83D30BB73FB7BC6
:10144000102B03D0FB7B402B40F0B6807B681B68E1
:101450009B69BB617B681B685B69FB61FB6903F08F
:101460000103002B0DD13B69B3F52A0F03D03B6973
:10147000B3F12A4F01D1012300E00023012B00F03A
:101480002781FB6903F00103002B0CD07B695B0A09
:1014900003F00103002B06D0786801F052FA786857
:1014A00000F051FC87E0FB69DB0803F00103002B2F
:1014B00009D07B695B0A03F00103002B03D0786835
:1014C00000F0C6FC77E0FB695B0803F00103002B2A
:1014D00009D07B695B0A03F00103002B03D0786815
:1014E00000F0DFFC67E0BB699B0803F00103002B01
:1014F00030D07B681B685B6803F40063B3F5006F52
:1015000000F0E880FB69DB0903F00103002B0FD03A
:101510007B699B0A03F00103002B09D0FB699B0840
:1015200003F00103002B03D1786800F032F942E0A8
:10153000FB699B0803F00103002B00F0CB807B6963
:101540005B0A03F00103002B00F0C480786800F010
:1015500018FABFE07B681B685B6803F40063B3F5AF
:10156000006F00F0B780FB699B0903F00103002BBB
:101570000FD07B699B0A03F00103002B09D0FB69A4
:101580009B0803F00103002B03D1786800F06FFA89
:1015900011E0FB699B0803F00103002B00F09A8027
:1015A0007B695B0A03F00103002B00F093807868ED
:1015B00000F0DFFA8EE08DE07B681B6C002B04D01E
:1015C0007B681B685B69FB6107E07B681B689B6944
:1015D000BB617B681B685B69FB61FB695B0803F0AF
:1015E0000103002B12D07B695B0A03F00103002B7F
:1015F0000CD07B681B6C002B03D07B681B689B693D
:10160000BB61B969786800F0A3FE66E0FB691B095D
:1016100003F00103002B09D07B695B0A03F001038F
:10162000002B03D0786800F0D7FE56E0BB7B212B5F
:1016300002D0BB7B292B25D1FB69DB0903F0010319
:10164000002B0FD07B699B0A03F00103002B09D00C
:10165000FB699B0803F00103002B03D1786800F0BD
:10166000BBFD39E0FB699B0803F00103002B33D07D
:101670007B695B0A03F00103002B2DD0786800F032
:10168000E8FD29E0FB699B0903F00103002B0FD063
:101690007B699B0A03F00103002B09D0FB699B08BF
:1016A00003F00103002B03D1786800F0F2FD14E091
:1016B000FB699B0803F00103002B0ED07B695B0ADA
:1016C00003F00103002B08D0786800F020FE04E04E
:1016D00000BF02E000BF00E000BF2037BD4680BD74
:1016E00080B483B000AF786000BF0C37BD4680BCCB
:1016F000704780B483B000AF786000BF0C37BD4640
:1017000080BC704780B483B000AF78600B46FB703C
:1017100013463B8000BF0C37BD4680BC704780B489
:1017200083B000AF786000BF0C37BD4680BC704707
:1017300080B483B000AF786000BF0C37BD4680BC7A
:10174000704780B483B000AF786000BF0C37BD46EF
:1017500080BC704780B483B000AF786000BF0C37A6
:10176000BD4680BC704780B483B000AF786000BFD6
:101770000C37BD4680BC704780B483B000AF786042
:101780007B6893F83D30DBB218460C37BD4680BC11
:10179000704780B584B000AF78607B6893F83D30C7
:1017A000FB737B6893F83E30BB737B68DB6ABB607E
:1017B0007B681B8D002B50D1FB7B212B4DD1BB684F
:1017C000082B1DD0BB68202B1AD0BB6813F5803FB7
:1017D00016D07B681B685A687B681B6822F4E0623D
:1017E0005A607B6811221A637B68002283F83E20CE
:1017F0007B68202283F83D20786804F01DF9BCE066
:101800007B681B685A687B681B6822F4E0625A6038
:101810007B681B681A687B681B6842F400721A6058
:101820007B6800221A637B68202283F83D207B6856
:1018300093F83E30DBB2402B07D17B68002283F85F
:101840003E207868FFF774FF97E07B68002283F8FA
:101850003E20786804F0F0F88FE0FB7B212B07D066
:10186000BB7B402B40F08980FB7B222B40F08580A6
:101870007B685B8D9BB2002B08D17B681B685A6824
:101880007B681B6822F480625A6076E07B6893F87C
:101890003E30DBB2402B5DD17B681B6D002B1DD130
:1018A0007B68DB6C012B0BD17B689B6CDAB27B68AD
:1018B0001B681A617B681B6D9A1C7B681A655CE06B
:1018C0007B689B6C9BB21B12DAB27B681B681A6147
:1018D0007B681B6D5A1C7B681A654EE07B681B6D2C
:1018E000012B0BD17B689B6CDAB27B681B681A6199
:1018F0007B681B6D5A1C7B681A653EE07B681B6D1C
:10190000022B3AD17B6893F83D30DBB2222B08D111
:101910007B681B681A687B681B6842F480721A60D7
:101920002BE07B6893F83D30DBB2212B25D17B681F
:101930005B6A1A787B681B681A617B685B6A5A1C51
:101940007B685A627B685B8D9BB2013B9AB27B6875
:101950005A8512E07B685B6A1A787B681B681A619B
:101960007B685B6A5A1C7B685A627B685B8D9BB2A2
:10197000013B9AB27B685A85FFE700BF1037BD462E
:1019800080BD80B584B000AF78607B68DB6AFB60A7
:101990007B6893F83D30DBB2212B64D17B685B8D93
:1019A0009BB2002B12D07B685B6A1A787B681B683D
:1019B0001A617B685B6A5A1C7B685A627B685B8D24
:1019C0009BB2013B9AB27B685A854CE0FB68082BBE
:1019D0001DD0FB68202B1AD0FB6813F5803F16D072
:1019E0007B681B685A687B681B6822F4E0625A6057
:1019F0007B6811221A637B68002283F83E207B6893
:101A0000202283F83D20786804F016F82BE07B68EC
:101A10001B685A687B681B6822F4E0625A607B6826
:101A20001B681A687B681B6842F400721A607B6846
:101A300000221A637B68202283F83D207B6893F89C
:101A40003E30DBB2402B07D17B68002283F83E207A
:101A50007868FFF76DFE06E07B68002283F83E2081
:101A6000786803F0E9FF00BF1037BD4680BD80B540
:101A700084B000AF78607B6893F83D30DBB2222BF6
:101A800073D17B685B8D9BB2FB60FB68032B20D915
:101A90007B681B681A697B685B6AD2B21A707B68C4
:101AA0005B6A5A1C7B685A627B685B8D9BB2013B08
:101AB0009AB27B685A857B685B8D9BB2032B54D1AD
:101AC0007B681B685A687B681B6822F480625A60D6
:101AD0004BE07B68DB6A022B47D0FB68012B02D00E
:101AE000FB68002B41D17B681B681A687B681B6808
:101AF00022F480621A607B681B685A687B681B68E6
:101B000022F4E0625A607B681B681A697B685B6A32
:101B1000D2B21A707B685B6A5A1C7B685A627B6817
:101B20005B8D9BB2013B9AB27B685A857B68202211
:101B300083F83D207B6893F83E30DBB2402B0AD11E
:101B40007B68002283F83E207B6800221A63786855
:101B5000FFF7F7FD09E07B68002283F83E207B68F1
:101B600012221A63786803F07FFF00BF1037BD466A
:101B700080BD80B584B000AF78607B68DB6AFB60B5
:101B80007B685B8D9BB2042B1BD17B681B685A68FA
:101B90007B681B6822F480625A607B681B681A6944
:101BA0007B685B6AD2B21A707B685B6A5A1C7B687E
:101BB0005A627B685B8D9BB2013B9AB27B685A8507
:101BC000BDE07B685B8D9BB2032B29D17B681B68D2
:101BD0005A687B681B6822F480625A60FB68042B99
:101BE0000AD0FB68022B07D07B681B681A687B68E9
:101BF0001B6822F480621A607B681B681A697B6824
:101C00005B6AD2B21A707B685B6A5A1C7B685A6244
:101C10007B685B8D9BB2013B9AB27B685A858EE0F4
:101C20007B685B8D9BB2022B76D1FB68012B02D0C7
:101C3000FB68102B08D17B681B681A687B681B68DF
:101C400022F480621A6019E0FB68042B02D0FB6862
:101C5000022B08D17B681B681A687B681B6842F4FA
:101C600080621A600AE0FB68102B07D07B681B6853
:101C70001A687B681B6842F400721A607B681B68F4
:101C80001A697B685B6AD2B21A707B685B6A5A1CFD
:101C90007B685A627B685B8D9BB2013B9AB27B6822
:101CA0005A857B681B681A697B685B6AD2B21A70B6
:101CB0007B685B6A5A1C7B685A627B685B8D9BB24F
:101CC000013B9AB27B685A857B681B685A687B68BF
:101CD0001B6822F440725A607B68202283F83D2002
:101CE0007B6893F83E30DBB2402B0AD17B68002240
:101CF00083F83E207B6800221A637868FFF721FD95
:101D00001DE07B68002283F83E207B6812221A6364
:101D1000786803F0A9FE12E07B681B681A697B688B
:101D20005B6AD2B21A707B685B6A5A1C7B685A6223
:101D30007B685B8D9BB2013B9AB27B685A8500BF82
:101D40001037BD4680BD80B483B000AF78607B683B
:101D500093F83E30DBB2402B17D17B681B6D002B14
:101D600009D17B685B6CDBB21A467B681B6802F0AA
:101D7000FE021A6167E07B685B6CDBB243F0010333
:101D8000DAB27B681B681A615DE07B681B69B3F59A
:101D9000804F33D17B6893F83D30DBB2212B09D1E2
:101DA0007B685B6CDBB21A467B681B6802F0FE0244
:101DB0001A6108E07B685B6CDBB243F00103DAB2C6
:101DC0007B681B681A617B685B6B002B03D17B68A7
:101DD0009B6B002B37D07B685B6B9B6A002B04D11D
:101DE0007B689B6B9B6A002B2DD07B681B685A68B5
:101DF0007B681B6842F400625A6024E07B681B6DBC
:101E0000002B0ED17B685B6C9BB2DB11DBB203F065
:101E10000603DBB263F00F03DAB27B681B681A615A
:101E200011E07B681B6D012B0DD17B685B6C9BB255
:101E3000DB11DBB203F00603DBB263F00E03DAB2B0
:101E40007B681B681A6100BF0C37BD4680BC7047B9
:101E500080B483B000AF78607B685B6CDAB27B687B
:101E60001B681A617B685B6B002B03D17B689B6BE3
:101E7000002B11D07B685B6B9B6A002B04D17B68C5
:101E80009B6B9B6A002B07D07B681B685A687B683A
:101E90001B6842F400625A6000BF0C37BD4680BC2C
:101EA000704780B491B000AF78607B6893F83E30A3
:101EB00087F83F307B68DB6ABB637B681B6B7B63A7
:101EC0007B6893F83D30DBB2222B40F074817B6855
:101ED0001B6D002B0FD197F83F30402B0BD1002307
:101EE0003B637B681B685B693B637B681B689B6922
:101EF0003B633B6B6BE17B681B6D002B1DD17B68EB
:101F00001B69B3F5404F18D10023FB627B681B6847
:101F10005B69FB627B681B689B69FB62FB6A7B6891
:101F20001B681A687B681B6842F480721A607B68C1
:101F30001B6D5A1C7B681A6549E17B685B8D9BB2FF
:101F4000002B13D10023BB627B681B685B69BB62FB
:101F50007B681B689B69BB62BB6A7B681B681A68ED
:101F60007B681B6842F400721A6020E17B685B8D1D
:101F70009BB2012B40F08A80BB6B13F5803F37D1B9
:101F80007B681B681A687B681B6822F480621A6091
:101F90007B681B685B6803F40063B3F5006F13D1C3
:101FA0007B681B681A687B681B6822F480621A6071
:101FB00000237B627B681B685B697B627B681B68B4
:101FC0009B697B627B6AF2E000233B627B681B6853
:101FD0005B693B627B681B689B693B623B6A7B6811
:101FE0001B681A687B681B6842F400721A60DEE0A6
:101FF000BB6B082B2ED0BB6B202B2BD07B6B122BFB
:1020000002D1BB6B012B25D1BB6B042B0ED0BB6B5C
:10201000022B0BD0BB6B102B08D07B681B681A6897
:102020007B681B6822F480621A6007E07B681B688B
:102030001A687B681B6842F480621A600023FB61A7
:102040007B681B685B69FB617B681B689B69FB6144
:10205000FB69ACE07B681B681A687B681B6822F42C
:1020600080621A600023BB617B681B685B69BB618F
:102070007B681B689B69BB61BB697B681B681A68CE
:102080007B681B6842F400721A6090E07B685B8D8D
:102090009BB2022B58D1BB6B042B21D0BB6B022B04
:1020A0001ED0BB6B102B1BD07B681B681A687B682B
:1020B0001B6842F400621A6000237B617B681B6826
:1020C0005B697B617B681B689B697B617B697B6863
:1020D0001B681A687B681B6822F480621A6012E031
:1020E0007B681B681A687B681B6842F480621A6010
:1020F00000233B617B681B685B693B617B681B68F5
:102100009B693B613B697B681B685B6803F4006308
:10211000B3F5006F4BD1BB6B13F5803F0BD0BB6B9E
:10212000012B08D0BB6B082B05D0BB6B102B02D04A
:10213000BB6B202B3BD17B681B685A687B681B6894
:1021400042F480525A6032E07B681B681A687B68F0
:102150001B6842F480621A607B681B685B6803F44A
:102160000063B3F5006F17D1BB6B13F5803F0BD045
:10217000BB6B012B08D0BB6B082B05D0BB6B102BA6
:1021800002D0BB6B202B07D17B681B685A687B6829
:102190001B6842F480525A600023FB607B681B6816
:1021A0005B69FB607B681B689B69FB60FB687B6805
:1021B00000221A650BE00023BB607B681B685B692B
:1021C000BB607B681B689B69BB60BB68FFE700BFA7
:1021D0004437BD4680BC704780B584B000AF78609E
:1021E0007B6893F83D30FB737B685B8D9BB2002B63
:1021F0002BD07B685B6A1A787B681B681A617B68E6
:102200005B6A5A1C7B685A627B685B8D9BB2013BA0
:102210009AB27B685A857B685B8D9BB2002B14D188
:10222000FB7B292B11D17B681B685A687B681B6874
:1022300022F480625A607B6821221A637B6828221C
:1022400083F83D207868FFF74BFA00BF1037BD4692
:1022500080BD80B483B000AF78607B685B8D9BB23B
:10226000002B11D07B685B6A1A787B681B681A6147
:102270007B685B6A5A1C7B685A627B685B8D9BB289
:10228000013B9AB27B685A8500BF0C37BD4680BCC3
:10229000704780B584B000AF78607B6893F83D30BC
:1022A000FB737B685B8D9BB2002B2CD07B681B681B
:1022B0001A697B685B6AD2B21A707B685B6A5A1CC7
:1022C0007B685A627B685B8D9BB2013B9AB27B68EC
:1022D0005A857B685B8D9BB2002B14D1FB7B2A2B2C
:1022E00011D17B681B685A687B681B6822F4806286
:1022F0005A607B6822221A637B68282283F83D207B
:102300007868FFF7F6F900BF1037BD4680BD80B48E
:1023100083B000AF78607B685B8D9BB2002B12D0DE
:102320007B681B681A697B685B6AD2B21A707B682B
:102330005B6A5A1C7B685A627B685B8D9BB2013B6F
:102340009AB27B685A8500BF0C37BD4680BC704787
:1023500080B584B000AF786039600023FB737B6880
:1023600093F83D30DBB203F02803282B27D17B689C
:102370001B685A687B681B6822F480625A603B685D
:102380009B0803F00103002B01D10123FB733B6881
:10239000DB0903F00103002B03D17B68DB68BB8101
:1023A00002E07B689B69BB817B68002283F83C204C
:1023B000BA89FB7B19467868FFF7A4F908E07B68C7
:1023C0001B686FF002025A617B68002283F83C2090
:1023D00000BF1037BD4680BD80B584B000AF7860C7
:1023E0007B6893F83D30FB737B681B685A687B6899
:1023F0001B6822F4E0625A600023BB607B681B68A4
:102400005B69BB607B681B681A687B681B6842F06D
:1024100001021A60BB687B681B681A687B681B68CE
:1024200022F480621A607B681B685B6803F40063B7
:10243000B3F5006F72D1FB7B222B02D0FB7B2A2BE2
:1024400035D17B689B6B1B685B689AB27B685A8549
:102450007B685B8D9BB2002B05D07B681B6C43F0C7
:1024600004027B681A647B681B685A687B681B6877
:1024700022F400625A607B689B6B1846FEF70AFCE8
:102480000346012B49D07B689B6B694A5A637B6882
:102490009B6B1846FEF782FA0346002B3DD07B6803
:1024A0009B6B5B6B7A68926B1046984735E07B6854
:1024B0005B6B1B685B689AB27B685A857B685B8D37
:1024C0009BB2002B05D07B681B6C43F004027B6839
:1024D0001A647B681B685A687B681B6822F4006278
:1024E0005A607B685B6B1846FEF7D4FB0346012BF2
:1024F00014D07B685B6B4E4A5A637B685B6B1846F3
:10250000FEF74CFA0346002B08D07B685B6B5B6BD5
:102510007A68526B1046984700E000BF7B685B8D7D
:102520009BB2002B3ED07B681B685B6903F0040301
:10253000042B12D17B681B681A697B685B6AD2B274
:102540001A707B685B6A5A1C7B685A627B685B8D79
:102550009BB2013B9AB27B685A857B681B685B69BA
:1025600003F04003402B12D17B681B681A697B681B
:102570005B6AD2B21A707B685B6A5A1C7B685A62CB
:102580007B685B8D9BB2013B9AB27B685A857B6806
:102590005B8D9BB2002B05D07B681B6C43F0040263
:1025A0007B681A647B681B6C002B03D0786800F092
:1025B00043F839E0FB7B2A2B09D17B6800221A63A0
:1025C0007B68282283F83D207868FFF792F87B68C3
:1025D00093F83D30DBB2282B11D17B68154ADA62C3
:1025E0007B6800221A637B68202283F83D207B6889
:1025F000002283F83E207868FFF791F814E07B68AA
:102600001B6B222B02D0FB7B222B0DD17B6800227F
:102610001A637B68202283F83D207B68002283F8C0
:102620003E207868FFF765F800BF1037BD4680BDD3
:10263000652800080000FFFF80B584B000AF786017
:102640007B6893F83D30FB737B6893F83E30DBB2D8
:10265000102B0AD1FB7B222B07D17B681B681A68E1
:102660007B681B6822F400621A60FB7B03F028037E
:10267000282B07D17B6800221A637B68282283F805
:102680003D2015E07B681B685B6803F40063B3F5CD
:10269000006F06D0FB7B602B03D07B68202283F881
:1026A0003D207B6800221A637B68002283F83E206D
:1026B0007B681B685B6803F40063B3F5006F61D14E
:1026C0007B681B685A687B681B6822F400625A604A
:1026D0007B685B6B93F82130012B20D07B685B6BB0
:1026E0005E4A5A637B685B6B1846FEF757F90346F0
:1026F000002B00F089807B681B681A687B681B6868
:1027000022F001021A607B68202283F83D207B685A
:102710005B6B5B6B7A68526B1046984774E07B6822
:102720009B6B4E4A5A637B689B6B1846FEF736F9E3
:102730000346002B68D07B681B685B6903F040038D
:10274000402B0BD17B681B681A697B685B6AD2B22D
:102750001A707B685B6A5A1C7B685A627B681B68CC
:102760001A687B681B6822F001021A607B682022CD
:1027700083F83D207B689B6B5B6B7A68926B10469D
:10278000984741E07B6893F83D30DBB2602B25D160
:102790007B68202283F83D207B6800221A647B68D6
:1027A0001B685B6903F04003402B0BD17B681B68FF
:1027B0001A697B685B6AD2B21A707B685B6A5A1CC2
:1027C0007B685A627B681B681A687B681B6822F00A
:1027D00001021A607868FEF7C6FF15E07B681B6887
:1027E0005B6903F04003402B0BD17B681B681A69BF
:1027F0007B685B6AD2B21A707B685B6A5A1C7B6822
:102800005A627868FEF7A6FF7B6893F83D30FB7349
:102810007B681B6C03F00403042B1BD1FB7B282B70
:1028200018D17B681B685A687B681B6822F4E062D9
:102830005A607B680A4ADA627B6800221A637B6806
:10284000202283F83D207B68002283F83E207868B0
:10285000FEF765FF00BF1037BD4680BD6528000844
:102860000000FFFF80B584B000AF78607B685B6AD2
:10287000FB60FB6893F83D30FB72FB685B6B0022EA
:102880009A62FB689B6B00229A62FB681B681A685D
:10289000FB681B6822F480621A60FB6800225A857C
:1028A000FB685B6B00225A63FB689B6B00225A63D8
:1028B000FB681B681A68FB681B6822F001021A603B
:1028C000FB6893F83D30DBB2602B0ED1FB68202211
:1028D00083F83D20FB68002283F83E20FB6800223D
:1028E0001A64F868FEF73FFF27E0FB7A03F028033D
:1028F000282B17D1FB681B681A68FB681B6842F01D
:1029000001021A60FB681B681A68FB681B6842F4C6
:1029100080621A60FB6800221A63FB68282283F831
:102920003D2007E0FB68202283F83D20FB68002261
:1029300083F83E20F868FEF70DFF00BF1037BD4654
:1029400080BD80B483B000AF78607B68DB6AB3F58C
:102950002A0F03D17B680122DA6207E07B68DB6A19
:10296000B3F12A4F02D17B680822DA6200BF0C372C
:10297000BD4680BC7047000080B400AF034B01220D
:102980001A6000BFBD4680BC704700BF20000E42E9
:1029900080B586B000AF78607B68002B01D1012341
:1029A0006CE27B681B6803F00103002B00F087805A
:1029B000924B5B6803F00C03042B0CD08F4B5B68CD
:1029C00003F00C03082B12D18C4B5B6803F48033AB
:1029D000B3F5803F0BD1894B1B6803F40033002B08
:1029E0006CD07B685B68002B68D1012346E27B6872
:1029F0005B68B3F5803F06D1804B1B687F4A43F488
:102A0000803313602EE07B685B68002B0CD17B4B1E
:102A10001B687A4A23F480331360784B1B68774A2B
:102A200023F4802313601DE07B685B68B3F5A02F5F
:102A30000CD1724B1B68714A43F4802313606F4BB7
:102A40001B686E4A43F4803313600BE06B4B1B68CA
:102A50006A4A23F480331360684B1B68674A23F487
:102A6000802313607B685B68002B13D0FDF794FD17
:102A7000386108E0FDF790FD02463B69D31A642BEC
:102A800001D90323FAE15D4B1B6803F40033002BEB
:102A9000F0D014E0FDF780FD386108E0FDF77CFD23
:102AA00002463B69D31A642B01D90323E6E1534B59
:102AB0001B6803F40033002BF0D100E000BF7B68FB
:102AC0001B6803F00203002B63D04C4B5B6803F0E0
:102AD0000C03002B0BD0494B5B6803F00C03082B55
:102AE0001CD1464B5B6803F48033002B16D1434B5B
:102AF0001B6803F00203002B05D07B681B69012BC8
:102B000001D00123BAE13D4B1B6823F0F8027B683A
:102B10005B69DB00394913430B603AE07B681B6952
:102B2000002B20D0364B01221A60FDF735FD3861AD
:102B300008E0FDF731FD02463B69D31A022B01D9AB
:102B400003239BE12D4B1B6803F00203002BF0D005
:102B50002A4B1B6823F0F8027B685B69DB0027497E
:102B600013430B6015E0264B00221A60FDF714FD9D
:102B7000386108E0FDF710FD02463B69D31A022BCD
:102B800001D903237AE11D4B1B6803F00203002BDC
:102B9000F0D17B681B6803F00803002B3AD07B68F8
:102BA0009B69002B19D0174B01221A60FDF7F4FC2A
:102BB000386108E0FDF7F0FC02463B69D31A022BAE
:102BC00001D903235AE10D4B5B6A03F00203002B8A
:102BD000F0D0012000F0DAFA1CE00A4B00221A6063
:102BE000FDF7DAFC38610FE0FDF7D6FC02463B69E1
:102BF000D31A022B08D9032340E100BF0010024082
:102C000000004242800442429E4B5B6A03F0020392
:102C1000002BE9D17B681B6803F00403002B00F054
:102C2000A6800023FB75974BDB6903F08053002BD4
:102C30000DD1944BDB69934A43F08053D361914BA0
:102C4000DB6903F08053BB60BB680123FB758E4BCF
:102C50001B6803F48073002B18D18B4B1B688A4AC6
:102C600043F480731360FDF797FC386108E0FDF7CB
:102C700093FC02463B69D31A642B01D90323FDE080
:102C8000814B1B6803F48073002BF0D07B68DB68FA
:102C9000012B06D17B4B1B6A7A4A43F00103136276
:102CA0002DE07B68DB68002B0CD1764B1B6A754AE4
:102CB00023F001031362734B1B6A724A23F004036F
:102CC00013621CE07B68DB68052B0CD16D4B1B6A23
:102CD0006C4A43F0040313626A4B1B6A694A43F06F
:102CE000010313620BE0674B1B6A664A23F0010382
:102CF0001362644B1B6A634A23F0040313627B680C
:102D0000DB68002B15D0FDF747FC38610AE0FDF7C2
:102D100043FC02463B69D31A41F28832934201D9FF
:102D20000323ABE0574B1B6A03F00203002BEED0EA
:102D300014E0FDF731FC38610AE0FDF72DFC024696
:102D40003B69D31A41F28832934201D9032395E0BB
:102D50004C4B1B6A03F00203002BEED1FB7D012BD1
:102D600005D1484BDB69474A23F08053D3617B6828
:102D7000DB69002B00F08180424B5B6803F00C03A1
:102D8000082B61D07B68DB69022B46D13F4B0022C8
:102D90001A60FDF701FC386108E0FDF7FDFB024613
:102DA0003B69D31A022B01D9032367E0354B1B681B
:102DB00003F00073002BF0D17B681B6AB3F5803FF2
:102DC00008D1304B5B6823F400327B689B682D4947
:102DD00013434B602B4B5B6823F474127B68196AB6
:102DE0007B685B6A0B43274913434B60274B0122E7
:102DF0001A60FDF7D1FB386108E0FDF7CDFB024614
:102E00003B69D31A022B01D9032337E01D4B1B6802
:102E100003F00073002BF0D02FE01C4B00221A604F
:102E2000FDF7BAFB386108E0FDF7B6FB02463B69E7
:102E3000D31A022B01D9032320E0124B1B6803F0A5
:102E40000073002BF0D118E07B68DB69012B01D106
:102E5000012313E00B4B5B68FB60FB6803F48032DB
:102E60007B681B6A9A4206D1FB6803F470127B6888
:102E70005B6A9A4201D0012300E00023184618370C
:102E8000BD4680BD0010024000700040600042421C
:102E900080B584B000AF786039607B68002B01D1C9
:102EA0000123D0E06A4B1B6803F007033A689A429B
:102EB00010D9674B1B6823F0070265493B68134331
:102EC0000B60634B1B6803F007033A689A4201D01A
:102ED0000123B8E07B681B6803F00203002B20D0BD
:102EE0007B681B6803F00403002B05D0594B5B681B
:102EF000584A43F4E06353607B681B6803F008039F
:102F0000002B05D0534B5B68524A43F46053536027
:102F1000504B5B6823F0F0027B689B684D4913437C
:102F20004B607B681B6803F00103002B40D07B687B
:102F30005B68012B07D1474B1B6803F40033002B60
:102F400015D101237FE07B685B68022B07D1414BE1
:102F50001B6803F00073002B09D1012373E03D4B84
:102F60001B6803F00203002B01D101236BE0394BF6
:102F70005B6823F003027B685B68364913434B6050
:102F8000FDF70AFBF8600AE0FDF706FB0246FB6866
:102F9000D31A41F28832934201D9032353E02D4BD7
:102FA0005B6803F00C027B685B689B009A42EBD184
:102FB000274B1B6803F007033A689A4210D2244B50
:102FC0001B6823F0070222493B6813430B60204B28
:102FD0001B6803F007033A689A4201D0012332E0EC
:102FE0007B681B6803F00403002B08D0194B5B6857
:102FF00023F4E0627B68DB68164913434B607B680F
:103000001B6803F00803002B09D0124B5B6823F404
:1030100060527B681B69DB000E4913434B6000F074
:1030200021F801460B4B5B681B0903F00F030A4AAA
:10303000D35C21FA03F3094A1360094B1B68184655
:10304000FDF768FA002318461037BD4680BD00BF63
:10305000002002400010024094D00008C800002068
:103060000000002090B48AB000AF2A4B3C1D0FCB6B
:1030700084E80F00284B1B883B800023FB61002362
:10308000BB6100237B6200237B6100233B62234BF7
:103090005B68FB61FB6903F00C03042B02D0082B77
:1030A00003D02DE01E4B3B622DE0FB699B0C03F02F
:1030B0000F0307F12802134413F8243C7B61FB69DA
:1030C00003F48033002B13D0144B5B685B0C03F0CC
:1030D000010307F12802134413F8283CBB617B6904
:1030E0000F4A02FB03F2BB69B2FBF3F37B6204E01D
:1030F0007B690C4A02FB03F37B627B6A3B6202E062
:10310000074B3B6200BF3B6A18462837BD4690BC60
:10311000704700BF4CBE00085CBE000800100240B3
:1031200000127A0000093D0080B400AF024B1B681A
:103130001846BD4680BC7047C800002080B500AF6F
:10314000FFF7F2FF0146054B5B681B0A03F007031C
:10315000034AD35C21FA03F3184680BD00100240F5
:10316000A4D0000880B500AFFFF7DEFF0146054B95
:103170005B68DB0A03F00703034AD35C21FA03F31D
:10318000184680BD00100240A4D0000880B485B06D
:1031900000AF78600A4B1B680A4AA2FB03235B0A54
:1031A0007A6802FB03F3FB6000BFFB685A1EFA60FB
:1031B000002BF9D100BF1437BD4680BC704700BF5B
:1031C000C8000020D34D621080B586B000AF786093
:1031D00000233B610023FB607B681B6803F0010355
:1031E000002B7DD00023FB754F4BDB6903F0805330
:1031F000002B0DD14C4BDB694B4A43F08053D3611C
:10320000494BDB6903F08053BB60BB680123FB754E
:10321000464B1B6803F48073002B18D1434B1B688B
:10322000424A43F480731360FDF7B6F9386108E051
:10323000FDF7B2F902463B69D31A642B01D9032387
:103240006DE03A4B1B6803F48073002BF0D0364BD3
:103250001B6A03F44073FB60FB68002B2ED07B6875
:103260005B6803F44073FA689A4227D02E4B1B6ABE
:1032700023F44073FB602E4B01221A602C4B00227A
:103280001A60294AFB681362FB6803F00103002BF4
:1032900014D0FDF781F938610AE0FDF77DF90246A7
:1032A0003B69D31A41F28832934201D9032336E0B5
:1032B0001D4B1B6A03F00203002BEED01A4B1B6A56
:1032C00023F440727B685B68174913430B62FB7DF4
:1032D000012B05D1144BDB69134A23F08053D361D2
:1032E0007B681B6803F00203002B08D00E4B5B6861
:1032F00023F440427B689B680B4913434B607B6817
:103300001B6803F01003002B08D0074B5B6823F405
:1033100080027B68DB68044913434B600023184636
:103320001837BD4680BD00BF00100240007000404D
:103330004004424290B58DB000AF7860554B07F124
:103340000C040FCB84E80F00534B1B883B810023F8
:103350007B620023FB6200233B620023FB610023AE
:10336000BB627B68022B7FD0102B02D0012B48D090
:103370008BE04A4B5B68FB61484B1B6803F0807332
:10338000002B7FD0FB699B0C03F00F0307F1300289
:10339000134413F8243C3B62FB6903F48033002B95
:1033A00018D03E4B5B685B0C03F0010307F1300261
:1033B000134413F8283C7B62FB6903F48033002B31
:1033C0000DD0374A7B6AB2FBF3F23B6A02FB03F390
:1033D000FB6204E03B6A334A02FB03F3FB622F4BC0
:1033E0005B6803F48003B3F5800F02D1FB6ABB6214
:1033F00048E0FB6A5B002C4AA2FB03235B08BB622C
:1034000040E0264B1B6AFB61FB6903F44073B3F594
:10341000807F08D1FB6903F00203002B03D04FF437
:103420000043BB621FE0FB6903F44073B3F5007F08
:1034300009D11A4B5B6A03F00203002B03D049F653
:103440004043BB620FE0FB6903F44073B3F5407F78
:103450001AD1124B1B6803F40033002B14D04FF227
:103460002443BB6210E00FE0FFF77CFE02460B4BEB
:103470005B689B0B03F0030301335B00B2FBF3F3C8
:10348000BB6202E000BF00E000BFBB6A18463437F1
:10349000BD4690BD60BE000870BE0008001002402E
:1034A00000127A0000093D00ABAAAAAA80B584B038
:1034B00000AF78600023FB607B68002B01D1012303
:1034C00084E07B685B7CDBB2002B05D17B6800224B
:1034D0001A74786803F04CF87B6802225A74786892
:1034E00000F0C8F90346002B04D07B6804225A740C
:1034F00001236BE0786800F081FA0346002B04D0CA
:103500007B6804225A74012360E07B681B685A6858
:103510007B681B6822F007025A607B689B68002B5F
:1035200005D02C4B1B6B2B4A23F001031363294B53
:10353000DB6A23F460727B689B6826491343CB6285
:103540007B685B68B3F1FF3F03D07B685B68FB601F
:103550000EE00120FFF7EEFEF860FB68002B04D1BF
:103560007B6804225A74012330E0FB68013BFB6056
:103570007B681B689B6823F00F01FB681A0C7B6853
:103580001B680A439A607B681B68DB681B0C1B0482
:10359000FA6891B27A6812680B43D360786800F0D9
:1035A00055FA0346002B04D07B6804225A74012389
:1035B0000CE07B680022DA737B6801225A737B6817
:1035C00001229A737B6801225A740023184610372F
:1035D000BD4680BD006C004090B587B000AFF8607C
:1035E000B9607A6000237B6100233B61FB68002B9C
:1035F00002D0BB68002B01D1012380E0FB681B7C5B
:10360000012B01D102237AE0FB6801221A74FB68C6
:1036100002225A747B68002B13D1BB681B781A46B0
:103620004FF4616303FB02F2BB685B7819460B46FB
:103630001B015B1A9B001344BA68927813447B61A8
:103640001EE0BB681B78184600F028FA03461A46AD
:103650004FF4616303FB02F4BB685B78184600F02B
:103660001DFA03461A4613461B019B1A9B001C4475
:10367000BB689B78184600F011FA034623447B612F
:103680007969F86800F053F90346002B07D0FB680E
:1036900004225A74FB6800221A7401232FE0FB688D
:1036A0001B685A68FB681B6822F005025A60F868BC
:1036B00000F064F938613B69B3F1FF3F18D03A6913
:1036C0007B699A4214D23B6903F5A83303F5C073B2
:1036D0003B613969F86800F06AF90346002B07D0AE
:1036E000FB6804225A74FB6800221A74012306E066
:1036F000FB6801225A74FB6800221A7400231846E2
:103700001C37BD4690BD000080B588B000AFF860A2
:10371000B9607A600023FB610023BB6100237B61F9
:10372000FB68002B02D0BB68002B01D1012397E07E
:10373000FB681B7C012B01D1022391E0FB68012275
:103740001A74FB6802225A747B68002B0CD1BB6888
:10375000DA78FB68DA73BB685A78FB685A73BB681F
:103760009A78FB689A731AE0BB68DB78184600F019
:1037700095F903461A46FB68DA73BB685B7818460E
:1037800000F08CF903461A46FB685A73BB689B78B5
:10379000184600F083F903461A46FB689A73FB68E3
:1037A000DB7B1846FB68597BFB689B7B1A4600F065
:1037B00093F903461A46FB681A73FB681A7BBB68C9
:1037C0001A70F86800F083F8F861FB69264AA2FBDA
:1037D0000323DB0A7B617B69182B3AD97B69234A77
:1037E000A2FB03231B09224A02FB03F3FA69D31A43
:1037F000FB61F969F86800F09AF80346002B07D0DE
:10380000FB6804225A74FB6800221A74012327E023
:10381000F86800F0B3F8B861BB69B3F1FF3F18D0A6
:10382000BA69FB699A4214D2BB6903F5A83303F560
:10383000C073BB61B969F86800F0B9F80346002BA2
:1038400007D0FB6804225A74FB6800221A74012313
:1038500006E0FB6801225A74FB6800221A740023F8
:1038600018462037BD4680BDC5B3A291ABAAAAAA0F
:103870008051010080B584B000AF78600023FB6008
:103880007B68002B01D101231DE07B681B685A680F
:103890007B681B6822F008025A60FCF77DFEF86026
:1038A00009E0FCF779FE0246FB68D31AB3F57A7F8C
:1038B00001D9032307E07B681B685B6803F00803FA
:1038C000002BEED0002318461037BD4680BD80B4D3
:1038D00087B000AF786000237B8200233B82002307
:1038E000FB8100237B617B681B689B697B827B6813
:1038F0001B68DB69FB817B681B689B693B827A8A5A
:103900003B8A9A4208D03B8A1A047B681B68DB69B1
:103910009BB213437B6104E07B8A1A04FB89134347
:103920007B617B6918461C37BD4680BC704780B5FB
:1039300084B000AF786039600023FB73786800F0D2
:103940005DF80346002B02D00123FB7311E07B6876
:103950001B683A68120C9A617B681B683A6892B2DD
:10396000DA61786800F072F80346002B01D0012379
:10397000FB73FB7B18461037BD4680BD80B485B015
:1039800000AF78600023FB810023BB817B681B684C
:103990001B6AFB817B681B685B6ABB81FB891A041D
:1039A000BB89134318461437BD4680BC704780B5A9
:1039B00084B000AF786039600023FB73786800F052
:1039C0001DF80346002B02D00123FB7311E07B6836
:1039D0001B683A68120C1A627B681B683A6892B2DC
:1039E0005A62786800F032F80346002B01D00123B8
:1039F000FB73FB7B18461037BD4680BD80B584B095
:103A000000AF78600023FB60FCF7C6FDF86009E0BA
:103A1000FCF7C2FD0246FB68D31AB3F57A7F01D9E1
:103A200003230FE07B681B685B6803F02003002B17
:103A3000EED07B681B685A687B681B6842F01002F6
:103A40005A60002318461037BD4680BD80B584B04B
:103A500000AF78600023FB607B681B685A687B6856
:103A60001B6822F010025A60FCF796FDF86009E02E
:103A7000FCF792FD0246FB68D31AB3F57A7F01D9B1
:103A8000032307E07B681B685B6803F02003002BBF
:103A9000EED0002318461037BD4680BD80B485B0F7
:103AA00000AF0346FB710023FB60FB791B09DBB20F
:103AB0001A4613469B0013445B00FB60FB7903F03E
:103AC0000F03DAB2FB68DBB21344DBB218461437DB
:103AD000BD4680BC7047000080B485B000AF786000
:103AE0000B46FB701346BB700023BB600023FB60DA
:103AF0007B6803F5FA63BB60FB78022B2DD8FA785C
:103B000013465B001344DB009B1A2C4AA2FB0323E1
:103B10005A08BB781A44BB681A44BB68013B9B082F
:103B20001A44BB68013B2649A1FB03135B09D21A67
:103B3000BB68013B2249A1FB0313DB0913441A1D97
:103B4000204BA3FB0213D11A49080B4499080B46DA
:103B5000DB005B1AD31AFB6029E0FA7813465B009E
:103B60001344DB009B1A154AA2FB03235A08BB78B7
:103B70001A44BB681A44BB689B081A44BB681049C6
:103B8000A1FB03135B09D21ABB680D49A1FB031308
:103B9000DB0913449A1C0B4BA3FB0213D11A4908EF
:103BA0000B4499080B46DB005B1AD31AFB60FB68D9
:103BB000DBB218461437BD4680BC7047398EE338F7
:103BC0001F85EB512549922480B582B000AF786003
:103BD0007B681B681B6803F00103002B24D07B6803
:103BE0001B685B6803F00103002B1DD07B681B681A
:103BF0005B6803F00403002B0BD0786800F021F819
:103C00007B681B686FF004025A607B6804225A7458
:103C100005E0786800F00CF87B6801225A747B6834
:103C20001B686FF001025A6000BF0837BD4680BDB7
:103C300080B483B000AF786000BF0C37BD4680BC55
:103C4000704780B483B000AF786000BF0C37BD46CA
:103C500080BC704780B582B000AF78607B68002B75
:103C600001D1012353E07B6800229A627B6893F8BC
:103C70005130DBB2002B06D17B68002283F8502044
:103C8000786802F0A1FC7B68022283F851207B68EF
:103C90001B681A687B681B6822F040021A607B6808
:103CA0005A687B689B681A437B68DB681A437B68A9
:103CB0001B691A437B685B691A437B689B6903F441
:103CC00000731A437B68DB691A437B681B6A42EA0C
:103CD00003017B689A6A7B681B680A431A607B68E9
:103CE0009B691A0C7B681B6802F004025A607B68AF
:103CF0001B68DA697B681B6822F40062DA617B6802
:103D000000225A657B68012283F85120002318465F
:103D10000837BD4680BD80B588B000AFF860B96097
:103D20003B601346FB800023FB77FB6893F8503021
:103D3000012B01D102231EE1FB68012283F85020F0
:103D4000FCF72AFCB861FB88FB82FB6893F85130D2
:103D5000DBB2012B02D00223FB7703E1BB68002B0F
:103D600002D0FB88002B02D10123FB77FAE0FB682D
:103D7000032283F85120FB6800225A65FB68BA6869
:103D80001A63FB68FA889A86FB68FA88DA86FB6809
:103D900000229A63FB6800229A87FB680022DA8778
:103DA000FB6800225A64FB6800221A64FB689B6867
:103DB000B3F5004F07D1FB681B681A68FB681B68E6
:103DC00042F480421A60FB681B681B6803F04003E2
:103DD000402B07D0FB681B681A68FB681B6842F021
:103DE00040021A60FB68DB68B3F5006F4BD1FB68DB
:103DF0005B68002B02D0FB8A012B3ED1FB681B6B5A
:103E00001A88FB681B68DA60FB681B6B9A1CFB68EE
:103E10001A63FB68DB8E9BB2013B9AB2FB68DA86C1
:103E20002BE0FB681B689B6803F00203022B12D196
:103E3000FB681B6B1A88FB681B68DA60FB681B6BEE
:103E40009A1CFB681A63FB68DB8E9BB2013B9AB23B
:103E5000FB68DA8611E0FCF79FFB0246BB69D31AC8
:103E60003A689A4203D83B68B3F1FF3F02D13B68FE
:103E7000002B02D10323FB7774E0FB68DB8E9BB23F
:103E8000002BCED14CE0FB685B68002B02D0FB8A94
:103E9000012B40D1FB681A6BFB681B680C3312784E
:103EA0001A70FB681B6B5A1CFB681A63FB68DB8E7D
:103EB0009BB2013B9AB2FB68DA862CE0FB681B6878
:103EC0009B6803F00203022B13D1FB681A6BFB689B
:103ED0001B680C3312781A70FB681B6B5A1CFB684A
:103EE0001A63FB68DB8E9BB2013B9AB2FB68DA86F1
:103EF00011E0FCF751FB0246BB69D31A3A689A42BB
:103F000003D83B68B3F1FF3F02D13B68002B02D1DD
:103F10000323FB7726E0FB68DB8E9BB2002BCDD121
:103F2000BA693968F86800F094F80346002B02D0AB
:103F3000FB6820225A65FB689B68002B0AD100238E
:103F40003B61FB681B68DB683B61FB681B689B6827
:103F50003B613B69FB685B6D002B02D00123FB7763
:103F600000E000BFFB68012283F85120FB680022BB
:103F700083F85020FB7F18462037BD4680BD80B5B2
:103F800084B000AFF860B9603B601346FB714CE051
:103F90003B68B3F1FF3F48D0FCF7FEFA0246BB692D
:103FA000D31A3A689A4202D93B68002B3DD1FB688C
:103FB0001B685A68FB681B6822F0E0025A60FB68C5
:103FC0005B68B3F5827F11D1FB689B68B3F5004F46
:103FD00004D0FB689B68B3F5806F07D1FB681B6852
:103FE0001A68FB681B6822F040021A60FB689B6A33
:103FF000B3F5005F0FD1FB681B681A68FB681B688C
:1040000022F400521A60FB681B681A68FB681B6880
:1040100042F400521A60FB68012283F85120FB68C9
:10402000002283F8502003230FE0FB681B689A6886
:10403000BB681340BA689A420CBF01230023DBB26D
:104040001A46FB799A42A3D1002318461037BD4681
:1040500080BD80B586B002AFF860B9607A607B68D9
:104060000093BB6800228021F868FFF788FF0346B1
:10407000002B07D0FB685B6D43F02002FB685A659C
:10408000032300E0002318461037BD4680BD80B5ED
:1040900082B000AF78607B68002B01D101231DE066
:1040A0007B6893F83D30DBB2002B06D17B680022A1
:1040B00083F83C20786802F009FB7B68022283F8D1
:1040C0003D207B681A687B6804331946104600F06F
:1040D0001DFC7B68012283F83D2000231846083729
:1040E000BD4680BD80B485B000AF78607B681B683A
:1040F000DA687B681B6842F00102DA607B681B6843
:104100009B6803F00703FB60FB68062B07D07B6806
:104110001B681A687B681B6842F001021A60002362
:1041200018461437BD4680BC704780B483B000AFDA
:1041300078607B681B68DA687B681B6822F0010284
:10414000DA607B681B681A6A41F211131340002B76
:104150000FD17B681B681A6A40F244431340002B5E
:1041600007D17B681B681A687B681B6822F0010214
:104170001A60002318460C37BD4680BC704780B5D6
:1041800082B000AF78607B68002B01D101231DE075
:104190007B6893F83D30DBB2002B06D17B680022B0
:1041A00083F83C20786800F015F87B68022283F8D9
:1041B0003D207B681A687B6804331946104600F07E
:1041C000A5FB7B68012283F83D20002318460837B1
:1041D000BD4680BD80B483B000AF786000BF0C37AF
:1041E000BD4680BC704780B586B000AF786039604E
:1041F0007B68002B01D101237FE07B6893F83D3081
:10420000DBB2002B06D17B68002283F83C20786863
:1042100002F018FA7B68022283F83D207B681B6855
:104220009B687A68126823F4804323F00703936045
:104230007B681A687B6804331946104600F066FBF9
:104240007B681B689B687B617B681B689B693B6123
:104250007B681B681B6AFB603B681B687A691343B9
:104260007B613B6923F4407323F003033B613B68AC
:104270009A683B689B691B0213433A6913433B618D
:104280003B6923F4406323F00C033B613B6923F457
:10429000704323F0F0033B613B68DA683B68DB69FD
:1042A0001B0213433A6913433B613B681B691A01C4
:1042B0003B681B6A1B0313433A6913433B61FB686A
:1042C00023F02203FB603B685A683B685B691B0173
:1042D0001343FA681343FB607B681B687A699A6032
:1042E0007B681B683A699A617B681B68FA681A6286
:1042F0007B68012283F83D20002318461837BD460D
:1043000080BD80B582B000AF786039603B68002B1B
:1043100002D0042B10D01FE07B681B680122002113
:10432000184600F073FD7B681B68DA687B681B68C1
:1043300042F00202DA602EE07B681B680122042151
:10434000184600F063FD7B681B68DA687B681B68B1
:1043500042F00402DA601EE07B681B680122002143
:10436000184600F053FD7B681B68012204211846A3
:1043700000F04CFD7B681B68DA687B681B6842F0C4
:104380000202DA607B681B68DA687B681B6842F0AF
:104390000402DA6000BF7B681B681A687B681B68D0
:1043A00042F001021A60002318460837BD4680BD5E
:1043B00080B582B000AF78607B681B681B6903F032
:1043C0000203022B22D17B681B68DB6803F0020327
:1043D000022B1BD17B681B686FF002021A617B689D
:1043E00001221A777B681B689B6903F00303002B8B
:1043F00003D0786801F0F2FA05E0786800F05DFA21
:10440000786800F063FA7B6800221A777B681B6883
:104410001B6903F00403042B22D17B681B68DB6853
:1044200003F00403042B1BD17B681B686FF00402AC
:104430001A617B6802221A777B681B689B6903F408
:104440004073002B03D0786801F0C8FA05E0786863
:1044500000F033FA786800F039FA7B6800221A77A6
:104460007B681B681B6903F00803082B22D17B685B
:104470001B68DB6803F00803082B1BD17B681B68F3
:104480006FF008021A617B6804221A777B681B6848
:10449000DB6903F00303002B03D0786801F09EFA78
:1044A00005E0786800F009FA786800F00FFA7B6898
:1044B00000221A777B681B681B6903F01003102B1E
:1044C00022D17B681B68DB6803F01003102B1BD123
:1044D0007B681B686FF010021A617B6808221A77EC
:1044E0007B681B68DB6903F44073002B03D078689A
:1044F00001F074FA05E0786800F0DFF9786800F000
:10450000E5F97B6800221A777B681B681B6903F05A
:104510000103012B0ED17B681B68DB6803F00103EC
:10452000012B07D17B681B686FF001021A61786864
:1045300001F008FA7B681B681B6903F08003802B7D
:104540000ED17B681B68DB6803F08003802B07D1EA
:104550007B681B686FF080021A61786800F0C7FC06
:104560007B681B681B6903F04003402B0ED17B68FE
:104570001B68DB6803F04003402B07D17B681B6896
:104580006FF040021A61786800F0A9F97B681B6837
:104590001B6903F02003202B0ED17B681B68DB68AE
:1045A00003F02003202B07D17B681B686FF02002EB
:1045B0001A61786800F092FC00BF0837BD4680BDE4
:1045C00080B584B000AFF860B9607A60FB6893F89A
:1045D0003C30012B01D10223B4E0FB68012283F8B7
:1045E0003C20FB68022283F83D207B680C2B00F204
:1045F0009F8001A252F823F02D46000831470008A1
:1046000031470008314700086D460008314700086F
:104610003147000831470008AF460008314700081D
:104620003147000831470008EF460008FB681B6867
:10463000B968184600F0CCF9FB681B689A69FB68FA
:104640001B6842F008029A61FB681B689A69FB6864
:104650001B6822F004029A61FB681B689969BB68B9
:104660001A69FB681B680A439A6162E0FB681B6871
:10467000B968184600F012FAFB681B689A69FB6873
:104680001B6842F400629A61FB681B689A69FB68C8
:104690001B6822F480629A61FB681B689969BB6899
:1046A0001B691A02FB681B680A439A6141E0FB68B8
:1046B0001B68B968184600F05BFAFB681B68DA698A
:1046C000FB681B6842F00802DA61FB681B68DA6964
:1046D000FB681B6822F00402DA61FB681B68D96979
:1046E000BB681A69FB681B680A43DA6121E0FB6852
:1046F0001B68B968184600F0A5FAFB681B68DA6900
:10470000FB681B6842F40062DA61FB681B68DA69C7
:10471000FB681B6822F48062DA61FB681B68D96958
:10472000BB681B691A02FB681B680A43DA6100E078
:1047300000BFFB68012283F83D20FB68002283F85C
:104740003C20002318461037BD4680BD80B584B09C
:1047500000AF786039607B6893F83C30012B01D161
:104760000223A6E07B68012283F83C207B680222BA
:1047700083F83D207B681B689B68FB60FB6823F027
:104780007703FB60FB6823F47F43FB607B681B6857
:10479000FA689A603B681B68402B67D0402B0BD8A7
:1047A000102B73D0102B02D8002B6FD078E0202B69
:1047B0006CD0302B6AD073E0702B0DD0702B04D8E6
:1047C000502B33D0602B41D06AE0B3F5805F66D0C8
:1047D000B3F5005F17D063E07B6818683B689968A1
:1047E0003B685A683B68DB6800F0F1FA7B681B683D
:1047F0009B68FB60FB6843F07703FB607B681B688A
:10480000FA689A604CE07B6818683B6899683B6876
:104810005A683B68DB6800F0DAFA7B681B689A68C4
:104820007B681B6842F480429A6039E07B681868B4
:104830003B6859683B68DB681A4600F051FA7B68B0
:104840001B685021184600F0A8FA29E07B68186818
:104850003B6859683B68DB681A4600F06FFA7B6872
:104860001B686021184600F098FA19E07B68186808
:104870003B6859683B68DB681A4600F031FA7B6890
:104880001B684021184600F088FA09E07B681A6826
:104890003B681B681946104600F07FFA00E000BF35
:1048A0007B68012283F83D207B68002283F83C204E
:1048B000002318461037BD4680BD80B483B000AFDA
:1048C000786000BF0C37BD4680BC704780B483B0B1
:1048D00000AF786000BF0C37BD4680BC704780B425
:1048E00083B000AF786000BF0C37BD4680BC704716
:1048F00080B483B000AF78607B6893F83D30DBB262
:1049000018460C37BD4680BC7047000080B485B0A7
:1049100000AF786039607B681B68FB607B68294A60
:1049200093420BD07B68B3F1804F07D07B68264A57
:10493000934203D07B68254A934208D1FB6823F059
:104940007003FB603B685B68FA681343FB607B683D
:104950001C4A93420BD07B68B3F1804F07D07B6831
:10496000194A934203D07B68184A934208D1FB68E6
:1049700023F44073FB603B68DB68FA681343FB6019
:10498000FB6823F080023B685B691343FB607B6834
:10499000FA681A603B689A687B68DA623B681A6852
:1049A0007B689A627B68074A934203D13B681A6925
:1049B0007B681A637B6801225A6100BF1437BD46C9
:1049C00080BC7047002C01400004004000080040FB
:1049D00080B487B000AF786039607B681B6A23F0D1
:1049E00001027B681A627B681B6A7B617B685B687B
:1049F0003B617B689B69FB60FB6823F07003FB6095
:104A0000FB6823F00303FB603B681B68FA681343F1
:104A1000FB607B6923F002037B613B689B687A69DA
:104A200013437B617B681C4A93420CD17B6923F062
:104A300008037B613B68DB687A6913437B617B69B0
:104A400023F004037B617B68134A934211D13B69D5
:104A500023F480733B613B6923F400733B613B6843
:104A60005B693A6913433B613B689B693A6913434D
:104A70003B617B683A695A607B68FA689A613B6877
:104A80005A687B685A637B687A691A6200BF1C3770
:104A9000BD4680BC704700BF002C014080B487B089
:104AA00000AF786039607B681B6A23F010027B6876
:104AB0001A627B681B6A7B617B685B683B617B6811
:104AC0009B69FB60FB6823F4E043FB60FB6823F415
:104AD0004073FB603B681B681B02FA681343FB6072
:104AE0007B6923F020037B613B689B681B017A692B
:104AF00013437B617B681D4A93420DD17B6923F090
:104B000080037B613B68DB681B017A6913437B612F
:104B10007B6923F040037B617B68144A934213D185
:104B20003B6923F480633B613B6923F400633B6191
:104B30003B685B699B003A6913433B613B689B6937
:104B40009B003A6913433B617B683A695A607B6812
:104B5000FA689A613B685A687B689A637B687A69ED
:104B60001A6200BF1C37BD4680BC7047002C014054
:104B700080B487B000AF786039607B681B6A23F42B
:104B800080727B681A627B681B6A7B617B685B68EA
:104B90003B617B68DB69FB60FB6823F07003FB60B3
:104BA000FB6823F00303FB603B681B68FA68134350
:104BB000FB607B6923F400737B613B689B681B028D
:104BC0007A6913437B617B681D4A93420DD17B69EF
:104BD00023F400637B613B68DB681B027A69134343
:104BE0007B617B6923F480637B617B68144A934219
:104BF00013D13B6923F480533B613B6923F4005399
:104C00003B613B685B691B013A6913433B613B684D
:104C10009B691B013A6913433B617B683A695A609F
:104C20007B68FA68DA613B685A687B68DA637B689C
:104C30007A691A6200BF1C37BD4680BC704700BF4E
:104C4000002C014080B487B000AF786039607B6889
:104C50001B6A23F480527B681A627B681B6A3B6183
:104C60007B685B687B617B68DB69FB60FB6823F4C6
:104C7000E043FB60FB6823F44073FB603B681B6808
:104C80001B02FA681343FB603B6923F400533B614A
:104C90003B689B681B033A6913433B617B680F4A7F
:104CA000934209D17B6923F480437B613B685B6954
:104CB0009B017A6913437B617B687A695A607B68E0
:104CC000FA68DA613B685A687B681A647B683A69FB
:104CD0001A6200BF1C37BD4680BC7047002C0140E3
:104CE00080B487B000AFF860B9607A60FB681B6A77
:104CF0007B61FB681B6A23F00102FB681A62FB6898
:104D00009B693B613B6923F0F0033B617B681B01BE
:104D10003A6913433B617B6923F00A037B617A693B
:104D2000BB6813437B61FB683A699A61FB687A69E7
:104D30001A6200BF1C37BD4680BC704780B487B084
:104D400000AFF860B9607A60FB681B6A23F010025C
:104D5000FB681A62FB689B697B61FB681B6A3B61AD
:104D60007B6923F470437B617B681B037A6913437F
:104D70007B613B6923F0A0033B61BB681B013A697F
:104D800013433B61FB687A699A61FB683A691A626E
:104D900000BF1C37BD4680BC704780B485B000AFF3
:104DA000786039607B689B68FB60FB6823F0700368
:104DB000FB603A68FB68134343F00703FB607B68C2
:104DC000FA689A6000BF1437BD4680BC704780B453
:104DD00087B000AFF860B9607A603B60FB689B68A1
:104DE0007B617B6923F47F437B613B681A027B68AC
:104DF0001A43BB6813437A6913437B61FB687A6982
:104E00009A6000BF1C37BD4680BC704780B487B035
:104E100000AFF860B9607A60BB6803F01F0301223D
:104E200002FA03F37B61FB681A6A7B69DB431A4071
:104E3000FB681A62FB681A6ABB6803F01F03796893
:104E400001FA03F31A43FB681A6200BF1C37BD4620
:104E500080BC704780B485B000AF786039607B68F3
:104E600093F83C30012B01D1022332E07B68012210
:104E700083F83C207B68022283F83D207B681B6816
:104E80005B68FB607B681B689B68BB60FB6823F00A
:104E90007003FB603B681B68FA681343FB60BB68E8
:104EA00023F08003BB603B685B68BA681343BB6058
:104EB0007B681B68FA685A607B681B68BA689A60EE
:104EC0007B68012283F83D207B68002283F83C2028
:104ED000002318461437BD4680BC704780B483B0A9
:104EE00000AF786000BF0C37BD4680BC704780B40F
:104EF00083B000AF786000BF0C37BD4680BC704700
:104F000080B582B000AF78607B68002B01D10123AF
:104F10003FE07B6893F83930DBB2002B06D17B6829
:104F2000002283F83820786801F046FC7B68242250
:104F300083F839207B681B68DA687B681B6822F479
:104F40000052DA60786800F023FC7B681B681A69FD
:104F50007B681B6822F490421A617B681B685A695F
:104F60007B681B6822F02A025A617B681B68DA683A
:104F70007B681B6842F40052DA607B680022DA63C7
:104F80007B68202283F839207B68202283F83A202E
:104F9000002318460837BD4680BD000080B586B0A6
:104FA00000AFF860B9601346FB80FB6893F83930B6
:104FB000DBB2202B53D1BB68002B02D0FB88002B27
:104FC00001D101234CE0FB6893F83830012B01D16B
:104FD000022345E0FB68012283F83820BA68FB68A9
:104FE0001A62FB68FA889A84FB68FA88DA84FB689C
:104FF0000022DA63FB68212283F83920FB681B6BEF
:10500000194A9A62FB681B6B184ADA62FB681B6BD1
:10501000174A1A63FB681B6B00225A6307F10803E7
:105020007B61FB68186B7B691968FB681B6804333C
:105030001A46FB88FBF752FCFB681B686FF04002C6
:105040001A60FB68002283F83820FB681B685A69E5
:10505000FB681B6842F080025A61002300E00223D3
:1050600018461837BD4680BDA3530008F553000805
:105070009554000880B586B000AFF860B96013465B
:10508000FB80FB6893F83A30DBB2202B66D1BB681B
:10509000002B02D0FB88002B01D101235FE0FB68CD
:1050A00093F83830012B01D1022358E0FB6801222C
:1050B00083F83820BA68FB689A62FB68FA889A8598
:1050C000FB680022DA63FB68222283F83A20FB683F
:1050D0005B6B254A9A62FB685B6B244ADA62FB6869
:1050E0005B6B234A1A63FB685B6B00225A6307F110
:1050F00008037B61FB68586BFB681B680433194627
:105100007B691A68FB88FBF7E9FB00233B61FB68BE
:105110001B681B683B61FB681B685B683B613B6904
:10512000FB68002283F83820FB681B68DA68FB689C
:105130001B6842F48072DA60FB681B685A69FB687E
:105140001B6842F001025A61FB681B685A69FB68E0
:105150001B6842F040025A61002300E00223184617
:105160001837BD4680BD00BF1154000879540008AF
:105170009554000880B588B000AF78607B681B68E4
:105180001B68FB617B681B68DB68BB617B681B6815
:105190005B697B6100233B610023FB60FB6903F0DB
:1051A0000F033B613B69002B0DD1FB6903F020032A
:1051B000002B08D0BB6903F02003002B03D07868D4
:1051C00000F065FACCE03B69002B00F0AB807B6916
:1051D00003F00103002B05D1BB6903F49073002B8E
:1051E00000F0A080FB6903F00103002B0AD0BB692B
:1051F00003F48073002B05D07B68DB6B43F0010266
:105200007B68DA63FB6903F00403002B0AD07B6937
:1052100003F00103002B05D07B68DB6B43F0020237
:105220007B68DA63FB6903F00203002B0AD07B6919
:1052300003F00103002B05D07B68DB6B43F0040215
:105240007B68DA63FB6903F00803002B0AD07B69F3
:1052500003F00103002B05D07B68DB6B43F00802F1
:105260007B68DA637B68DB6B002B78D0FB6903F02B
:105270002003002B07D0BB6903F02003002B02D0D2
:10528000786800F004FA7B681B685B6903F04003F0
:10529000002B14BF01230023DBB2FB607B68DB6BB8
:1052A00003F00803002B02D1FB68002B31D0786893
:1052B00000F04FF97B681B685B6903F04003002B2B
:1052C00023D07B681B685A697B681B6822F0400208
:1052D0005A617B685B6B002B13D07B685B6B224A47
:1052E0005A637B685B6B1846FBF758FB0346002B41
:1052F00016D07B685B6B5B6B7A68526B1046984785
:105300000EE0786800F044F80AE0786800F040F8B1
:1053100006E0786800F03CF87B680022DA631EE063
:1053200000BF1CE0FB6903F08003002B08D0BB69C1
:1053300003F08003002B03D0786800F03BF90FE006
:10534000FB6903F04003002B0AD0BB6903F0400364
:10535000002B05D0786800F082F900BF00E000BFA4
:105360002037BD4680BD00BF8D55000880B483B096
:1053700000AF786000BF0C37BD4680BC704780B47A
:1053800083B000AF786000BF0C37BD4680BC70476B
:1053900080B483B000AF786000BF0C37BD4680BCDE
:1053A000704780B584B000AF78607B685B6AFB6053
:1053B0007B681B681B6803F02003002B13D1FB687C
:1053C0000022DA84FB681B685A69FB681B6822F0BC
:1053D00080025A61FB681B68DA68FB681B6842F050
:1053E0004002DA6002E0F86800F056FB00BF1037B8
:1053F000BD4680BD80B584B000AF78607B685B6AD5
:10540000FB60F868FFF7B2FF00BF1037BD4680BDF4
:1054100080B584B000AF78607B685B6AFB607B68B6
:105420001B681B6803F02003002B1ED1FB680022C1
:10543000DA85FB681B68DA68FB681B6822F48072F7
:10544000DA60FB681B685A69FB681B6822F001027E
:105450005A61FB681B685A69FB681B6822F04002AE
:105460005A61FB68202283F83A20F86800F02CFB90
:1054700000BF1037BD4680BD80B584B000AF7860F6
:105480007B685B6AFB60F868FFF779FF00BF103745
:10549000BD4680BD80B584B000AF78600023FB605E
:1054A0007B685B6ABB60BB681B685B6903F0800359
:1054B000002B14BF01230023DBB2FB60BB6893F811
:1054C0003930DBB2212B08D1FB68002B05D0BB683B
:1054D0000022DA84B86800F027F8BB681B685B69B3
:1054E00003F04003002B14BF01230023DBB2FB6059
:1054F000BB6893F83A30DBB2222B08D1FB68002B53
:1055000005D0BB680022DA85B86800F022F8BB68D5
:10551000DB6B43F01002BB68DA63B868FFF738FF53
:1055200000BF1037BD4680BD80B483B000AF786047
:105530007B681B68DA687B681B6822F0C002DA604F
:105540007B68202283F8392000BF0C37BD4680BC21
:10555000704780B483B000AF78607B681B68DA68FE
:105560007B681B6822F49072DA607B681B685A695A
:105570007B681B6822F001025A617B68202283F855
:105580003A2000BF0C37BD4680BC704780B584B060
:1055900000AF78607B685B6AFB60FB680022DA859D
:1055A000FB680022DA84F868FFF7F2FE00BF1037CC
:1055B000BD4680BD80B485B000AF78607B6893F84D
:1055C0003930DBB2212B44D17B689B68B3F5805F17
:1055D0001AD17B681B6AFB60FB681B881A467B68D4
:1055E0001B68C2F308025A607B681B69002B05D157
:1055F0007B681B6A9A1C7B681A620EE07B681B6AD8
:105600005A1C7B681A6208E07B681B6A591C7A681E
:1056100011621A787B681B685A607B68DB8C9BB2CE
:10562000013B9BB27A681946D184002B0FD17B686D
:105630001B68DA687B681B6822F08002DA607B688E
:105640001B68DA687B681B6842F04002DA6000235E
:1056500000E0022318461437BD4680BC704780B571
:1056600082B000AF78607B681B68DA687B681B6873
:1056700022F04002DA607B68202283F839207868C3
:1056800000F00AFA002318460837BD4680BD80B5F1
:1056900084B000AF78607B6893F83A30DBB2222B9D
:1056A00071D17B689B68B3F5805F23D17B689B6A6F
:1056B000FB607B681B69002B0ED17B681B685B68F5
:1056C0009BB2C3F308039AB2FB681A807B689B6A9B
:1056D0009A1C7B689A6229E07B681B685B689BB2B6
:1056E000DBB29AB2FB681A807B689B6A5A1C7B68A3
:1056F0009A621BE07B681B69002B0AD17B681B68E0
:1057000058687B689B6A591C7A689162C2B21A70A9
:105710000CE07B681B685B68DAB27B689B6A581C8C
:105720007968886202F07F02D2B21A707B68DB8DE2
:105730009BB2013B9BB27A681946D185002B20D1E0
:105740007B681B68DA687B681B6822F02002DA60DD
:105750007B681B68DA687B681B6822F48072DA60F9
:105760007B681B685A697B681B6822F001025A61DA
:105770007B68202283F83A20786800F0A5F900239E
:1057800002E0002300E0022318461037BD4680BD2A
:1057900080B584B000AF78607B681B681B6923F418
:1057A00040517B68DA687B681B680A431A617B6832
:1057B0009A687B681B691A437B685B691343FB60CB
:1057C0007B681B68DB6823F4B05323F00C037A6812
:1057D0001268F9680B43D3607B681B685B6923F42C
:1057E00040717B689A697B681B680A435A617B68D1
:1057F0001B68524A93424ED1FDF7B4FCB860BA68B8
:1058000013469B0013449A001A447B685B689B0014
:10581000B2FBF3F34A4AA2FB03235B091901BA68FE
:1058200013469B0013449A001A447B685B689B00F4
:10583000B2FBF3F2424BA3FB02035B09642000FBC3
:1058400003F3D31A1B0132333D4AA2FB03235B0946
:1058500003F0F0031944BA6813469B0013449A00FE
:105860001A447B685B689B00B2FBF3F2344BA3FBEA
:1058700002035B09642000FB03F3D31A1B013233DC
:105880002F4AA2FB03235B0903F00F027B681B680E
:105890000A449A604DE0FDF751FCB860BA681346BF
:1058A0009B0013449A001A447B685B689B00B2FB20
:1058B000F3F3234AA2FB03235B091901BA681346D9
:1058C0009B0013449A001A447B685B689B00B2FB00
:1058D000F3F21B4BA3FB02035B09642000FB03F301
:1058E000D31A1B013233164AA2FB03235B0903F0D0
:1058F000F0031944BA6813469B0013449A001A44F3
:105900007B685B689B00B2FBF3F20D4BA3FB0203C9
:105910005B09642000FB03F3D31A1B013233084AEE
:10592000A2FB03235B0903F00F027B681B680A4498
:105930009A6000BF1037BD4680BD00BF00380140EF
:105940001F85EB5180B582B000AF78607B681B6823
:10595000184A93421BD14FF400511748FBF75DFBE7
:10596000164B1B681A461649164805F0AFFB164B36
:105970001B681B79022B04D0134B1B681B79012B6E
:1059800002D1114804F0F8FA104B01221A707B681A
:105990001B680F4A934208D10E48FEF7C6FB0E4B18
:1059A00010225A610A20FAF716FF00BF0837BD46D9
:1059B00080BD00BF00040040001001403C020020F8
:1059C0004CD00008B4050020B002002034030020B1
:1059D00000080040540400200004014080B582B05B
:1059E00000AF78607B681B68B3F1804F17D10E4819
:1059F000FEF77EFF0346012B11D14FF080435B6A17
:105A00001A460A490A4805F061FB4FF080435B6A79
:105A10001946084804F0B8F9064804F0ADFA00BF8A
:105A20000837BD4680BD00BFC40600205CD000081A
:105A3000B4050020B002002080B483B000AF7860CD
:105A40007B681B68064A934204D1064B1B680133EE
:105A5000044A136000BF0C37BD4680BC704700BFCE
:105A6000005400403803002080B483B000AF786059
:105A70007B681B68064A934204D1064B1B680133BE
:105A8000044A136000BF0C37BD4680BC704700BF9E
:105A9000005400403C03002080B483B000AF786025
:105AA0007B681B68064A934204D1064B1B6801338E
:105AB000044A136000BF0C37BD4680BC704700BF6E
:105AC000003801404003002080B584B000AF78600A
:105AD0007B681B682F4A934257D12F4B1B78002BB2
